{
	"data": {
		"bytecode": {
			"linkReferences": {},
			"object": "60a060405234801561001057600080fd5b503373ffffffffffffffffffffffffffffffffffffffff1660808173ffffffffffffffffffffffffffffffffffffffff1660601b8152505060805160601c6106f9610066600039600061033c01526106f96000f3fe608060405234801561001057600080fd5b506004361061004c5760003560e01c806387949b7f14610051578063c37e50ee1461006d578063c435d39c14610089578063ed14ac99146100a5575b600080fd5b61006b600480360381019061006691906104c6565b6100d5565b005b610087600480360381019061008291906104c6565b610207565b005b6100a3600480360381019061009e919061049d565b61033a565b005b6100bf60048036038101906100ba91906104c6565b61040b565b6040516100cc91906105e1565b60405180910390f35b60008054906101000a900473ffffffffffffffffffffffffffffffffffffffff1673ffffffffffffffffffffffffffffffffffffffff163373ffffffffffffffffffffffffffffffffffffffff1614610163576040517f08c379a000000000000000000000000000000000000000000000000000000000815260040161015a9061061c565b60405180910390fd5b600180600084815260200190815260200160002060008373ffffffffffffffffffffffffffffffffffffffff1673ffffffffffffffffffffffffffffffffffffffff16815260200190815260200160002060006101000a81548160ff021916908315150217905550817f7a8162eb3263fd840cf1436759e0e415243083d1aeb93a522e7dd7ee8c0190c5826040516101fb91906105c6565b60405180910390a25050565b60008054906101000a900473ffffffffffffffffffffffffffffffffffffffff1673ffffffffffffffffffffffffffffffffffffffff163373ffffffffffffffffffffffffffffffffffffffff1614610295576040517f08c379a000000000000000000000000000000000000000000000000000000000815260040161028c9061061c565b60405180910390fd5b60006001600084815260200190815260200160002060008373ffffffffffffffffffffffffffffffffffffffff1673ffffffffffffffffffffffffffffffffffffffff16815260200190815260200160002060006101000a81548160ff021916908315150217905550817fcfcea61e215e3731782569425300d287484ca9a4055aa7c5625d42258592befc8260405161032e91906105c6565b60405180910390a25050565b7f000000000000000000000000000000000000000000000000000000000000000073ffffffffffffffffffffffffffffffffffffffff163373ffffffffffffffffffffffffffffffffffffffff16146103c8576040517f08c379a00000000000000000000000000000000000000000000000000000000081526004016103bf906105fc565b60405180910390fd5b806000806101000a81548173ffffffffffffffffffffffffffffffffffffffff021916908373ffffffffffffffffffffffffffffffffffffffff16021790555050565b60006001600084815260200190815260200160002060008373ffffffffffffffffffffffffffffffffffffffff1673ffffffffffffffffffffffffffffffffffffffff16815260200190815260200160002060009054906101000a900460ff16905092915050565b60008135905061048281610695565b92915050565b600081359050610497816106ac565b92915050565b6000602082840312156104af57600080fd5b60006104bd84828501610473565b91505092915050565b600080604083850312156104d957600080fd5b60006104e785828601610488565b92505060206104f885828601610473565b9150509250929050565b61050b8161064d565b82525050565b61051a8161065f565b82525050565b600061052d60168361063c565b91507f4e6f206572657320656c2070726f706965746172696f000000000000000000006000830152602082019050919050565b600061056d60288361063c565b91507f536f6c6f204c6f67696361436164656e6153756d696e697374726f207075656460008301527f65206c6c616d61720000000000000000000000000000000000000000000000006020830152604082019050919050565b60006020820190506105db6000830184610502565b92915050565b60006020820190506105f66000830184610511565b92915050565b6000602082019050818103600083015261061581610520565b9050919050565b6000602082019050818103600083015261063581610560565b9050919050565b600082825260208201905092915050565b60006106588261066b565b9050919050565b60008115159050919050565b600073ffffffffffffffffffffffffffffffffffffffff82169050919050565b6000819050919050565b61069e8161064d565b81146106a957600080fd5b50565b6106b58161068b565b81146106c057600080fd5b5056fea2646970667358221220449571e55658fa8f90dbe5d0898f8f1c06503bcbbac6dc6820f1b37a45a80d9764736f6c63430008000033",
			"opcodes": "PUSH1 0xA0 PUSH1 0x40 MSTORE CALLVALUE DUP1 ISZERO PUSH2 0x10 JUMPI PUSH1 0x0 DUP1 REVERT JUMPDEST POP CALLER PUSH20 0xFFFFFFFFFFFFFFFFFFFFFFFFFFFFFFFFFFFFFFFF AND PUSH1 0x80 DUP2 PUSH20 0xFFFFFFFFFFFFFFFFFFFFFFFFFFFFFFFFFFFFFFFF AND PUSH1 0x60 SHL DUP2 MSTORE POP POP PUSH1 0x80 MLOAD PUSH1 0x60 SHR PUSH2 0x6F9 PUSH2 0x66 PUSH1 0x0 CODECOPY PUSH1 0x0 PUSH2 0x33C ADD MSTORE PUSH2 0x6F9 PUSH1 0x0 RETURN INVALID PUSH1 0x80 PUSH1 0x40 MSTORE CALLVALUE DUP1 ISZERO PUSH2 0x10 JUMPI PUSH1 0x0 DUP1 REVERT JUMPDEST POP PUSH1 0x4 CALLDATASIZE LT PUSH2 0x4C JUMPI PUSH1 0x0 CALLDATALOAD PUSH1 0xE0 SHR DUP1 PUSH4 0x87949B7F EQ PUSH2 0x51 JUMPI DUP1 PUSH4 0xC37E50EE EQ PUSH2 0x6D JUMPI DUP1 PUSH4 0xC435D39C EQ PUSH2 0x89 JUMPI DUP1 PUSH4 0xED14AC99 EQ PUSH2 0xA5 JUMPI JUMPDEST PUSH1 0x0 DUP1 REVERT JUMPDEST PUSH2 0x6B PUSH1 0x4 DUP1 CALLDATASIZE SUB DUP2 ADD SWAP1 PUSH2 0x66 SWAP2 SWAP1 PUSH2 0x4C6 JUMP JUMPDEST PUSH2 0xD5 JUMP JUMPDEST STOP JUMPDEST PUSH2 0x87 PUSH1 0x4 DUP1 CALLDATASIZE SUB DUP2 ADD SWAP1 PUSH2 0x82 SWAP2 SWAP1 PUSH2 0x4C6 JUMP JUMPDEST PUSH2 0x207 JUMP JUMPDEST STOP JUMPDEST PUSH2 0xA3 PUSH1 0x4 DUP1 CALLDATASIZE SUB DUP2 ADD SWAP1 PUSH2 0x9E SWAP2 SWAP1 PUSH2 0x49D JUMP JUMPDEST PUSH2 0x33A JUMP JUMPDEST STOP JUMPDEST PUSH2 0xBF PUSH1 0x4 DUP1 CALLDATASIZE SUB DUP2 ADD SWAP1 PUSH2 0xBA SWAP2 SWAP1 PUSH2 0x4C6 JUMP JUMPDEST PUSH2 0x40B JUMP JUMPDEST PUSH1 0x40 MLOAD PUSH2 0xCC SWAP2 SWAP1 PUSH2 0x5E1 JUMP JUMPDEST PUSH1 0x40 MLOAD DUP1 SWAP2 SUB SWAP1 RETURN JUMPDEST PUSH1 0x0 DUP1 SLOAD SWAP1 PUSH2 0x100 EXP SWAP1 DIV PUSH20 0xFFFFFFFFFFFFFFFFFFFFFFFFFFFFFFFFFFFFFFFF AND PUSH20 0xFFFFFFFFFFFFFFFFFFFFFFFFFFFFFFFFFFFFFFFF AND CALLER PUSH20 0xFFFFFFFFFFFFFFFFFFFFFFFFFFFFFFFFFFFFFFFF AND EQ PUSH2 0x163 JUMPI PUSH1 0x40 MLOAD PUSH32 0x8C379A000000000000000000000000000000000000000000000000000000000 DUP2 MSTORE PUSH1 0x4 ADD PUSH2 0x15A SWAP1 PUSH2 0x61C JUMP JUMPDEST PUSH1 0x40 MLOAD DUP1 SWAP2 SUB SWAP1 REVERT JUMPDEST PUSH1 0x1 DUP1 PUSH1 0x0 DUP5 DUP2 MSTORE PUSH1 0x20 ADD SWAP1 DUP2 MSTORE PUSH1 0x20 ADD PUSH1 0x0 KECCAK256 PUSH1 0x0 DUP4 PUSH20 0xFFFFFFFFFFFFFFFFFFFFFFFFFFFFFFFFFFFFFFFF AND PUSH20 0xFFFFFFFFFFFFFFFFFFFFFFFFFFFFFFFFFFFFFFFF AND DUP2 MSTORE PUSH1 0x20 ADD SWAP1 DUP2 MSTORE PUSH1 0x20 ADD PUSH1 0x0 KECCAK256 PUSH1 0x0 PUSH2 0x100 EXP DUP2 SLOAD DUP2 PUSH1 0xFF MUL NOT AND SWAP1 DUP4 ISZERO ISZERO MUL OR SWAP1 SSTORE POP DUP2 PUSH32 0x7A8162EB3263FD840CF1436759E0E415243083D1AEB93A522E7DD7EE8C0190C5 DUP3 PUSH1 0x40 MLOAD PUSH2 0x1FB SWAP2 SWAP1 PUSH2 0x5C6 JUMP JUMPDEST PUSH1 0x40 MLOAD DUP1 SWAP2 SUB SWAP1 LOG2 POP POP JUMP JUMPDEST PUSH1 0x0 DUP1 SLOAD SWAP1 PUSH2 0x100 EXP SWAP1 DIV PUSH20 0xFFFFFFFFFFFFFFFFFFFFFFFFFFFFFFFFFFFFFFFF AND PUSH20 0xFFFFFFFFFFFFFFFFFFFFFFFFFFFFFFFFFFFFFFFF AND CALLER PUSH20 0xFFFFFFFFFFFFFFFFFFFFFFFFFFFFFFFFFFFFFFFF AND EQ PUSH2 0x295 JUMPI PUSH1 0x40 MLOAD PUSH32 0x8C379A000000000000000000000000000000000000000000000000000000000 DUP2 MSTORE PUSH1 0x4 ADD PUSH2 0x28C SWAP1 PUSH2 0x61C JUMP JUMPDEST PUSH1 0x40 MLOAD DUP1 SWAP2 SUB SWAP1 REVERT JUMPDEST PUSH1 0x0 PUSH1 0x1 PUSH1 0x0 DUP5 DUP2 MSTORE PUSH1 0x20 ADD SWAP1 DUP2 MSTORE PUSH1 0x20 ADD PUSH1 0x0 KECCAK256 PUSH1 0x0 DUP4 PUSH20 0xFFFFFFFFFFFFFFFFFFFFFFFFFFFFFFFFFFFFFFFF AND PUSH20 0xFFFFFFFFFFFFFFFFFFFFFFFFFFFFFFFFFFFFFFFF AND DUP2 MSTORE PUSH1 0x20 ADD SWAP1 DUP2 MSTORE PUSH1 0x20 ADD PUSH1 0x0 KECCAK256 PUSH1 0x0 PUSH2 0x100 EXP DUP2 SLOAD DUP2 PUSH1 0xFF MUL NOT AND SWAP1 DUP4 ISZERO ISZERO MUL OR SWAP1 SSTORE POP DUP2 PUSH32 0xCFCEA61E215E3731782569425300D287484CA9A4055AA7C5625D42258592BEFC DUP3 PUSH1 0x40 MLOAD PUSH2 0x32E SWAP2 SWAP1 PUSH2 0x5C6 JUMP JUMPDEST PUSH1 0x40 MLOAD DUP1 SWAP2 SUB SWAP1 LOG2 POP POP JUMP JUMPDEST PUSH32 0x0 PUSH20 0xFFFFFFFFFFFFFFFFFFFFFFFFFFFFFFFFFFFFFFFF AND CALLER PUSH20 0xFFFFFFFFFFFFFFFFFFFFFFFFFFFFFFFFFFFFFFFF AND EQ PUSH2 0x3C8 JUMPI PUSH1 0x40 MLOAD PUSH32 0x8C379A000000000000000000000000000000000000000000000000000000000 DUP2 MSTORE PUSH1 0x4 ADD PUSH2 0x3BF SWAP1 PUSH2 0x5FC JUMP JUMPDEST PUSH1 0x40 MLOAD DUP1 SWAP2 SUB SWAP1 REVERT JUMPDEST DUP1 PUSH1 0x0 DUP1 PUSH2 0x100 EXP DUP2 SLOAD DUP2 PUSH20 0xFFFFFFFFFFFFFFFFFFFFFFFFFFFFFFFFFFFFFFFF MUL NOT AND SWAP1 DUP4 PUSH20 0xFFFFFFFFFFFFFFFFFFFFFFFFFFFFFFFFFFFFFFFF AND MUL OR SWAP1 SSTORE POP POP JUMP JUMPDEST PUSH1 0x0 PUSH1 0x1 PUSH1 0x0 DUP5 DUP2 MSTORE PUSH1 0x20 ADD SWAP1 DUP2 MSTORE PUSH1 0x20 ADD PUSH1 0x0 KECCAK256 PUSH1 0x0 DUP4 PUSH20 0xFFFFFFFFFFFFFFFFFFFFFFFFFFFFFFFFFFFFFFFF AND PUSH20 0xFFFFFFFFFFFFFFFFFFFFFFFFFFFFFFFFFFFFFFFF AND DUP2 MSTORE PUSH1 0x20 ADD SWAP1 DUP2 MSTORE PUSH1 0x20 ADD PUSH1 0x0 KECCAK256 PUSH1 0x0 SWAP1 SLOAD SWAP1 PUSH2 0x100 EXP SWAP1 DIV PUSH1 0xFF AND SWAP1 POP SWAP3 SWAP2 POP POP JUMP JUMPDEST PUSH1 0x0 DUP2 CALLDATALOAD SWAP1 POP PUSH2 0x482 DUP2 PUSH2 0x695 JUMP JUMPDEST SWAP3 SWAP2 POP POP JUMP JUMPDEST PUSH1 0x0 DUP2 CALLDATALOAD SWAP1 POP PUSH2 0x497 DUP2 PUSH2 0x6AC JUMP JUMPDEST SWAP3 SWAP2 POP POP JUMP JUMPDEST PUSH1 0x0 PUSH1 0x20 DUP3 DUP5 SUB SLT ISZERO PUSH2 0x4AF JUMPI PUSH1 0x0 DUP1 REVERT JUMPDEST PUSH1 0x0 PUSH2 0x4BD DUP5 DUP3 DUP6 ADD PUSH2 0x473 JUMP JUMPDEST SWAP2 POP POP SWAP3 SWAP2 POP POP JUMP JUMPDEST PUSH1 0x0 DUP1 PUSH1 0x40 DUP4 DUP6 SUB SLT ISZERO PUSH2 0x4D9 JUMPI PUSH1 0x0 DUP1 REVERT JUMPDEST PUSH1 0x0 PUSH2 0x4E7 DUP6 DUP3 DUP7 ADD PUSH2 0x488 JUMP JUMPDEST SWAP3 POP POP PUSH1 0x20 PUSH2 0x4F8 DUP6 DUP3 DUP7 ADD PUSH2 0x473 JUMP JUMPDEST SWAP2 POP POP SWAP3 POP SWAP3 SWAP1 POP JUMP JUMPDEST PUSH2 0x50B DUP2 PUSH2 0x64D JUMP JUMPDEST DUP3 MSTORE POP POP JUMP JUMPDEST PUSH2 0x51A DUP2 PUSH2 0x65F JUMP JUMPDEST DUP3 MSTORE POP POP JUMP JUMPDEST PUSH1 0x0 PUSH2 0x52D PUSH1 0x16 DUP4 PUSH2 0x63C JUMP JUMPDEST SWAP2 POP PUSH32 0x4E6F206572657320656C2070726F706965746172696F00000000000000000000 PUSH1 0x0 DUP4 ADD MSTORE PUSH1 0x20 DUP3 ADD SWAP1 POP SWAP2 SWAP1 POP JUMP JUMPDEST PUSH1 0x0 PUSH2 0x56D PUSH1 0x28 DUP4 PUSH2 0x63C JUMP JUMPDEST SWAP2 POP PUSH32 0x536F6C6F204C6F67696361436164656E6153756D696E697374726F2070756564 PUSH1 0x0 DUP4 ADD MSTORE PUSH32 0x65206C6C616D6172000000000000000000000000000000000000000000000000 PUSH1 0x20 DUP4 ADD MSTORE PUSH1 0x40 DUP3 ADD SWAP1 POP SWAP2 SWAP1 POP JUMP JUMPDEST PUSH1 0x0 PUSH1 0x20 DUP3 ADD SWAP1 POP PUSH2 0x5DB PUSH1 0x0 DUP4 ADD DUP5 PUSH2 0x502 JUMP JUMPDEST SWAP3 SWAP2 POP POP JUMP JUMPDEST PUSH1 0x0 PUSH1 0x20 DUP3 ADD SWAP1 POP PUSH2 0x5F6 PUSH1 0x0 DUP4 ADD DUP5 PUSH2 0x511 JUMP JUMPDEST SWAP3 SWAP2 POP POP JUMP JUMPDEST PUSH1 0x0 PUSH1 0x20 DUP3 ADD SWAP1 POP DUP2 DUP2 SUB PUSH1 0x0 DUP4 ADD MSTORE PUSH2 0x615 DUP2 PUSH2 0x520 JUMP JUMPDEST SWAP1 POP SWAP2 SWAP1 POP JUMP JUMPDEST PUSH1 0x0 PUSH1 0x20 DUP3 ADD SWAP1 POP DUP2 DUP2 SUB PUSH1 0x0 DUP4 ADD MSTORE PUSH2 0x635 DUP2 PUSH2 0x560 JUMP JUMPDEST SWAP1 POP SWAP2 SWAP1 POP JUMP JUMPDEST PUSH1 0x0 DUP3 DUP3 MSTORE PUSH1 0x20 DUP3 ADD SWAP1 POP SWAP3 SWAP2 POP POP JUMP JUMPDEST PUSH1 0x0 PUSH2 0x658 DUP3 PUSH2 0x66B JUMP JUMPDEST SWAP1 POP SWAP2 SWAP1 POP JUMP JUMPDEST PUSH1 0x0 DUP2 ISZERO ISZERO SWAP1 POP SWAP2 SWAP1 POP JUMP JUMPDEST PUSH1 0x0 PUSH20 0xFFFFFFFFFFFFFFFFFFFFFFFFFFFFFFFFFFFFFFFF DUP3 AND SWAP1 POP SWAP2 SWAP1 POP JUMP JUMPDEST PUSH1 0x0 DUP2 SWAP1 POP SWAP2 SWAP1 POP JUMP JUMPDEST PUSH2 0x69E DUP2 PUSH2 0x64D JUMP JUMPDEST DUP2 EQ PUSH2 0x6A9 JUMPI PUSH1 0x0 DUP1 REVERT JUMPDEST POP JUMP JUMPDEST PUSH2 0x6B5 DUP2 PUSH2 0x68B JUMP JUMPDEST DUP2 EQ PUSH2 0x6C0 JUMPI PUSH1 0x0 DUP1 REVERT JUMPDEST POP JUMP INVALID LOG2 PUSH5 0x6970667358 0x22 SLT KECCAK256 DIFFICULTY SWAP6 PUSH18 0xE55658FA8F90DBE5D0898F8F1C06503BCBBA 0xC6 0xDC PUSH9 0x20F1B37A45A80D9764 PUSH20 0x6F6C634300080000330000000000000000000000 "
		},
		"gasEstimates": {
			"creation": {
				"codeDepositCost": "357000",
				"executionCost": "infinite",
				"totalCost": "infinite"
			},
			"external": {
				"otorgarPermiso(uint256,address)": "infinite",
				"revocarPermiso(uint256,address)": "infinite",
				"setLogicaCadenaSuministro(address)": "infinite",
				"tienePermiso(uint256,address)": "1878"
			}
		},
		"methodIdentifiers": {
			"otorgarPermiso(uint256,address)": "87949b7f",
			"revocarPermiso(uint256,address)": "c37e50ee",
			"setLogicaCadenaSuministro(address)": "c435d39c",
			"tienePermiso(uint256,address)": "ed14ac99"
		}
	},
	"abi": [
		{
			"inputs": [],
			"stateMutability": "nonpayable",
			"type": "constructor"
		},
		{
			"anonymous": false,
			"inputs": [
				{
					"indexed": true,
					"internalType": "uint256",
					"name": "idProducto",
					"type": "uint256"
				},
				{
					"indexed": false,
					"internalType": "address",
					"name": "usuario",
					"type": "address"
				}
			],
			"name": "PermisoOtorgado",
			"type": "event"
		},
		{
			"anonymous": false,
			"inputs": [
				{
					"indexed": true,
					"internalType": "uint256",
					"name": "idProducto",
					"type": "uint256"
				},
				{
					"indexed": false,
					"internalType": "address",
					"name": "usuario",
					"type": "address"
				}
			],
			"name": "PermisoRevocado",
			"type": "event"
		},
		{
			"inputs": [
				{
					"internalType": "uint256",
					"name": "idProducto",
					"type": "uint256"
				},
				{
					"internalType": "address",
					"name": "usuario",
					"type": "address"
				}
			],
			"name": "otorgarPermiso",
			"outputs": [],
			"stateMutability": "nonpayable",
			"type": "function"
		},
		{
			"inputs": [
				{
					"internalType": "uint256",
					"name": "idProducto",
					"type": "uint256"
				},
				{
					"internalType": "address",
					"name": "usuario",
					"type": "address"
				}
			],
			"name": "revocarPermiso",
			"outputs": [],
			"stateMutability": "nonpayable",
			"type": "function"
		},
		{
			"inputs": [
				{
					"internalType": "address",
					"name": "logica",
					"type": "address"
				}
			],
			"name": "setLogicaCadenaSuministro",
			"outputs": [],
			"stateMutability": "nonpayable",
			"type": "function"
		},
		{
			"inputs": [
				{
					"internalType": "uint256",
					"name": "idProducto",
					"type": "uint256"
				},
				{
					"internalType": "address",
					"name": "usuario",
					"type": "address"
				}
			],
			"name": "tienePermiso",
			"outputs": [
				{
					"internalType": "bool",
					"name": "",
					"type": "bool"
				}
			],
			"stateMutability": "view",
			"type": "function"
		}
	]
}