{
	"data": {
		"bytecode": {
			"linkReferences": {},
			"object": "6101006040523480156200001257600080fd5b5060405162001ea438038062001ea4833981810160405281019062000038919062000135565b8373ffffffffffffffffffffffffffffffffffffffff1660808173ffffffffffffffffffffffffffffffffffffffff1660601b815250508273ffffffffffffffffffffffffffffffffffffffff1660a08173ffffffffffffffffffffffffffffffffffffffff1660601b815250508173ffffffffffffffffffffffffffffffffffffffff1660c08173ffffffffffffffffffffffffffffffffffffffff1660601b815250508073ffffffffffffffffffffffffffffffffffffffff1660e08173ffffffffffffffffffffffffffffffffffffffff1660601b8152505050505050620001ef565b6000815190506200012f81620001d5565b92915050565b600080600080608085870312156200014c57600080fd5b60006200015c878288016200011e565b94505060206200016f878288016200011e565b935050604062000182878288016200011e565b925050606062000195878288016200011e565b91505092959194509250565b6000620001ae82620001b5565b9050919050565b600073ffffffffffffffffffffffffffffffffffffffff82169050919050565b620001e081620001a1565b8114620001ec57600080fd5b50565b60805160601c60a05160601c60c05160601c60e05160601c611c156200028f6000396000818161084e01526111e70152600081816103760152818161054201528181610a08015281816110cd015261115a015260008181609e0152818161062e01528181610c0f0152610cbc0152600081816101fc015281816102e50152818161045a0152818161092001528181610af401526110400152611c156000f3fe608060405234801561001057600080fd5b50600436106100415760003560e01c80630cbc5668146100465780635e6a5a63146100625780636add2df91461007e575b600080fd5b610060600480360381019061005b91906114e3565b61009a565b005b61007c600480360381019061007791906114e3565b610458565b005b610098600480360381019061009391906114a7565b61091e565b005b60007f000000000000000000000000000000000000000000000000000000000000000073ffffffffffffffffffffffffffffffffffffffff166333a21dc1336040518263ffffffff1660e01b81526004016100f59190611831565b60206040518083038186803b15801561010d57600080fd5b505afa158015610121573d6000803e3d6000fd5b505050506040513d601f19601f82011682018060405250810190610145919061147e565b905060016003811115610181577f4e487b7100000000000000000000000000000000000000000000000000000000600052602160045260246000fd5b8160038111156101ba577f4e487b7100000000000000000000000000000000000000000000000000000000600052602160045260246000fd5b146101fa576040517f08c379a00000000000000000000000000000000000000000000000000000000081526004016101f190611870565b60405180910390fd5b7f000000000000000000000000000000000000000000000000000000000000000073ffffffffffffffffffffffffffffffffffffffff1663618fdd47856040518263ffffffff1660e01b81526004016102539190611970565b60206040518083038186803b15801561026b57600080fd5b505afa15801561027f573d6000803e3d6000fd5b505050506040513d601f19601f820116820180604052508101906102a39190611455565b156102e3576040517f08c379a00000000000000000000000000000000000000000000000000000000081526004016102da90611950565b60405180910390fd5b7f000000000000000000000000000000000000000000000000000000000000000073ffffffffffffffffffffffffffffffffffffffff1663666ecfd0858585336040518563ffffffff1660e01b815260040161034294939291906119eb565b600060405180830381600087803b15801561035c57600080fd5b505af1158015610370573d6000803e3d6000fd5b505050507f000000000000000000000000000000000000000000000000000000000000000073ffffffffffffffffffffffffffffffffffffffff166387949b7f85336040518363ffffffff1660e01b81526004016103cf92919061198b565b600060405180830381600087803b1580156103e957600080fd5b505af11580156103fd573d6000803e3d6000fd5b505050503373ffffffffffffffffffffffffffffffffffffffff16847f47f31b1968929fd855daa7cf13b31d0beece11b0f0f068aa6a77ea0cf4db2607858560405161044a92919061184c565b60405180910390a350505050565b7f000000000000000000000000000000000000000000000000000000000000000073ffffffffffffffffffffffffffffffffffffffff1663618fdd47846040518263ffffffff1660e01b81526004016104b19190611970565b60206040518083038186803b1580156104c957600080fd5b505afa1580156104dd573d6000803e3d6000fd5b505050506040513d601f19601f820116820180604052508101906105019190611455565b610540576040517f08c379a0000000000000000000000000000000000000000000000000000000008152600401610537906118f0565b60405180910390fd5b7f000000000000000000000000000000000000000000000000000000000000000073ffffffffffffffffffffffffffffffffffffffff1663ed14ac9984336040518363ffffffff1660e01b815260040161059b92919061198b565b60206040518083038186803b1580156105b357600080fd5b505afa1580156105c7573d6000803e3d6000fd5b505050506040513d601f19601f820116820180604052508101906105eb9190611455565b61062a576040517f08c379a0000000000000000000000000000000000000000000000000000000008152600401610621906118b0565b60405180910390fd5b60007f000000000000000000000000000000000000000000000000000000000000000073ffffffffffffffffffffffffffffffffffffffff166333a21dc1336040518263ffffffff1660e01b81526004016106859190611831565b60206040518083038186803b15801561069d57600080fd5b505afa1580156106b1573d6000803e3d6000fd5b505050506040513d601f19601f820116820180604052508101906106d5919061147e565b905060006003811115610711577f4e487b7100000000000000000000000000000000000000000000000000000000600052602160045260246000fd5b81600381111561074a577f4e487b7100000000000000000000000000000000000000000000000000000000600052602160045260246000fd5b141561078b576040517f08c379a0000000000000000000000000000000000000000000000000000000008152600401610782906118d0565b60405180910390fd5b600080600086815260200190815260200160002080546107aa90611b18565b80601f01602080910402602001604051908101604052809291908181526020018280546107d690611b18565b80156108235780601f106107f857610100808354040283529160200191610823565b820191906000526020600020905b81548152906001019060200180831161080657829003601f168201915b505050505090508383600080888152602001908152602001600020919061084b9291906112d6565b507f000000000000000000000000000000000000000000000000000000000000000073ffffffffffffffffffffffffffffffffffffffff166377543222868387876040518563ffffffff1660e01b81526004016108ab9493929190611a2b565b600060405180830381600087803b1580156108c557600080fd5b505af11580156108d9573d6000803e3d6000fd5b50505050847fecfc98cdd416bd6051e028da16e26f6512adcedda6b875a1b7a4097e6b4888c8858560405161090f92919061184c565b60405180910390a25050505050565b7f000000000000000000000000000000000000000000000000000000000000000073ffffffffffffffffffffffffffffffffffffffff1663618fdd47836040518263ffffffff1660e01b81526004016109779190611970565b60206040518083038186803b15801561098f57600080fd5b505afa1580156109a3573d6000803e3d6000fd5b505050506040513d601f19601f820116820180604052508101906109c79190611455565b610a06576040517f08c379a00000000000000000000000000000000000000000000000000000000081526004016109fd906118f0565b60405180910390fd5b7f000000000000000000000000000000000000000000000000000000000000000073ffffffffffffffffffffffffffffffffffffffff1663ed14ac9983336040518363ffffffff1660e01b8152600401610a6192919061198b565b60206040518083038186803b158015610a7957600080fd5b505afa158015610a8d573d6000803e3d6000fd5b505050506040513d601f19601f82011682018060405250810190610ab19190611455565b610af0576040517f08c379a0000000000000000000000000000000000000000000000000000000008152600401610ae7906118b0565b60405180910390fd5b60007f000000000000000000000000000000000000000000000000000000000000000073ffffffffffffffffffffffffffffffffffffffff1663b3febe1c846040518263ffffffff1660e01b8152600401610b4b9190611970565b60206040518083038186803b158015610b6357600080fd5b505afa158015610b77573d6000803e3d6000fd5b505050506040513d601f19601f82011682018060405250810190610b9b919061142c565b90508073ffffffffffffffffffffffffffffffffffffffff163373ffffffffffffffffffffffffffffffffffffffff1614610c0b576040517f08c379a0000000000000000000000000000000000000000000000000000000008152600401610c0290611910565b60405180910390fd5b60007f000000000000000000000000000000000000000000000000000000000000000073ffffffffffffffffffffffffffffffffffffffff166333a21dc1336040518263ffffffff1660e01b8152600401610c669190611831565b60206040518083038186803b158015610c7e57600080fd5b505afa158015610c92573d6000803e3d6000fd5b505050506040513d601f19601f82011682018060405250810190610cb6919061147e565b905060007f000000000000000000000000000000000000000000000000000000000000000073ffffffffffffffffffffffffffffffffffffffff166333a21dc1856040518263ffffffff1660e01b8152600401610d139190611831565b60206040518083038186803b158015610d2b57600080fd5b505afa158015610d3f573d6000803e3d6000fd5b505050506040513d601f19601f82011682018060405250810190610d63919061147e565b905060006003811115610d9f577f4e487b7100000000000000000000000000000000000000000000000000000000600052602160045260246000fd5b816003811115610dd8577f4e487b7100000000000000000000000000000000000000000000000000000000600052602160045260246000fd5b1415610e19576040517f08c379a0000000000000000000000000000000000000000000000000000000008152600401610e1090611890565b60405180910390fd5b60016003811115610e53577f4e487b7100000000000000000000000000000000000000000000000000000000600052602160045260246000fd5b826003811115610e8c577f4e487b7100000000000000000000000000000000000000000000000000000000600052602160045260246000fd5b148015610f09575060026003811115610ece577f4e487b7100000000000000000000000000000000000000000000000000000000600052602160045260246000fd5b816003811115610f07577f4e487b7100000000000000000000000000000000000000000000000000000000600052602160045260246000fd5b145b80610fff575060026003811115610f49577f4e487b7100000000000000000000000000000000000000000000000000000000600052602160045260246000fd5b826003811115610f82577f4e487b7100000000000000000000000000000000000000000000000000000000600052602160045260246000fd5b148015610ffe5750600380811115610fc3577f4e487b7100000000000000000000000000000000000000000000000000000000600052602160045260246000fd5b816003811115610ffc577f4e487b7100000000000000000000000000000000000000000000000000000000600052602160045260246000fd5b145b5b61103e576040517f08c379a000000000000000000000000000000000000000000000000000000000815260040161103590611930565b60405180910390fd5b7f000000000000000000000000000000000000000000000000000000000000000073ffffffffffffffffffffffffffffffffffffffff1663fc43ce1786866040518363ffffffff1660e01b815260040161109992919061198b565b600060405180830381600087803b1580156110b357600080fd5b505af11580156110c7573d6000803e3d6000fd5b505050507f000000000000000000000000000000000000000000000000000000000000000073ffffffffffffffffffffffffffffffffffffffff1663c37e50ee86336040518363ffffffff1660e01b815260040161112692919061198b565b600060405180830381600087803b15801561114057600080fd5b505af1158015611154573d6000803e3d6000fd5b505050507f000000000000000000000000000000000000000000000000000000000000000073ffffffffffffffffffffffffffffffffffffffff166387949b7f86866040518363ffffffff1660e01b81526004016111b392919061198b565b600060405180830381600087803b1580156111cd57600080fd5b505af11580156111e1573d6000803e3d6000fd5b505050507f000000000000000000000000000000000000000000000000000000000000000073ffffffffffffffffffffffffffffffffffffffff16634b2aaaf58633876040518463ffffffff1660e01b8152600401611242939291906119b4565b600060405180830381600087803b15801561125c57600080fd5b505af1158015611270573d6000803e3d6000fd5b505050508373ffffffffffffffffffffffffffffffffffffffff163373ffffffffffffffffffffffffffffffffffffffff16867f8761175769f4812fc1a3f00267fb069d1d176cbd8c2381dee3428be5f1f74a3b60405160405180910390a45050505050565b8280546112e290611b18565b90600052602060002090601f016020900481019282611304576000855561134b565b82601f1061131d57803560ff191683800117855561134b565b8280016001018555821561134b579182015b8281111561134a57823582559160200191906001019061132f565b5b509050611358919061135c565b5090565b5b8082111561137557600081600090555060010161135d565b5090565b60008135905061138881611b8a565b92915050565b60008151905061139d81611b8a565b92915050565b6000815190506113b281611ba1565b92915050565b6000815190506113c781611bb8565b92915050565b60008083601f8401126113df57600080fd5b8235905067ffffffffffffffff8111156113f857600080fd5b60208301915083600182028301111561141057600080fd5b9250929050565b60008135905061142681611bc8565b92915050565b60006020828403121561143e57600080fd5b600061144c8482850161138e565b91505092915050565b60006020828403121561146757600080fd5b6000611475848285016113a3565b91505092915050565b60006020828403121561149057600080fd5b600061149e848285016113b8565b91505092915050565b600080604083850312156114ba57600080fd5b60006114c885828601611417565b92505060206114d985828601611379565b9150509250929050565b6000806000604084860312156114f857600080fd5b600061150686828701611417565b935050602084013567ffffffffffffffff81111561152357600080fd5b61152f868287016113cd565b92509250509250925092565b61154481611a8e565b82525050565b60006115568385611a7d565b9350611563838584611ad6565b61156c83611b79565b840190509392505050565b600061158282611a72565b61158c8185611a7d565b935061159c818560208601611ae5565b6115a581611b79565b840191505092915050565b60006115bd602783611a7d565b91507f536f6c6f2070726f647563746f7265732070756564656e20637265617220707260008301527f6f647563746f73000000000000000000000000000000000000000000000000006020830152604082019050919050565b6000611623601a83611a7d565b91507f44657374696e61746172696f206e6f207265676973747261646f0000000000006000830152602082019050919050565b6000611663602e83611a7d565b91507f4e6f207469656e6573207065726d69736f2070617261206d6f6469666963617260008301527f20657374652070726f647563746f0000000000000000000000000000000000006020830152604082019050919050565b60006116c9601583611a7d565b91507f5573756172696f206e6f207265676973747261646f00000000000000000000006000830152602082019050919050565b6000611709601283611a7d565b91507f50726f647563746f206e6f2065786973746500000000000000000000000000006000830152602082019050919050565b6000611749601f83611a7d565b91507f4e6f206572657320717569656e20706f73656520656c2070726f647563746f006000830152602082019050919050565b6000611789602c83611a7d565b91507f5472616e73666572656e636961206e6f207065726d697469646120656e74726560008301527f206573746f7320726f6c657300000000000000000000000000000000000000006020830152604082019050919050565b60006117ef601283611a7d565b91507f50726f647563746f2079612065786973746500000000000000000000000000006000830152602082019050919050565b61182b81611acc565b82525050565b6000602082019050611846600083018461153b565b92915050565b6000602082019050818103600083015261186781848661154a565b90509392505050565b60006020820190508181036000830152611889816115b0565b9050919050565b600060208201905081810360008301526118a981611616565b9050919050565b600060208201905081810360008301526118c981611656565b9050919050565b600060208201905081810360008301526118e9816116bc565b9050919050565b60006020820190508181036000830152611909816116fc565b9050919050565b600060208201905081810360008301526119298161173c565b9050919050565b600060208201905081810360008301526119498161177c565b9050919050565b60006020820190508181036000830152611969816117e2565b9050919050565b60006020820190506119856000830184611822565b92915050565b60006040820190506119a06000830185611822565b6119ad602083018461153b565b9392505050565b60006060820190506119c96000830186611822565b6119d6602083018561153b565b6119e3604083018461153b565b949350505050565b6000606082019050611a006000830187611822565b8181036020830152611a1381858761154a565b9050611a22604083018461153b565b95945050505050565b6000606082019050611a406000830187611822565b8181036020830152611a528186611577565b90508181036040830152611a6781848661154a565b905095945050505050565b600081519050919050565b600082825260208201905092915050565b6000611a9982611aac565b9050919050565b60008115159050919050565b600073ffffffffffffffffffffffffffffffffffffffff82169050919050565b6000819050919050565b82818337600083830152505050565b60005b83811015611b03578082015181840152602081019050611ae8565b83811115611b12576000848401525b50505050565b60006002820490506001821680611b3057607f821691505b60208210811415611b4457611b43611b4a565b5b50919050565b7f4e487b7100000000000000000000000000000000000000000000000000000000600052602260045260246000fd5b6000601f19601f8301169050919050565b611b9381611a8e565b8114611b9e57600080fd5b50565b611baa81611aa0565b8114611bb557600080fd5b50565b60048110611bc557600080fd5b50565b611bd181611acc565b8114611bdc57600080fd5b5056fea264697066735822122068c8d04f91f4fb5fd8990c1b93fc5863d927b5037c4523009b447df896371f5264736f6c63430008000033",
			"opcodes": "PUSH2 0x100 PUSH1 0x40 MSTORE CALLVALUE DUP1 ISZERO PUSH3 0x12 JUMPI PUSH1 0x0 DUP1 REVERT JUMPDEST POP PUSH1 0x40 MLOAD PUSH3 0x1EA4 CODESIZE SUB DUP1 PUSH3 0x1EA4 DUP4 CODECOPY DUP2 DUP2 ADD PUSH1 0x40 MSTORE DUP2 ADD SWAP1 PUSH3 0x38 SWAP2 SWAP1 PUSH3 0x135 JUMP JUMPDEST DUP4 PUSH20 0xFFFFFFFFFFFFFFFFFFFFFFFFFFFFFFFFFFFFFFFF AND PUSH1 0x80 DUP2 PUSH20 0xFFFFFFFFFFFFFFFFFFFFFFFFFFFFFFFFFFFFFFFF AND PUSH1 0x60 SHL DUP2 MSTORE POP POP DUP3 PUSH20 0xFFFFFFFFFFFFFFFFFFFFFFFFFFFFFFFFFFFFFFFF AND PUSH1 0xA0 DUP2 PUSH20 0xFFFFFFFFFFFFFFFFFFFFFFFFFFFFFFFFFFFFFFFF AND PUSH1 0x60 SHL DUP2 MSTORE POP POP DUP2 PUSH20 0xFFFFFFFFFFFFFFFFFFFFFFFFFFFFFFFFFFFFFFFF AND PUSH1 0xC0 DUP2 PUSH20 0xFFFFFFFFFFFFFFFFFFFFFFFFFFFFFFFFFFFFFFFF AND PUSH1 0x60 SHL DUP2 MSTORE POP POP DUP1 PUSH20 0xFFFFFFFFFFFFFFFFFFFFFFFFFFFFFFFFFFFFFFFF AND PUSH1 0xE0 DUP2 PUSH20 0xFFFFFFFFFFFFFFFFFFFFFFFFFFFFFFFFFFFFFFFF AND PUSH1 0x60 SHL DUP2 MSTORE POP POP POP POP POP POP PUSH3 0x1EF JUMP JUMPDEST PUSH1 0x0 DUP2 MLOAD SWAP1 POP PUSH3 0x12F DUP2 PUSH3 0x1D5 JUMP JUMPDEST SWAP3 SWAP2 POP POP JUMP JUMPDEST PUSH1 0x0 DUP1 PUSH1 0x0 DUP1 PUSH1 0x80 DUP6 DUP8 SUB SLT ISZERO PUSH3 0x14C JUMPI PUSH1 0x0 DUP1 REVERT JUMPDEST PUSH1 0x0 PUSH3 0x15C DUP8 DUP3 DUP9 ADD PUSH3 0x11E JUMP JUMPDEST SWAP5 POP POP PUSH1 0x20 PUSH3 0x16F DUP8 DUP3 DUP9 ADD PUSH3 0x11E JUMP JUMPDEST SWAP4 POP POP PUSH1 0x40 PUSH3 0x182 DUP8 DUP3 DUP9 ADD PUSH3 0x11E JUMP JUMPDEST SWAP3 POP POP PUSH1 0x60 PUSH3 0x195 DUP8 DUP3 DUP9 ADD PUSH3 0x11E JUMP JUMPDEST SWAP2 POP POP SWAP3 SWAP6 SWAP2 SWAP5 POP SWAP3 POP JUMP JUMPDEST PUSH1 0x0 PUSH3 0x1AE DUP3 PUSH3 0x1B5 JUMP JUMPDEST SWAP1 POP SWAP2 SWAP1 POP JUMP JUMPDEST PUSH1 0x0 PUSH20 0xFFFFFFFFFFFFFFFFFFFFFFFFFFFFFFFFFFFFFFFF DUP3 AND SWAP1 POP SWAP2 SWAP1 POP JUMP JUMPDEST PUSH3 0x1E0 DUP2 PUSH3 0x1A1 JUMP JUMPDEST DUP2 EQ PUSH3 0x1EC JUMPI PUSH1 0x0 DUP1 REVERT JUMPDEST POP JUMP JUMPDEST PUSH1 0x80 MLOAD PUSH1 0x60 SHR PUSH1 0xA0 MLOAD PUSH1 0x60 SHR PUSH1 0xC0 MLOAD PUSH1 0x60 SHR PUSH1 0xE0 MLOAD PUSH1 0x60 SHR PUSH2 0x1C15 PUSH3 0x28F PUSH1 0x0 CODECOPY PUSH1 0x0 DUP2 DUP2 PUSH2 0x84E ADD MSTORE PUSH2 0x11E7 ADD MSTORE PUSH1 0x0 DUP2 DUP2 PUSH2 0x376 ADD MSTORE DUP2 DUP2 PUSH2 0x542 ADD MSTORE DUP2 DUP2 PUSH2 0xA08 ADD MSTORE DUP2 DUP2 PUSH2 0x10CD ADD MSTORE PUSH2 0x115A ADD MSTORE PUSH1 0x0 DUP2 DUP2 PUSH1 0x9E ADD MSTORE DUP2 DUP2 PUSH2 0x62E ADD MSTORE DUP2 DUP2 PUSH2 0xC0F ADD MSTORE PUSH2 0xCBC ADD MSTORE PUSH1 0x0 DUP2 DUP2 PUSH2 0x1FC ADD MSTORE DUP2 DUP2 PUSH2 0x2E5 ADD MSTORE DUP2 DUP2 PUSH2 0x45A ADD MSTORE DUP2 DUP2 PUSH2 0x920 ADD MSTORE DUP2 DUP2 PUSH2 0xAF4 ADD MSTORE PUSH2 0x1040 ADD MSTORE PUSH2 0x1C15 PUSH1 0x0 RETURN INVALID PUSH1 0x80 PUSH1 0x40 MSTORE CALLVALUE DUP1 ISZERO PUSH2 0x10 JUMPI PUSH1 0x0 DUP1 REVERT JUMPDEST POP PUSH1 0x4 CALLDATASIZE LT PUSH2 0x41 JUMPI PUSH1 0x0 CALLDATALOAD PUSH1 0xE0 SHR DUP1 PUSH4 0xCBC5668 EQ PUSH2 0x46 JUMPI DUP1 PUSH4 0x5E6A5A63 EQ PUSH2 0x62 JUMPI DUP1 PUSH4 0x6ADD2DF9 EQ PUSH2 0x7E JUMPI JUMPDEST PUSH1 0x0 DUP1 REVERT JUMPDEST PUSH2 0x60 PUSH1 0x4 DUP1 CALLDATASIZE SUB DUP2 ADD SWAP1 PUSH2 0x5B SWAP2 SWAP1 PUSH2 0x14E3 JUMP JUMPDEST PUSH2 0x9A JUMP JUMPDEST STOP JUMPDEST PUSH2 0x7C PUSH1 0x4 DUP1 CALLDATASIZE SUB DUP2 ADD SWAP1 PUSH2 0x77 SWAP2 SWAP1 PUSH2 0x14E3 JUMP JUMPDEST PUSH2 0x458 JUMP JUMPDEST STOP JUMPDEST PUSH2 0x98 PUSH1 0x4 DUP1 CALLDATASIZE SUB DUP2 ADD SWAP1 PUSH2 0x93 SWAP2 SWAP1 PUSH2 0x14A7 JUMP JUMPDEST PUSH2 0x91E JUMP JUMPDEST STOP JUMPDEST PUSH1 0x0 PUSH32 0x0 PUSH20 0xFFFFFFFFFFFFFFFFFFFFFFFFFFFFFFFFFFFFFFFF AND PUSH4 0x33A21DC1 CALLER PUSH1 0x40 MLOAD DUP3 PUSH4 0xFFFFFFFF AND PUSH1 0xE0 SHL DUP2 MSTORE PUSH1 0x4 ADD PUSH2 0xF5 SWAP2 SWAP1 PUSH2 0x1831 JUMP JUMPDEST PUSH1 0x20 PUSH1 0x40 MLOAD DUP1 DUP4 SUB DUP2 DUP7 DUP1 EXTCODESIZE ISZERO DUP1 ISZERO PUSH2 0x10D JUMPI PUSH1 0x0 DUP1 REVERT JUMPDEST POP GAS STATICCALL ISZERO DUP1 ISZERO PUSH2 0x121 JUMPI RETURNDATASIZE PUSH1 0x0 DUP1 RETURNDATACOPY RETURNDATASIZE PUSH1 0x0 REVERT JUMPDEST POP POP POP POP PUSH1 0x40 MLOAD RETURNDATASIZE PUSH1 0x1F NOT PUSH1 0x1F DUP3 ADD AND DUP3 ADD DUP1 PUSH1 0x40 MSTORE POP DUP2 ADD SWAP1 PUSH2 0x145 SWAP2 SWAP1 PUSH2 0x147E JUMP JUMPDEST SWAP1 POP PUSH1 0x1 PUSH1 0x3 DUP2 GT ISZERO PUSH2 0x181 JUMPI PUSH32 0x4E487B7100000000000000000000000000000000000000000000000000000000 PUSH1 0x0 MSTORE PUSH1 0x21 PUSH1 0x4 MSTORE PUSH1 0x24 PUSH1 0x0 REVERT JUMPDEST DUP2 PUSH1 0x3 DUP2 GT ISZERO PUSH2 0x1BA JUMPI PUSH32 0x4E487B7100000000000000000000000000000000000000000000000000000000 PUSH1 0x0 MSTORE PUSH1 0x21 PUSH1 0x4 MSTORE PUSH1 0x24 PUSH1 0x0 REVERT JUMPDEST EQ PUSH2 0x1FA JUMPI PUSH1 0x40 MLOAD PUSH32 0x8C379A000000000000000000000000000000000000000000000000000000000 DUP2 MSTORE PUSH1 0x4 ADD PUSH2 0x1F1 SWAP1 PUSH2 0x1870 JUMP JUMPDEST PUSH1 0x40 MLOAD DUP1 SWAP2 SUB SWAP1 REVERT JUMPDEST PUSH32 0x0 PUSH20 0xFFFFFFFFFFFFFFFFFFFFFFFFFFFFFFFFFFFFFFFF AND PUSH4 0x618FDD47 DUP6 PUSH1 0x40 MLOAD DUP3 PUSH4 0xFFFFFFFF AND PUSH1 0xE0 SHL DUP2 MSTORE PUSH1 0x4 ADD PUSH2 0x253 SWAP2 SWAP1 PUSH2 0x1970 JUMP JUMPDEST PUSH1 0x20 PUSH1 0x40 MLOAD DUP1 DUP4 SUB DUP2 DUP7 DUP1 EXTCODESIZE ISZERO DUP1 ISZERO PUSH2 0x26B JUMPI PUSH1 0x0 DUP1 REVERT JUMPDEST POP GAS STATICCALL ISZERO DUP1 ISZERO PUSH2 0x27F JUMPI RETURNDATASIZE PUSH1 0x0 DUP1 RETURNDATACOPY RETURNDATASIZE PUSH1 0x0 REVERT JUMPDEST POP POP POP POP PUSH1 0x40 MLOAD RETURNDATASIZE PUSH1 0x1F NOT PUSH1 0x1F DUP3 ADD AND DUP3 ADD DUP1 PUSH1 0x40 MSTORE POP DUP2 ADD SWAP1 PUSH2 0x2A3 SWAP2 SWAP1 PUSH2 0x1455 JUMP JUMPDEST ISZERO PUSH2 0x2E3 JUMPI PUSH1 0x40 MLOAD PUSH32 0x8C379A000000000000000000000000000000000000000000000000000000000 DUP2 MSTORE PUSH1 0x4 ADD PUSH2 0x2DA SWAP1 PUSH2 0x1950 JUMP JUMPDEST PUSH1 0x40 MLOAD DUP1 SWAP2 SUB SWAP1 REVERT JUMPDEST PUSH32 0x0 PUSH20 0xFFFFFFFFFFFFFFFFFFFFFFFFFFFFFFFFFFFFFFFF AND PUSH4 0x666ECFD0 DUP6 DUP6 DUP6 CALLER PUSH1 0x40 MLOAD DUP6 PUSH4 0xFFFFFFFF AND PUSH1 0xE0 SHL DUP2 MSTORE PUSH1 0x4 ADD PUSH2 0x342 SWAP5 SWAP4 SWAP3 SWAP2 SWAP1 PUSH2 0x19EB JUMP JUMPDEST PUSH1 0x0 PUSH1 0x40 MLOAD DUP1 DUP4 SUB DUP2 PUSH1 0x0 DUP8 DUP1 EXTCODESIZE ISZERO DUP1 ISZERO PUSH2 0x35C JUMPI PUSH1 0x0 DUP1 REVERT JUMPDEST POP GAS CALL ISZERO DUP1 ISZERO PUSH2 0x370 JUMPI RETURNDATASIZE PUSH1 0x0 DUP1 RETURNDATACOPY RETURNDATASIZE PUSH1 0x0 REVERT JUMPDEST POP POP POP POP PUSH32 0x0 PUSH20 0xFFFFFFFFFFFFFFFFFFFFFFFFFFFFFFFFFFFFFFFF AND PUSH4 0x87949B7F DUP6 CALLER PUSH1 0x40 MLOAD DUP4 PUSH4 0xFFFFFFFF AND PUSH1 0xE0 SHL DUP2 MSTORE PUSH1 0x4 ADD PUSH2 0x3CF SWAP3 SWAP2 SWAP1 PUSH2 0x198B JUMP JUMPDEST PUSH1 0x0 PUSH1 0x40 MLOAD DUP1 DUP4 SUB DUP2 PUSH1 0x0 DUP8 DUP1 EXTCODESIZE ISZERO DUP1 ISZERO PUSH2 0x3E9 JUMPI PUSH1 0x0 DUP1 REVERT JUMPDEST POP GAS CALL ISZERO DUP1 ISZERO PUSH2 0x3FD JUMPI RETURNDATASIZE PUSH1 0x0 DUP1 RETURNDATACOPY RETURNDATASIZE PUSH1 0x0 REVERT JUMPDEST POP POP POP POP CALLER PUSH20 0xFFFFFFFFFFFFFFFFFFFFFFFFFFFFFFFFFFFFFFFF AND DUP5 PUSH32 0x47F31B1968929FD855DAA7CF13B31D0BEECE11B0F0F068AA6A77EA0CF4DB2607 DUP6 DUP6 PUSH1 0x40 MLOAD PUSH2 0x44A SWAP3 SWAP2 SWAP1 PUSH2 0x184C JUMP JUMPDEST PUSH1 0x40 MLOAD DUP1 SWAP2 SUB SWAP1 LOG3 POP POP POP POP JUMP JUMPDEST PUSH32 0x0 PUSH20 0xFFFFFFFFFFFFFFFFFFFFFFFFFFFFFFFFFFFFFFFF AND PUSH4 0x618FDD47 DUP5 PUSH1 0x40 MLOAD DUP3 PUSH4 0xFFFFFFFF AND PUSH1 0xE0 SHL DUP2 MSTORE PUSH1 0x4 ADD PUSH2 0x4B1 SWAP2 SWAP1 PUSH2 0x1970 JUMP JUMPDEST PUSH1 0x20 PUSH1 0x40 MLOAD DUP1 DUP4 SUB DUP2 DUP7 DUP1 EXTCODESIZE ISZERO DUP1 ISZERO PUSH2 0x4C9 JUMPI PUSH1 0x0 DUP1 REVERT JUMPDEST POP GAS STATICCALL ISZERO DUP1 ISZERO PUSH2 0x4DD JUMPI RETURNDATASIZE PUSH1 0x0 DUP1 RETURNDATACOPY RETURNDATASIZE PUSH1 0x0 REVERT JUMPDEST POP POP POP POP PUSH1 0x40 MLOAD RETURNDATASIZE PUSH1 0x1F NOT PUSH1 0x1F DUP3 ADD AND DUP3 ADD DUP1 PUSH1 0x40 MSTORE POP DUP2 ADD SWAP1 PUSH2 0x501 SWAP2 SWAP1 PUSH2 0x1455 JUMP JUMPDEST PUSH2 0x540 JUMPI PUSH1 0x40 MLOAD PUSH32 0x8C379A000000000000000000000000000000000000000000000000000000000 DUP2 MSTORE PUSH1 0x4 ADD PUSH2 0x537 SWAP1 PUSH2 0x18F0 JUMP JUMPDEST PUSH1 0x40 MLOAD DUP1 SWAP2 SUB SWAP1 REVERT JUMPDEST PUSH32 0x0 PUSH20 0xFFFFFFFFFFFFFFFFFFFFFFFFFFFFFFFFFFFFFFFF AND PUSH4 0xED14AC99 DUP5 CALLER PUSH1 0x40 MLOAD DUP4 PUSH4 0xFFFFFFFF AND PUSH1 0xE0 SHL DUP2 MSTORE PUSH1 0x4 ADD PUSH2 0x59B SWAP3 SWAP2 SWAP1 PUSH2 0x198B JUMP JUMPDEST PUSH1 0x20 PUSH1 0x40 MLOAD DUP1 DUP4 SUB DUP2 DUP7 DUP1 EXTCODESIZE ISZERO DUP1 ISZERO PUSH2 0x5B3 JUMPI PUSH1 0x0 DUP1 REVERT JUMPDEST POP GAS STATICCALL ISZERO DUP1 ISZERO PUSH2 0x5C7 JUMPI RETURNDATASIZE PUSH1 0x0 DUP1 RETURNDATACOPY RETURNDATASIZE PUSH1 0x0 REVERT JUMPDEST POP POP POP POP PUSH1 0x40 MLOAD RETURNDATASIZE PUSH1 0x1F NOT PUSH1 0x1F DUP3 ADD AND DUP3 ADD DUP1 PUSH1 0x40 MSTORE POP DUP2 ADD SWAP1 PUSH2 0x5EB SWAP2 SWAP1 PUSH2 0x1455 JUMP JUMPDEST PUSH2 0x62A JUMPI PUSH1 0x40 MLOAD PUSH32 0x8C379A000000000000000000000000000000000000000000000000000000000 DUP2 MSTORE PUSH1 0x4 ADD PUSH2 0x621 SWAP1 PUSH2 0x18B0 JUMP JUMPDEST PUSH1 0x40 MLOAD DUP1 SWAP2 SUB SWAP1 REVERT JUMPDEST PUSH1 0x0 PUSH32 0x0 PUSH20 0xFFFFFFFFFFFFFFFFFFFFFFFFFFFFFFFFFFFFFFFF AND PUSH4 0x33A21DC1 CALLER PUSH1 0x40 MLOAD DUP3 PUSH4 0xFFFFFFFF AND PUSH1 0xE0 SHL DUP2 MSTORE PUSH1 0x4 ADD PUSH2 0x685 SWAP2 SWAP1 PUSH2 0x1831 JUMP JUMPDEST PUSH1 0x20 PUSH1 0x40 MLOAD DUP1 DUP4 SUB DUP2 DUP7 DUP1 EXTCODESIZE ISZERO DUP1 ISZERO PUSH2 0x69D JUMPI PUSH1 0x0 DUP1 REVERT JUMPDEST POP GAS STATICCALL ISZERO DUP1 ISZERO PUSH2 0x6B1 JUMPI RETURNDATASIZE PUSH1 0x0 DUP1 RETURNDATACOPY RETURNDATASIZE PUSH1 0x0 REVERT JUMPDEST POP POP POP POP PUSH1 0x40 MLOAD RETURNDATASIZE PUSH1 0x1F NOT PUSH1 0x1F DUP3 ADD AND DUP3 ADD DUP1 PUSH1 0x40 MSTORE POP DUP2 ADD SWAP1 PUSH2 0x6D5 SWAP2 SWAP1 PUSH2 0x147E JUMP JUMPDEST SWAP1 POP PUSH1 0x0 PUSH1 0x3 DUP2 GT ISZERO PUSH2 0x711 JUMPI PUSH32 0x4E487B7100000000000000000000000000000000000000000000000000000000 PUSH1 0x0 MSTORE PUSH1 0x21 PUSH1 0x4 MSTORE PUSH1 0x24 PUSH1 0x0 REVERT JUMPDEST DUP2 PUSH1 0x3 DUP2 GT ISZERO PUSH2 0x74A JUMPI PUSH32 0x4E487B7100000000000000000000000000000000000000000000000000000000 PUSH1 0x0 MSTORE PUSH1 0x21 PUSH1 0x4 MSTORE PUSH1 0x24 PUSH1 0x0 REVERT JUMPDEST EQ ISZERO PUSH2 0x78B JUMPI PUSH1 0x40 MLOAD PUSH32 0x8C379A000000000000000000000000000000000000000000000000000000000 DUP2 MSTORE PUSH1 0x4 ADD PUSH2 0x782 SWAP1 PUSH2 0x18D0 JUMP JUMPDEST PUSH1 0x40 MLOAD DUP1 SWAP2 SUB SWAP1 REVERT JUMPDEST PUSH1 0x0 DUP1 PUSH1 0x0 DUP7 DUP2 MSTORE PUSH1 0x20 ADD SWAP1 DUP2 MSTORE PUSH1 0x20 ADD PUSH1 0x0 KECCAK256 DUP1 SLOAD PUSH2 0x7AA SWAP1 PUSH2 0x1B18 JUMP JUMPDEST DUP1 PUSH1 0x1F ADD PUSH1 0x20 DUP1 SWAP2 DIV MUL PUSH1 0x20 ADD PUSH1 0x40 MLOAD SWAP1 DUP2 ADD PUSH1 0x40 MSTORE DUP1 SWAP3 SWAP2 SWAP1 DUP2 DUP2 MSTORE PUSH1 0x20 ADD DUP3 DUP1 SLOAD PUSH2 0x7D6 SWAP1 PUSH2 0x1B18 JUMP JUMPDEST DUP1 ISZERO PUSH2 0x823 JUMPI DUP1 PUSH1 0x1F LT PUSH2 0x7F8 JUMPI PUSH2 0x100 DUP1 DUP4 SLOAD DIV MUL DUP4 MSTORE SWAP2 PUSH1 0x20 ADD SWAP2 PUSH2 0x823 JUMP JUMPDEST DUP3 ADD SWAP2 SWAP1 PUSH1 0x0 MSTORE PUSH1 0x20 PUSH1 0x0 KECCAK256 SWAP1 JUMPDEST DUP2 SLOAD DUP2 MSTORE SWAP1 PUSH1 0x1 ADD SWAP1 PUSH1 0x20 ADD DUP1 DUP4 GT PUSH2 0x806 JUMPI DUP3 SWAP1 SUB PUSH1 0x1F AND DUP3 ADD SWAP2 JUMPDEST POP POP POP POP POP SWAP1 POP DUP4 DUP4 PUSH1 0x0 DUP1 DUP9 DUP2 MSTORE PUSH1 0x20 ADD SWAP1 DUP2 MSTORE PUSH1 0x20 ADD PUSH1 0x0 KECCAK256 SWAP2 SWAP1 PUSH2 0x84B SWAP3 SWAP2 SWAP1 PUSH2 0x12D6 JUMP JUMPDEST POP PUSH32 0x0 PUSH20 0xFFFFFFFFFFFFFFFFFFFFFFFFFFFFFFFFFFFFFFFF AND PUSH4 0x77543222 DUP7 DUP4 DUP8 DUP8 PUSH1 0x40 MLOAD DUP6 PUSH4 0xFFFFFFFF AND PUSH1 0xE0 SHL DUP2 MSTORE PUSH1 0x4 ADD PUSH2 0x8AB SWAP5 SWAP4 SWAP3 SWAP2 SWAP1 PUSH2 0x1A2B JUMP JUMPDEST PUSH1 0x0 PUSH1 0x40 MLOAD DUP1 DUP4 SUB DUP2 PUSH1 0x0 DUP8 DUP1 EXTCODESIZE ISZERO DUP1 ISZERO PUSH2 0x8C5 JUMPI PUSH1 0x0 DUP1 REVERT JUMPDEST POP GAS CALL ISZERO DUP1 ISZERO PUSH2 0x8D9 JUMPI RETURNDATASIZE PUSH1 0x0 DUP1 RETURNDATACOPY RETURNDATASIZE PUSH1 0x0 REVERT JUMPDEST POP POP POP POP DUP5 PUSH32 0xECFC98CDD416BD6051E028DA16E26F6512ADCEDDA6B875A1B7A4097E6B4888C8 DUP6 DUP6 PUSH1 0x40 MLOAD PUSH2 0x90F SWAP3 SWAP2 SWAP1 PUSH2 0x184C JUMP JUMPDEST PUSH1 0x40 MLOAD DUP1 SWAP2 SUB SWAP1 LOG2 POP POP POP POP POP JUMP JUMPDEST PUSH32 0x0 PUSH20 0xFFFFFFFFFFFFFFFFFFFFFFFFFFFFFFFFFFFFFFFF AND PUSH4 0x618FDD47 DUP4 PUSH1 0x40 MLOAD DUP3 PUSH4 0xFFFFFFFF AND PUSH1 0xE0 SHL DUP2 MSTORE PUSH1 0x4 ADD PUSH2 0x977 SWAP2 SWAP1 PUSH2 0x1970 JUMP JUMPDEST PUSH1 0x20 PUSH1 0x40 MLOAD DUP1 DUP4 SUB DUP2 DUP7 DUP1 EXTCODESIZE ISZERO DUP1 ISZERO PUSH2 0x98F JUMPI PUSH1 0x0 DUP1 REVERT JUMPDEST POP GAS STATICCALL ISZERO DUP1 ISZERO PUSH2 0x9A3 JUMPI RETURNDATASIZE PUSH1 0x0 DUP1 RETURNDATACOPY RETURNDATASIZE PUSH1 0x0 REVERT JUMPDEST POP POP POP POP PUSH1 0x40 MLOAD RETURNDATASIZE PUSH1 0x1F NOT PUSH1 0x1F DUP3 ADD AND DUP3 ADD DUP1 PUSH1 0x40 MSTORE POP DUP2 ADD SWAP1 PUSH2 0x9C7 SWAP2 SWAP1 PUSH2 0x1455 JUMP JUMPDEST PUSH2 0xA06 JUMPI PUSH1 0x40 MLOAD PUSH32 0x8C379A000000000000000000000000000000000000000000000000000000000 DUP2 MSTORE PUSH1 0x4 ADD PUSH2 0x9FD SWAP1 PUSH2 0x18F0 JUMP JUMPDEST PUSH1 0x40 MLOAD DUP1 SWAP2 SUB SWAP1 REVERT JUMPDEST PUSH32 0x0 PUSH20 0xFFFFFFFFFFFFFFFFFFFFFFFFFFFFFFFFFFFFFFFF AND PUSH4 0xED14AC99 DUP4 CALLER PUSH1 0x40 MLOAD DUP4 PUSH4 0xFFFFFFFF AND PUSH1 0xE0 SHL DUP2 MSTORE PUSH1 0x4 ADD PUSH2 0xA61 SWAP3 SWAP2 SWAP1 PUSH2 0x198B JUMP JUMPDEST PUSH1 0x20 PUSH1 0x40 MLOAD DUP1 DUP4 SUB DUP2 DUP7 DUP1 EXTCODESIZE ISZERO DUP1 ISZERO PUSH2 0xA79 JUMPI PUSH1 0x0 DUP1 REVERT JUMPDEST POP GAS STATICCALL ISZERO DUP1 ISZERO PUSH2 0xA8D JUMPI RETURNDATASIZE PUSH1 0x0 DUP1 RETURNDATACOPY RETURNDATASIZE PUSH1 0x0 REVERT JUMPDEST POP POP POP POP PUSH1 0x40 MLOAD RETURNDATASIZE PUSH1 0x1F NOT PUSH1 0x1F DUP3 ADD AND DUP3 ADD DUP1 PUSH1 0x40 MSTORE POP DUP2 ADD SWAP1 PUSH2 0xAB1 SWAP2 SWAP1 PUSH2 0x1455 JUMP JUMPDEST PUSH2 0xAF0 JUMPI PUSH1 0x40 MLOAD PUSH32 0x8C379A000000000000000000000000000000000000000000000000000000000 DUP2 MSTORE PUSH1 0x4 ADD PUSH2 0xAE7 SWAP1 PUSH2 0x18B0 JUMP JUMPDEST PUSH1 0x40 MLOAD DUP1 SWAP2 SUB SWAP1 REVERT JUMPDEST PUSH1 0x0 PUSH32 0x0 PUSH20 0xFFFFFFFFFFFFFFFFFFFFFFFFFFFFFFFFFFFFFFFF AND PUSH4 0xB3FEBE1C DUP5 PUSH1 0x40 MLOAD DUP3 PUSH4 0xFFFFFFFF AND PUSH1 0xE0 SHL DUP2 MSTORE PUSH1 0x4 ADD PUSH2 0xB4B SWAP2 SWAP1 PUSH2 0x1970 JUMP JUMPDEST PUSH1 0x20 PUSH1 0x40 MLOAD DUP1 DUP4 SUB DUP2 DUP7 DUP1 EXTCODESIZE ISZERO DUP1 ISZERO PUSH2 0xB63 JUMPI PUSH1 0x0 DUP1 REVERT JUMPDEST POP GAS STATICCALL ISZERO DUP1 ISZERO PUSH2 0xB77 JUMPI RETURNDATASIZE PUSH1 0x0 DUP1 RETURNDATACOPY RETURNDATASIZE PUSH1 0x0 REVERT JUMPDEST POP POP POP POP PUSH1 0x40 MLOAD RETURNDATASIZE PUSH1 0x1F NOT PUSH1 0x1F DUP3 ADD AND DUP3 ADD DUP1 PUSH1 0x40 MSTORE POP DUP2 ADD SWAP1 PUSH2 0xB9B SWAP2 SWAP1 PUSH2 0x142C JUMP JUMPDEST SWAP1 POP DUP1 PUSH20 0xFFFFFFFFFFFFFFFFFFFFFFFFFFFFFFFFFFFFFFFF AND CALLER PUSH20 0xFFFFFFFFFFFFFFFFFFFFFFFFFFFFFFFFFFFFFFFF AND EQ PUSH2 0xC0B JUMPI PUSH1 0x40 MLOAD PUSH32 0x8C379A000000000000000000000000000000000000000000000000000000000 DUP2 MSTORE PUSH1 0x4 ADD PUSH2 0xC02 SWAP1 PUSH2 0x1910 JUMP JUMPDEST PUSH1 0x40 MLOAD DUP1 SWAP2 SUB SWAP1 REVERT JUMPDEST PUSH1 0x0 PUSH32 0x0 PUSH20 0xFFFFFFFFFFFFFFFFFFFFFFFFFFFFFFFFFFFFFFFF AND PUSH4 0x33A21DC1 CALLER PUSH1 0x40 MLOAD DUP3 PUSH4 0xFFFFFFFF AND PUSH1 0xE0 SHL DUP2 MSTORE PUSH1 0x4 ADD PUSH2 0xC66 SWAP2 SWAP1 PUSH2 0x1831 JUMP JUMPDEST PUSH1 0x20 PUSH1 0x40 MLOAD DUP1 DUP4 SUB DUP2 DUP7 DUP1 EXTCODESIZE ISZERO DUP1 ISZERO PUSH2 0xC7E JUMPI PUSH1 0x0 DUP1 REVERT JUMPDEST POP GAS STATICCALL ISZERO DUP1 ISZERO PUSH2 0xC92 JUMPI RETURNDATASIZE PUSH1 0x0 DUP1 RETURNDATACOPY RETURNDATASIZE PUSH1 0x0 REVERT JUMPDEST POP POP POP POP PUSH1 0x40 MLOAD RETURNDATASIZE PUSH1 0x1F NOT PUSH1 0x1F DUP3 ADD AND DUP3 ADD DUP1 PUSH1 0x40 MSTORE POP DUP2 ADD SWAP1 PUSH2 0xCB6 SWAP2 SWAP1 PUSH2 0x147E JUMP JUMPDEST SWAP1 POP PUSH1 0x0 PUSH32 0x0 PUSH20 0xFFFFFFFFFFFFFFFFFFFFFFFFFFFFFFFFFFFFFFFF AND PUSH4 0x33A21DC1 DUP6 PUSH1 0x40 MLOAD DUP3 PUSH4 0xFFFFFFFF AND PUSH1 0xE0 SHL DUP2 MSTORE PUSH1 0x4 ADD PUSH2 0xD13 SWAP2 SWAP1 PUSH2 0x1831 JUMP JUMPDEST PUSH1 0x20 PUSH1 0x40 MLOAD DUP1 DUP4 SUB DUP2 DUP7 DUP1 EXTCODESIZE ISZERO DUP1 ISZERO PUSH2 0xD2B JUMPI PUSH1 0x0 DUP1 REVERT JUMPDEST POP GAS STATICCALL ISZERO DUP1 ISZERO PUSH2 0xD3F JUMPI RETURNDATASIZE PUSH1 0x0 DUP1 RETURNDATACOPY RETURNDATASIZE PUSH1 0x0 REVERT JUMPDEST POP POP POP POP PUSH1 0x40 MLOAD RETURNDATASIZE PUSH1 0x1F NOT PUSH1 0x1F DUP3 ADD AND DUP3 ADD DUP1 PUSH1 0x40 MSTORE POP DUP2 ADD SWAP1 PUSH2 0xD63 SWAP2 SWAP1 PUSH2 0x147E JUMP JUMPDEST SWAP1 POP PUSH1 0x0 PUSH1 0x3 DUP2 GT ISZERO PUSH2 0xD9F JUMPI PUSH32 0x4E487B7100000000000000000000000000000000000000000000000000000000 PUSH1 0x0 MSTORE PUSH1 0x21 PUSH1 0x4 MSTORE PUSH1 0x24 PUSH1 0x0 REVERT JUMPDEST DUP2 PUSH1 0x3 DUP2 GT ISZERO PUSH2 0xDD8 JUMPI PUSH32 0x4E487B7100000000000000000000000000000000000000000000000000000000 PUSH1 0x0 MSTORE PUSH1 0x21 PUSH1 0x4 MSTORE PUSH1 0x24 PUSH1 0x0 REVERT JUMPDEST EQ ISZERO PUSH2 0xE19 JUMPI PUSH1 0x40 MLOAD PUSH32 0x8C379A000000000000000000000000000000000000000000000000000000000 DUP2 MSTORE PUSH1 0x4 ADD PUSH2 0xE10 SWAP1 PUSH2 0x1890 JUMP JUMPDEST PUSH1 0x40 MLOAD DUP1 SWAP2 SUB SWAP1 REVERT JUMPDEST PUSH1 0x1 PUSH1 0x3 DUP2 GT ISZERO PUSH2 0xE53 JUMPI PUSH32 0x4E487B7100000000000000000000000000000000000000000000000000000000 PUSH1 0x0 MSTORE PUSH1 0x21 PUSH1 0x4 MSTORE PUSH1 0x24 PUSH1 0x0 REVERT JUMPDEST DUP3 PUSH1 0x3 DUP2 GT ISZERO PUSH2 0xE8C JUMPI PUSH32 0x4E487B7100000000000000000000000000000000000000000000000000000000 PUSH1 0x0 MSTORE PUSH1 0x21 PUSH1 0x4 MSTORE PUSH1 0x24 PUSH1 0x0 REVERT JUMPDEST EQ DUP1 ISZERO PUSH2 0xF09 JUMPI POP PUSH1 0x2 PUSH1 0x3 DUP2 GT ISZERO PUSH2 0xECE JUMPI PUSH32 0x4E487B7100000000000000000000000000000000000000000000000000000000 PUSH1 0x0 MSTORE PUSH1 0x21 PUSH1 0x4 MSTORE PUSH1 0x24 PUSH1 0x0 REVERT JUMPDEST DUP2 PUSH1 0x3 DUP2 GT ISZERO PUSH2 0xF07 JUMPI PUSH32 0x4E487B7100000000000000000000000000000000000000000000000000000000 PUSH1 0x0 MSTORE PUSH1 0x21 PUSH1 0x4 MSTORE PUSH1 0x24 PUSH1 0x0 REVERT JUMPDEST EQ JUMPDEST DUP1 PUSH2 0xFFF JUMPI POP PUSH1 0x2 PUSH1 0x3 DUP2 GT ISZERO PUSH2 0xF49 JUMPI PUSH32 0x4E487B7100000000000000000000000000000000000000000000000000000000 PUSH1 0x0 MSTORE PUSH1 0x21 PUSH1 0x4 MSTORE PUSH1 0x24 PUSH1 0x0 REVERT JUMPDEST DUP3 PUSH1 0x3 DUP2 GT ISZERO PUSH2 0xF82 JUMPI PUSH32 0x4E487B7100000000000000000000000000000000000000000000000000000000 PUSH1 0x0 MSTORE PUSH1 0x21 PUSH1 0x4 MSTORE PUSH1 0x24 PUSH1 0x0 REVERT JUMPDEST EQ DUP1 ISZERO PUSH2 0xFFE JUMPI POP PUSH1 0x3 DUP1 DUP2 GT ISZERO PUSH2 0xFC3 JUMPI PUSH32 0x4E487B7100000000000000000000000000000000000000000000000000000000 PUSH1 0x0 MSTORE PUSH1 0x21 PUSH1 0x4 MSTORE PUSH1 0x24 PUSH1 0x0 REVERT JUMPDEST DUP2 PUSH1 0x3 DUP2 GT ISZERO PUSH2 0xFFC JUMPI PUSH32 0x4E487B7100000000000000000000000000000000000000000000000000000000 PUSH1 0x0 MSTORE PUSH1 0x21 PUSH1 0x4 MSTORE PUSH1 0x24 PUSH1 0x0 REVERT JUMPDEST EQ JUMPDEST JUMPDEST PUSH2 0x103E JUMPI PUSH1 0x40 MLOAD PUSH32 0x8C379A000000000000000000000000000000000000000000000000000000000 DUP2 MSTORE PUSH1 0x4 ADD PUSH2 0x1035 SWAP1 PUSH2 0x1930 JUMP JUMPDEST PUSH1 0x40 MLOAD DUP1 SWAP2 SUB SWAP1 REVERT JUMPDEST PUSH32 0x0 PUSH20 0xFFFFFFFFFFFFFFFFFFFFFFFFFFFFFFFFFFFFFFFF AND PUSH4 0xFC43CE17 DUP7 DUP7 PUSH1 0x40 MLOAD DUP4 PUSH4 0xFFFFFFFF AND PUSH1 0xE0 SHL DUP2 MSTORE PUSH1 0x4 ADD PUSH2 0x1099 SWAP3 SWAP2 SWAP1 PUSH2 0x198B JUMP JUMPDEST PUSH1 0x0 PUSH1 0x40 MLOAD DUP1 DUP4 SUB DUP2 PUSH1 0x0 DUP8 DUP1 EXTCODESIZE ISZERO DUP1 ISZERO PUSH2 0x10B3 JUMPI PUSH1 0x0 DUP1 REVERT JUMPDEST POP GAS CALL ISZERO DUP1 ISZERO PUSH2 0x10C7 JUMPI RETURNDATASIZE PUSH1 0x0 DUP1 RETURNDATACOPY RETURNDATASIZE PUSH1 0x0 REVERT JUMPDEST POP POP POP POP PUSH32 0x0 PUSH20 0xFFFFFFFFFFFFFFFFFFFFFFFFFFFFFFFFFFFFFFFF AND PUSH4 0xC37E50EE DUP7 CALLER PUSH1 0x40 MLOAD DUP4 PUSH4 0xFFFFFFFF AND PUSH1 0xE0 SHL DUP2 MSTORE PUSH1 0x4 ADD PUSH2 0x1126 SWAP3 SWAP2 SWAP1 PUSH2 0x198B JUMP JUMPDEST PUSH1 0x0 PUSH1 0x40 MLOAD DUP1 DUP4 SUB DUP2 PUSH1 0x0 DUP8 DUP1 EXTCODESIZE ISZERO DUP1 ISZERO PUSH2 0x1140 JUMPI PUSH1 0x0 DUP1 REVERT JUMPDEST POP GAS CALL ISZERO DUP1 ISZERO PUSH2 0x1154 JUMPI RETURNDATASIZE PUSH1 0x0 DUP1 RETURNDATACOPY RETURNDATASIZE PUSH1 0x0 REVERT JUMPDEST POP POP POP POP PUSH32 0x0 PUSH20 0xFFFFFFFFFFFFFFFFFFFFFFFFFFFFFFFFFFFFFFFF AND PUSH4 0x87949B7F DUP7 DUP7 PUSH1 0x40 MLOAD DUP4 PUSH4 0xFFFFFFFF AND PUSH1 0xE0 SHL DUP2 MSTORE PUSH1 0x4 ADD PUSH2 0x11B3 SWAP3 SWAP2 SWAP1 PUSH2 0x198B JUMP JUMPDEST PUSH1 0x0 PUSH1 0x40 MLOAD DUP1 DUP4 SUB DUP2 PUSH1 0x0 DUP8 DUP1 EXTCODESIZE ISZERO DUP1 ISZERO PUSH2 0x11CD JUMPI PUSH1 0x0 DUP1 REVERT JUMPDEST POP GAS CALL ISZERO DUP1 ISZERO PUSH2 0x11E1 JUMPI RETURNDATASIZE PUSH1 0x0 DUP1 RETURNDATACOPY RETURNDATASIZE PUSH1 0x0 REVERT JUMPDEST POP POP POP POP PUSH32 0x0 PUSH20 0xFFFFFFFFFFFFFFFFFFFFFFFFFFFFFFFFFFFFFFFF AND PUSH4 0x4B2AAAF5 DUP7 CALLER DUP8 PUSH1 0x40 MLOAD DUP5 PUSH4 0xFFFFFFFF AND PUSH1 0xE0 SHL DUP2 MSTORE PUSH1 0x4 ADD PUSH2 0x1242 SWAP4 SWAP3 SWAP2 SWAP1 PUSH2 0x19B4 JUMP JUMPDEST PUSH1 0x0 PUSH1 0x40 MLOAD DUP1 DUP4 SUB DUP2 PUSH1 0x0 DUP8 DUP1 EXTCODESIZE ISZERO DUP1 ISZERO PUSH2 0x125C JUMPI PUSH1 0x0 DUP1 REVERT JUMPDEST POP GAS CALL ISZERO DUP1 ISZERO PUSH2 0x1270 JUMPI RETURNDATASIZE PUSH1 0x0 DUP1 RETURNDATACOPY RETURNDATASIZE PUSH1 0x0 REVERT JUMPDEST POP POP POP POP DUP4 PUSH20 0xFFFFFFFFFFFFFFFFFFFFFFFFFFFFFFFFFFFFFFFF AND CALLER PUSH20 0xFFFFFFFFFFFFFFFFFFFFFFFFFFFFFFFFFFFFFFFF AND DUP7 PUSH32 0x8761175769F4812FC1A3F00267FB069D1D176CBD8C2381DEE3428BE5F1F74A3B PUSH1 0x40 MLOAD PUSH1 0x40 MLOAD DUP1 SWAP2 SUB SWAP1 LOG4 POP POP POP POP POP JUMP JUMPDEST DUP3 DUP1 SLOAD PUSH2 0x12E2 SWAP1 PUSH2 0x1B18 JUMP JUMPDEST SWAP1 PUSH1 0x0 MSTORE PUSH1 0x20 PUSH1 0x0 KECCAK256 SWAP1 PUSH1 0x1F ADD PUSH1 0x20 SWAP1 DIV DUP2 ADD SWAP3 DUP3 PUSH2 0x1304 JUMPI PUSH1 0x0 DUP6 SSTORE PUSH2 0x134B JUMP JUMPDEST DUP3 PUSH1 0x1F LT PUSH2 0x131D JUMPI DUP1 CALLDATALOAD PUSH1 0xFF NOT AND DUP4 DUP1 ADD OR DUP6 SSTORE PUSH2 0x134B JUMP JUMPDEST DUP3 DUP1 ADD PUSH1 0x1 ADD DUP6 SSTORE DUP3 ISZERO PUSH2 0x134B JUMPI SWAP2 DUP3 ADD JUMPDEST DUP3 DUP2 GT ISZERO PUSH2 0x134A JUMPI DUP3 CALLDATALOAD DUP3 SSTORE SWAP2 PUSH1 0x20 ADD SWAP2 SWAP1 PUSH1 0x1 ADD SWAP1 PUSH2 0x132F JUMP JUMPDEST JUMPDEST POP SWAP1 POP PUSH2 0x1358 SWAP2 SWAP1 PUSH2 0x135C JUMP JUMPDEST POP SWAP1 JUMP JUMPDEST JUMPDEST DUP1 DUP3 GT ISZERO PUSH2 0x1375 JUMPI PUSH1 0x0 DUP2 PUSH1 0x0 SWAP1 SSTORE POP PUSH1 0x1 ADD PUSH2 0x135D JUMP JUMPDEST POP SWAP1 JUMP JUMPDEST PUSH1 0x0 DUP2 CALLDATALOAD SWAP1 POP PUSH2 0x1388 DUP2 PUSH2 0x1B8A JUMP JUMPDEST SWAP3 SWAP2 POP POP JUMP JUMPDEST PUSH1 0x0 DUP2 MLOAD SWAP1 POP PUSH2 0x139D DUP2 PUSH2 0x1B8A JUMP JUMPDEST SWAP3 SWAP2 POP POP JUMP JUMPDEST PUSH1 0x0 DUP2 MLOAD SWAP1 POP PUSH2 0x13B2 DUP2 PUSH2 0x1BA1 JUMP JUMPDEST SWAP3 SWAP2 POP POP JUMP JUMPDEST PUSH1 0x0 DUP2 MLOAD SWAP1 POP PUSH2 0x13C7 DUP2 PUSH2 0x1BB8 JUMP JUMPDEST SWAP3 SWAP2 POP POP JUMP JUMPDEST PUSH1 0x0 DUP1 DUP4 PUSH1 0x1F DUP5 ADD SLT PUSH2 0x13DF JUMPI PUSH1 0x0 DUP1 REVERT JUMPDEST DUP3 CALLDATALOAD SWAP1 POP PUSH8 0xFFFFFFFFFFFFFFFF DUP2 GT ISZERO PUSH2 0x13F8 JUMPI PUSH1 0x0 DUP1 REVERT JUMPDEST PUSH1 0x20 DUP4 ADD SWAP2 POP DUP4 PUSH1 0x1 DUP3 MUL DUP4 ADD GT ISZERO PUSH2 0x1410 JUMPI PUSH1 0x0 DUP1 REVERT JUMPDEST SWAP3 POP SWAP3 SWAP1 POP JUMP JUMPDEST PUSH1 0x0 DUP2 CALLDATALOAD SWAP1 POP PUSH2 0x1426 DUP2 PUSH2 0x1BC8 JUMP JUMPDEST SWAP3 SWAP2 POP POP JUMP JUMPDEST PUSH1 0x0 PUSH1 0x20 DUP3 DUP5 SUB SLT ISZERO PUSH2 0x143E JUMPI PUSH1 0x0 DUP1 REVERT JUMPDEST PUSH1 0x0 PUSH2 0x144C DUP5 DUP3 DUP6 ADD PUSH2 0x138E JUMP JUMPDEST SWAP2 POP POP SWAP3 SWAP2 POP POP JUMP JUMPDEST PUSH1 0x0 PUSH1 0x20 DUP3 DUP5 SUB SLT ISZERO PUSH2 0x1467 JUMPI PUSH1 0x0 DUP1 REVERT JUMPDEST PUSH1 0x0 PUSH2 0x1475 DUP5 DUP3 DUP6 ADD PUSH2 0x13A3 JUMP JUMPDEST SWAP2 POP POP SWAP3 SWAP2 POP POP JUMP JUMPDEST PUSH1 0x0 PUSH1 0x20 DUP3 DUP5 SUB SLT ISZERO PUSH2 0x1490 JUMPI PUSH1 0x0 DUP1 REVERT JUMPDEST PUSH1 0x0 PUSH2 0x149E DUP5 DUP3 DUP6 ADD PUSH2 0x13B8 JUMP JUMPDEST SWAP2 POP POP SWAP3 SWAP2 POP POP JUMP JUMPDEST PUSH1 0x0 DUP1 PUSH1 0x40 DUP4 DUP6 SUB SLT ISZERO PUSH2 0x14BA JUMPI PUSH1 0x0 DUP1 REVERT JUMPDEST PUSH1 0x0 PUSH2 0x14C8 DUP6 DUP3 DUP7 ADD PUSH2 0x1417 JUMP JUMPDEST SWAP3 POP POP PUSH1 0x20 PUSH2 0x14D9 DUP6 DUP3 DUP7 ADD PUSH2 0x1379 JUMP JUMPDEST SWAP2 POP POP SWAP3 POP SWAP3 SWAP1 POP JUMP JUMPDEST PUSH1 0x0 DUP1 PUSH1 0x0 PUSH1 0x40 DUP5 DUP7 SUB SLT ISZERO PUSH2 0x14F8 JUMPI PUSH1 0x0 DUP1 REVERT JUMPDEST PUSH1 0x0 PUSH2 0x1506 DUP7 DUP3 DUP8 ADD PUSH2 0x1417 JUMP JUMPDEST SWAP4 POP POP PUSH1 0x20 DUP5 ADD CALLDATALOAD PUSH8 0xFFFFFFFFFFFFFFFF DUP2 GT ISZERO PUSH2 0x1523 JUMPI PUSH1 0x0 DUP1 REVERT JUMPDEST PUSH2 0x152F DUP7 DUP3 DUP8 ADD PUSH2 0x13CD JUMP JUMPDEST SWAP3 POP SWAP3 POP POP SWAP3 POP SWAP3 POP SWAP3 JUMP JUMPDEST PUSH2 0x1544 DUP2 PUSH2 0x1A8E JUMP JUMPDEST DUP3 MSTORE POP POP JUMP JUMPDEST PUSH1 0x0 PUSH2 0x1556 DUP4 DUP6 PUSH2 0x1A7D JUMP JUMPDEST SWAP4 POP PUSH2 0x1563 DUP4 DUP6 DUP5 PUSH2 0x1AD6 JUMP JUMPDEST PUSH2 0x156C DUP4 PUSH2 0x1B79 JUMP JUMPDEST DUP5 ADD SWAP1 POP SWAP4 SWAP3 POP POP POP JUMP JUMPDEST PUSH1 0x0 PUSH2 0x1582 DUP3 PUSH2 0x1A72 JUMP JUMPDEST PUSH2 0x158C DUP2 DUP6 PUSH2 0x1A7D JUMP JUMPDEST SWAP4 POP PUSH2 0x159C DUP2 DUP6 PUSH1 0x20 DUP7 ADD PUSH2 0x1AE5 JUMP JUMPDEST PUSH2 0x15A5 DUP2 PUSH2 0x1B79 JUMP JUMPDEST DUP5 ADD SWAP2 POP POP SWAP3 SWAP2 POP POP JUMP JUMPDEST PUSH1 0x0 PUSH2 0x15BD PUSH1 0x27 DUP4 PUSH2 0x1A7D JUMP JUMPDEST SWAP2 POP PUSH32 0x536F6C6F2070726F647563746F7265732070756564656E206372656172207072 PUSH1 0x0 DUP4 ADD MSTORE PUSH32 0x6F647563746F7300000000000000000000000000000000000000000000000000 PUSH1 0x20 DUP4 ADD MSTORE PUSH1 0x40 DUP3 ADD SWAP1 POP SWAP2 SWAP1 POP JUMP JUMPDEST PUSH1 0x0 PUSH2 0x1623 PUSH1 0x1A DUP4 PUSH2 0x1A7D JUMP JUMPDEST SWAP2 POP PUSH32 0x44657374696E61746172696F206E6F207265676973747261646F000000000000 PUSH1 0x0 DUP4 ADD MSTORE PUSH1 0x20 DUP3 ADD SWAP1 POP SWAP2 SWAP1 POP JUMP JUMPDEST PUSH1 0x0 PUSH2 0x1663 PUSH1 0x2E DUP4 PUSH2 0x1A7D JUMP JUMPDEST SWAP2 POP PUSH32 0x4E6F207469656E6573207065726D69736F2070617261206D6F64696669636172 PUSH1 0x0 DUP4 ADD MSTORE PUSH32 0x20657374652070726F647563746F000000000000000000000000000000000000 PUSH1 0x20 DUP4 ADD MSTORE PUSH1 0x40 DUP3 ADD SWAP1 POP SWAP2 SWAP1 POP JUMP JUMPDEST PUSH1 0x0 PUSH2 0x16C9 PUSH1 0x15 DUP4 PUSH2 0x1A7D JUMP JUMPDEST SWAP2 POP PUSH32 0x5573756172696F206E6F207265676973747261646F0000000000000000000000 PUSH1 0x0 DUP4 ADD MSTORE PUSH1 0x20 DUP3 ADD SWAP1 POP SWAP2 SWAP1 POP JUMP JUMPDEST PUSH1 0x0 PUSH2 0x1709 PUSH1 0x12 DUP4 PUSH2 0x1A7D JUMP JUMPDEST SWAP2 POP PUSH32 0x50726F647563746F206E6F206578697374650000000000000000000000000000 PUSH1 0x0 DUP4 ADD MSTORE PUSH1 0x20 DUP3 ADD SWAP1 POP SWAP2 SWAP1 POP JUMP JUMPDEST PUSH1 0x0 PUSH2 0x1749 PUSH1 0x1F DUP4 PUSH2 0x1A7D JUMP JUMPDEST SWAP2 POP PUSH32 0x4E6F206572657320717569656E20706F73656520656C2070726F647563746F00 PUSH1 0x0 DUP4 ADD MSTORE PUSH1 0x20 DUP3 ADD SWAP1 POP SWAP2 SWAP1 POP JUMP JUMPDEST PUSH1 0x0 PUSH2 0x1789 PUSH1 0x2C DUP4 PUSH2 0x1A7D JUMP JUMPDEST SWAP2 POP PUSH32 0x5472616E73666572656E636961206E6F207065726D697469646120656E747265 PUSH1 0x0 DUP4 ADD MSTORE PUSH32 0x206573746F7320726F6C65730000000000000000000000000000000000000000 PUSH1 0x20 DUP4 ADD MSTORE PUSH1 0x40 DUP3 ADD SWAP1 POP SWAP2 SWAP1 POP JUMP JUMPDEST PUSH1 0x0 PUSH2 0x17EF PUSH1 0x12 DUP4 PUSH2 0x1A7D JUMP JUMPDEST SWAP2 POP PUSH32 0x50726F647563746F207961206578697374650000000000000000000000000000 PUSH1 0x0 DUP4 ADD MSTORE PUSH1 0x20 DUP3 ADD SWAP1 POP SWAP2 SWAP1 POP JUMP JUMPDEST PUSH2 0x182B DUP2 PUSH2 0x1ACC JUMP JUMPDEST DUP3 MSTORE POP POP JUMP JUMPDEST PUSH1 0x0 PUSH1 0x20 DUP3 ADD SWAP1 POP PUSH2 0x1846 PUSH1 0x0 DUP4 ADD DUP5 PUSH2 0x153B JUMP JUMPDEST SWAP3 SWAP2 POP POP JUMP JUMPDEST PUSH1 0x0 PUSH1 0x20 DUP3 ADD SWAP1 POP DUP2 DUP2 SUB PUSH1 0x0 DUP4 ADD MSTORE PUSH2 0x1867 DUP2 DUP5 DUP7 PUSH2 0x154A JUMP JUMPDEST SWAP1 POP SWAP4 SWAP3 POP POP POP JUMP JUMPDEST PUSH1 0x0 PUSH1 0x20 DUP3 ADD SWAP1 POP DUP2 DUP2 SUB PUSH1 0x0 DUP4 ADD MSTORE PUSH2 0x1889 DUP2 PUSH2 0x15B0 JUMP JUMPDEST SWAP1 POP SWAP2 SWAP1 POP JUMP JUMPDEST PUSH1 0x0 PUSH1 0x20 DUP3 ADD SWAP1 POP DUP2 DUP2 SUB PUSH1 0x0 DUP4 ADD MSTORE PUSH2 0x18A9 DUP2 PUSH2 0x1616 JUMP JUMPDEST SWAP1 POP SWAP2 SWAP1 POP JUMP JUMPDEST PUSH1 0x0 PUSH1 0x20 DUP3 ADD SWAP1 POP DUP2 DUP2 SUB PUSH1 0x0 DUP4 ADD MSTORE PUSH2 0x18C9 DUP2 PUSH2 0x1656 JUMP JUMPDEST SWAP1 POP SWAP2 SWAP1 POP JUMP JUMPDEST PUSH1 0x0 PUSH1 0x20 DUP3 ADD SWAP1 POP DUP2 DUP2 SUB PUSH1 0x0 DUP4 ADD MSTORE PUSH2 0x18E9 DUP2 PUSH2 0x16BC JUMP JUMPDEST SWAP1 POP SWAP2 SWAP1 POP JUMP JUMPDEST PUSH1 0x0 PUSH1 0x20 DUP3 ADD SWAP1 POP DUP2 DUP2 SUB PUSH1 0x0 DUP4 ADD MSTORE PUSH2 0x1909 DUP2 PUSH2 0x16FC JUMP JUMPDEST SWAP1 POP SWAP2 SWAP1 POP JUMP JUMPDEST PUSH1 0x0 PUSH1 0x20 DUP3 ADD SWAP1 POP DUP2 DUP2 SUB PUSH1 0x0 DUP4 ADD MSTORE PUSH2 0x1929 DUP2 PUSH2 0x173C JUMP JUMPDEST SWAP1 POP SWAP2 SWAP1 POP JUMP JUMPDEST PUSH1 0x0 PUSH1 0x20 DUP3 ADD SWAP1 POP DUP2 DUP2 SUB PUSH1 0x0 DUP4 ADD MSTORE PUSH2 0x1949 DUP2 PUSH2 0x177C JUMP JUMPDEST SWAP1 POP SWAP2 SWAP1 POP JUMP JUMPDEST PUSH1 0x0 PUSH1 0x20 DUP3 ADD SWAP1 POP DUP2 DUP2 SUB PUSH1 0x0 DUP4 ADD MSTORE PUSH2 0x1969 DUP2 PUSH2 0x17E2 JUMP JUMPDEST SWAP1 POP SWAP2 SWAP1 POP JUMP JUMPDEST PUSH1 0x0 PUSH1 0x20 DUP3 ADD SWAP1 POP PUSH2 0x1985 PUSH1 0x0 DUP4 ADD DUP5 PUSH2 0x1822 JUMP JUMPDEST SWAP3 SWAP2 POP POP JUMP JUMPDEST PUSH1 0x0 PUSH1 0x40 DUP3 ADD SWAP1 POP PUSH2 0x19A0 PUSH1 0x0 DUP4 ADD DUP6 PUSH2 0x1822 JUMP JUMPDEST PUSH2 0x19AD PUSH1 0x20 DUP4 ADD DUP5 PUSH2 0x153B JUMP JUMPDEST SWAP4 SWAP3 POP POP POP JUMP JUMPDEST PUSH1 0x0 PUSH1 0x60 DUP3 ADD SWAP1 POP PUSH2 0x19C9 PUSH1 0x0 DUP4 ADD DUP7 PUSH2 0x1822 JUMP JUMPDEST PUSH2 0x19D6 PUSH1 0x20 DUP4 ADD DUP6 PUSH2 0x153B JUMP JUMPDEST PUSH2 0x19E3 PUSH1 0x40 DUP4 ADD DUP5 PUSH2 0x153B JUMP JUMPDEST SWAP5 SWAP4 POP POP POP POP JUMP JUMPDEST PUSH1 0x0 PUSH1 0x60 DUP3 ADD SWAP1 POP PUSH2 0x1A00 PUSH1 0x0 DUP4 ADD DUP8 PUSH2 0x1822 JUMP JUMPDEST DUP2 DUP2 SUB PUSH1 0x20 DUP4 ADD MSTORE PUSH2 0x1A13 DUP2 DUP6 DUP8 PUSH2 0x154A JUMP JUMPDEST SWAP1 POP PUSH2 0x1A22 PUSH1 0x40 DUP4 ADD DUP5 PUSH2 0x153B JUMP JUMPDEST SWAP6 SWAP5 POP POP POP POP POP JUMP JUMPDEST PUSH1 0x0 PUSH1 0x60 DUP3 ADD SWAP1 POP PUSH2 0x1A40 PUSH1 0x0 DUP4 ADD DUP8 PUSH2 0x1822 JUMP JUMPDEST DUP2 DUP2 SUB PUSH1 0x20 DUP4 ADD MSTORE PUSH2 0x1A52 DUP2 DUP7 PUSH2 0x1577 JUMP JUMPDEST SWAP1 POP DUP2 DUP2 SUB PUSH1 0x40 DUP4 ADD MSTORE PUSH2 0x1A67 DUP2 DUP5 DUP7 PUSH2 0x154A JUMP JUMPDEST SWAP1 POP SWAP6 SWAP5 POP POP POP POP POP JUMP JUMPDEST PUSH1 0x0 DUP2 MLOAD SWAP1 POP SWAP2 SWAP1 POP JUMP JUMPDEST PUSH1 0x0 DUP3 DUP3 MSTORE PUSH1 0x20 DUP3 ADD SWAP1 POP SWAP3 SWAP2 POP POP JUMP JUMPDEST PUSH1 0x0 PUSH2 0x1A99 DUP3 PUSH2 0x1AAC JUMP JUMPDEST SWAP1 POP SWAP2 SWAP1 POP JUMP JUMPDEST PUSH1 0x0 DUP2 ISZERO ISZERO SWAP1 POP SWAP2 SWAP1 POP JUMP JUMPDEST PUSH1 0x0 PUSH20 0xFFFFFFFFFFFFFFFFFFFFFFFFFFFFFFFFFFFFFFFF DUP3 AND SWAP1 POP SWAP2 SWAP1 POP JUMP JUMPDEST PUSH1 0x0 DUP2 SWAP1 POP SWAP2 SWAP1 POP JUMP JUMPDEST DUP3 DUP2 DUP4 CALLDATACOPY PUSH1 0x0 DUP4 DUP4 ADD MSTORE POP POP POP JUMP JUMPDEST PUSH1 0x0 JUMPDEST DUP4 DUP2 LT ISZERO PUSH2 0x1B03 JUMPI DUP1 DUP3 ADD MLOAD DUP2 DUP5 ADD MSTORE PUSH1 0x20 DUP2 ADD SWAP1 POP PUSH2 0x1AE8 JUMP JUMPDEST DUP4 DUP2 GT ISZERO PUSH2 0x1B12 JUMPI PUSH1 0x0 DUP5 DUP5 ADD MSTORE JUMPDEST POP POP POP POP JUMP JUMPDEST PUSH1 0x0 PUSH1 0x2 DUP3 DIV SWAP1 POP PUSH1 0x1 DUP3 AND DUP1 PUSH2 0x1B30 JUMPI PUSH1 0x7F DUP3 AND SWAP2 POP JUMPDEST PUSH1 0x20 DUP3 LT DUP2 EQ ISZERO PUSH2 0x1B44 JUMPI PUSH2 0x1B43 PUSH2 0x1B4A JUMP JUMPDEST JUMPDEST POP SWAP2 SWAP1 POP JUMP JUMPDEST PUSH32 0x4E487B7100000000000000000000000000000000000000000000000000000000 PUSH1 0x0 MSTORE PUSH1 0x22 PUSH1 0x4 MSTORE PUSH1 0x24 PUSH1 0x0 REVERT JUMPDEST PUSH1 0x0 PUSH1 0x1F NOT PUSH1 0x1F DUP4 ADD AND SWAP1 POP SWAP2 SWAP1 POP JUMP JUMPDEST PUSH2 0x1B93 DUP2 PUSH2 0x1A8E JUMP JUMPDEST DUP2 EQ PUSH2 0x1B9E JUMPI PUSH1 0x0 DUP1 REVERT JUMPDEST POP JUMP JUMPDEST PUSH2 0x1BAA DUP2 PUSH2 0x1AA0 JUMP JUMPDEST DUP2 EQ PUSH2 0x1BB5 JUMPI PUSH1 0x0 DUP1 REVERT JUMPDEST POP JUMP JUMPDEST PUSH1 0x4 DUP2 LT PUSH2 0x1BC5 JUMPI PUSH1 0x0 DUP1 REVERT JUMPDEST POP JUMP JUMPDEST PUSH2 0x1BD1 DUP2 PUSH2 0x1ACC JUMP JUMPDEST DUP2 EQ PUSH2 0x1BDC JUMPI PUSH1 0x0 DUP1 REVERT JUMPDEST POP JUMP INVALID LOG2 PUSH5 0x6970667358 0x22 SLT KECCAK256 PUSH9 0xC8D04F91F4FB5FD899 0xC SHL SWAP4 0xFC PC PUSH4 0xD927B503 PUSH29 0x4523009B447DF896371F5264736F6C6343000800003300000000000000 "
		},
		"gasEstimates": {
			"creation": {
				"codeDepositCost": "1437800",
				"executionCost": "infinite",
				"totalCost": "infinite"
			},
			"external": {
				"actualizarEstadoProducto(uint256,string)": "infinite",
				"crearProducto(uint256,string)": "infinite",
				"transferirProducto(uint256,address)": "infinite"
			}
		},
		"methodIdentifiers": {
			"actualizarEstadoProducto(uint256,string)": "5e6a5a63",
			"crearProducto(uint256,string)": "0cbc5668",
			"transferirProducto(uint256,address)": "6add2df9"
		}
	},
	"abi": [
		{
			"inputs": [
				{
					"internalType": "address",
					"name": "_registroProductos",
					"type": "address"
				},
				{
					"internalType": "address",
					"name": "_registroUsuarios",
					"type": "address"
				},
				{
					"internalType": "address",
					"name": "_gestorPermisos",
					"type": "address"
				},
				{
					"internalType": "address",
					"name": "_registroAuditoria",
					"type": "address"
				}
			],
			"stateMutability": "nonpayable",
			"type": "constructor"
		},
		{
			"anonymous": false,
			"inputs": [
				{
					"indexed": true,
					"internalType": "uint256",
					"name": "idProducto",
					"type": "uint256"
				},
				{
					"indexed": false,
					"internalType": "string",
					"name": "nuevoEstado",
					"type": "string"
				}
			],
			"name": "EstadoProductoActualizado",
			"type": "event"
		},
		{
			"anonymous": false,
			"inputs": [
				{
					"indexed": true,
					"internalType": "uint256",
					"name": "idProducto",
					"type": "uint256"
				},
				{
					"indexed": false,
					"internalType": "string",
					"name": "descripcion",
					"type": "string"
				},
				{
					"indexed": true,
					"internalType": "address",
					"name": "productor",
					"type": "address"
				}
			],
			"name": "ProductoCreado",
			"type": "event"
		},
		{
			"anonymous": false,
			"inputs": [
				{
					"indexed": true,
					"internalType": "uint256",
					"name": "idProducto",
					"type": "uint256"
				},
				{
					"indexed": true,
					"internalType": "address",
					"name": "desde",
					"type": "address"
				},
				{
					"indexed": true,
					"internalType": "address",
					"name": "hacia",
					"type": "address"
				}
			],
			"name": "ProductoTransferido",
			"type": "event"
		},
		{
			"inputs": [
				{
					"internalType": "uint256",
					"name": "idProducto",
					"type": "uint256"
				},
				{
					"internalType": "string",
					"name": "nuevoEstado",
					"type": "string"
				}
			],
			"name": "actualizarEstadoProducto",
			"outputs": [],
			"stateMutability": "nonpayable",
			"type": "function"
		},
		{
			"inputs": [
				{
					"internalType": "uint256",
					"name": "idProducto",
					"type": "uint256"
				},
				{
					"internalType": "string",
					"name": "descripcion",
					"type": "string"
				}
			],
			"name": "crearProducto",
			"outputs": [],
			"stateMutability": "nonpayable",
			"type": "function"
		},
		{
			"inputs": [
				{
					"internalType": "uint256",
					"name": "idProducto",
					"type": "uint256"
				},
				{
					"internalType": "address",
					"name": "hacia",
					"type": "address"
				}
			],
			"name": "transferirProducto",
			"outputs": [],
			"stateMutability": "nonpayable",
			"type": "function"
		}
	]
}