{
	"data": {
		"bytecode": {
			"linkReferences": {},
			"object": "60806040523480156200001157600080fd5b50604051620021fb380380620021fb83398181016040528101906200003791906200015b565b836000806101000a81548173ffffffffffffffffffffffffffffffffffffffff021916908373ffffffffffffffffffffffffffffffffffffffff16021790555082600160006101000a81548173ffffffffffffffffffffffffffffffffffffffff021916908373ffffffffffffffffffffffffffffffffffffffff16021790555081600260006101000a81548173ffffffffffffffffffffffffffffffffffffffff021916908373ffffffffffffffffffffffffffffffffffffffff16021790555080600360006101000a81548173ffffffffffffffffffffffffffffffffffffffff021916908373ffffffffffffffffffffffffffffffffffffffff1602179055505050505062000215565b6000815190506200015581620001fb565b92915050565b600080600080608085870312156200017257600080fd5b6000620001828782880162000144565b9450506020620001958782880162000144565b9350506040620001a88782880162000144565b9250506060620001bb8782880162000144565b91505092959194509250565b6000620001d482620001db565b9050919050565b600073ffffffffffffffffffffffffffffffffffffffff82169050919050565b6200020681620001c7565b81146200021257600080fd5b50565b611fd680620002256000396000f3fe608060405234801561001057600080fd5b50600436106100885760003560e01c80635e6a5a631161005b5780635e6a5a63146101155780636add2df9146101315780637e5a5f8f1461014d578063f05bb6061461016b57610088565b80630cbc56681461008d5780631ca2d4ae146100a95780633ca70178146100c75780634024cd8a146100f7575b600080fd5b6100a760048036038101906100a2919061174a565b610189565b005b6100b161054b565b6040516100be9190611b40565b60405180910390f35b6100e160048036038101906100dc91906116e5565b610571565b6040516100ee9190611b7f565b60405180910390f35b6100ff610611565b60405161010c9190611aef565b60405180910390f35b61012f600480360381019061012a919061174a565b610637565b005b61014b6004803603810190610146919061170e565b610b05565b005b6101556114ca565b6040516101629190611b0a565b60405180910390f35b6101736114f0565b6040516101809190611b25565b60405180910390f35b6000600160009054906101000a900473ffffffffffffffffffffffffffffffffffffffff1673ffffffffffffffffffffffffffffffffffffffff166333a21dc1336040518263ffffffff1660e01b81526004016101e69190611ad4565b60206040518083038186803b1580156101fe57600080fd5b505afa158015610212573d6000803e3d6000fd5b505050506040513d601f19601f8201168201806040525081019061023691906116bc565b905060016003811115610272577f4e487b7100000000000000000000000000000000000000000000000000000000600052602160045260246000fd5b8160038111156102ab577f4e487b7100000000000000000000000000000000000000000000000000000000600052602160045260246000fd5b146102eb576040517f08c379a00000000000000000000000000000000000000000000000000000000081526004016102e290611ba1565b60405180910390fd5b60008054906101000a900473ffffffffffffffffffffffffffffffffffffffff1673ffffffffffffffffffffffffffffffffffffffff1663618fdd47856040518263ffffffff1660e01b81526004016103449190611ca1565b60206040518083038186803b15801561035c57600080fd5b505afa158015610370573d6000803e3d6000fd5b505050506040513d601f19601f820116820180604052508101906103949190611693565b156103d4576040517f08c379a00000000000000000000000000000000000000000000000000000000081526004016103cb90611c81565b60405180910390fd5b60008054906101000a900473ffffffffffffffffffffffffffffffffffffffff1673ffffffffffffffffffffffffffffffffffffffff1663666ecfd0858585336040518563ffffffff1660e01b81526004016104339493929190611d1c565b600060405180830381600087803b15801561044d57600080fd5b505af1158015610461573d6000803e3d6000fd5b50505050600260009054906101000a900473ffffffffffffffffffffffffffffffffffffffff1673ffffffffffffffffffffffffffffffffffffffff166387949b7f85336040518363ffffffff1660e01b81526004016104c2929190611cbc565b600060405180830381600087803b1580156104dc57600080fd5b505af11580156104f0573d6000803e3d6000fd5b505050503373ffffffffffffffffffffffffffffffffffffffff16847f47f31b1968929fd855daa7cf13b31d0beece11b0f0f068aa6a77ea0cf4db2607858560405161053d929190611b5b565b60405180910390a350505050565b600160009054906101000a900473ffffffffffffffffffffffffffffffffffffffff1681565b6004602052806000526040600020600091509050805461059090611ed9565b80601f01602080910402602001604051908101604052809291908181526020018280546105bc90611ed9565b80156106095780601f106105de57610100808354040283529160200191610609565b820191906000526020600020905b8154815290600101906020018083116105ec57829003601f168201915b505050505081565b600260009054906101000a900473ffffffffffffffffffffffffffffffffffffffff1681565b60008054906101000a900473ffffffffffffffffffffffffffffffffffffffff1673ffffffffffffffffffffffffffffffffffffffff1663618fdd47846040518263ffffffff1660e01b81526004016106909190611ca1565b60206040518083038186803b1580156106a857600080fd5b505afa1580156106bc573d6000803e3d6000fd5b505050506040513d601f19601f820116820180604052508101906106e09190611693565b61071f576040517f08c379a000000000000000000000000000000000000000000000000000000000815260040161071690611c21565b60405180910390fd5b600260009054906101000a900473ffffffffffffffffffffffffffffffffffffffff1673ffffffffffffffffffffffffffffffffffffffff1663ed14ac9984336040518363ffffffff1660e01b815260040161077c929190611cbc565b60206040518083038186803b15801561079457600080fd5b505afa1580156107a8573d6000803e3d6000fd5b505050506040513d601f19601f820116820180604052508101906107cc9190611693565b61080b576040517f08c379a000000000000000000000000000000000000000000000000000000000815260040161080290611be1565b60405180910390fd5b6000600160009054906101000a900473ffffffffffffffffffffffffffffffffffffffff1673ffffffffffffffffffffffffffffffffffffffff166333a21dc1336040518263ffffffff1660e01b81526004016108689190611ad4565b60206040518083038186803b15801561088057600080fd5b505afa158015610894573d6000803e3d6000fd5b505050506040513d601f19601f820116820180604052508101906108b891906116bc565b9050600060038111156108f4577f4e487b7100000000000000000000000000000000000000000000000000000000600052602160045260246000fd5b81600381111561092d577f4e487b7100000000000000000000000000000000000000000000000000000000600052602160045260246000fd5b141561096e576040517f08c379a000000000000000000000000000000000000000000000000000000000815260040161096590611c01565b60405180910390fd5b600060046000868152602001908152602001600020805461098e90611ed9565b80601f01602080910402602001604051908101604052809291908181526020018280546109ba90611ed9565b8015610a075780601f106109dc57610100808354040283529160200191610a07565b820191906000526020600020905b8154815290600101906020018083116109ea57829003601f168201915b505050505090508383600460008881526020019081526020016000209190610a30929190611514565b50600360009054906101000a900473ffffffffffffffffffffffffffffffffffffffff1673ffffffffffffffffffffffffffffffffffffffff166377543222868387876040518563ffffffff1660e01b8152600401610a929493929190611d5c565b600060405180830381600087803b158015610aac57600080fd5b505af1158015610ac0573d6000803e3d6000fd5b50505050847fecfc98cdd416bd6051e028da16e26f6512adcedda6b875a1b7a4097e6b4888c88585604051610af6929190611b5b565b60405180910390a25050505050565b60008054906101000a900473ffffffffffffffffffffffffffffffffffffffff1673ffffffffffffffffffffffffffffffffffffffff1663618fdd47836040518263ffffffff1660e01b8152600401610b5e9190611ca1565b60206040518083038186803b158015610b7657600080fd5b505afa158015610b8a573d6000803e3d6000fd5b505050506040513d601f19601f82011682018060405250810190610bae9190611693565b610bed576040517f08c379a0000000000000000000000000000000000000000000000000000000008152600401610be490611c21565b60405180910390fd5b600260009054906101000a900473ffffffffffffffffffffffffffffffffffffffff1673ffffffffffffffffffffffffffffffffffffffff1663ed14ac9983336040518363ffffffff1660e01b8152600401610c4a929190611cbc565b60206040518083038186803b158015610c6257600080fd5b505afa158015610c76573d6000803e3d6000fd5b505050506040513d601f19601f82011682018060405250810190610c9a9190611693565b610cd9576040517f08c379a0000000000000000000000000000000000000000000000000000000008152600401610cd090611be1565b60405180910390fd5b60008060009054906101000a900473ffffffffffffffffffffffffffffffffffffffff1673ffffffffffffffffffffffffffffffffffffffff1663b3febe1c846040518263ffffffff1660e01b8152600401610d359190611ca1565b60206040518083038186803b158015610d4d57600080fd5b505afa158015610d61573d6000803e3d6000fd5b505050506040513d601f19601f82011682018060405250810190610d85919061166a565b90508073ffffffffffffffffffffffffffffffffffffffff163373ffffffffffffffffffffffffffffffffffffffff1614610df5576040517f08c379a0000000000000000000000000000000000000000000000000000000008152600401610dec90611c41565b60405180910390fd5b6000600160009054906101000a900473ffffffffffffffffffffffffffffffffffffffff1673ffffffffffffffffffffffffffffffffffffffff166333a21dc1336040518263ffffffff1660e01b8152600401610e529190611ad4565b60206040518083038186803b158015610e6a57600080fd5b505afa158015610e7e573d6000803e3d6000fd5b505050506040513d601f19601f82011682018060405250810190610ea291906116bc565b90506000600160009054906101000a900473ffffffffffffffffffffffffffffffffffffffff1673ffffffffffffffffffffffffffffffffffffffff166333a21dc1856040518263ffffffff1660e01b8152600401610f019190611ad4565b60206040518083038186803b158015610f1957600080fd5b505afa158015610f2d573d6000803e3d6000fd5b505050506040513d601f19601f82011682018060405250810190610f5191906116bc565b905060006003811115610f8d577f4e487b7100000000000000000000000000000000000000000000000000000000600052602160045260246000fd5b816003811115610fc6577f4e487b7100000000000000000000000000000000000000000000000000000000600052602160045260246000fd5b1415611007576040517f08c379a0000000000000000000000000000000000000000000000000000000008152600401610ffe90611bc1565b60405180910390fd5b60016003811115611041577f4e487b7100000000000000000000000000000000000000000000000000000000600052602160045260246000fd5b82600381111561107a577f4e487b7100000000000000000000000000000000000000000000000000000000600052602160045260246000fd5b1480156110f75750600260038111156110bc577f4e487b7100000000000000000000000000000000000000000000000000000000600052602160045260246000fd5b8160038111156110f5577f4e487b7100000000000000000000000000000000000000000000000000000000600052602160045260246000fd5b145b806111ed575060026003811115611137577f4e487b7100000000000000000000000000000000000000000000000000000000600052602160045260246000fd5b826003811115611170577f4e487b7100000000000000000000000000000000000000000000000000000000600052602160045260246000fd5b1480156111ec57506003808111156111b1577f4e487b7100000000000000000000000000000000000000000000000000000000600052602160045260246000fd5b8160038111156111ea577f4e487b7100000000000000000000000000000000000000000000000000000000600052602160045260246000fd5b145b5b61122c576040517f08c379a000000000000000000000000000000000000000000000000000000000815260040161122390611c61565b60405180910390fd5b60008054906101000a900473ffffffffffffffffffffffffffffffffffffffff1673ffffffffffffffffffffffffffffffffffffffff1663fc43ce1786866040518363ffffffff1660e01b8152600401611287929190611cbc565b600060405180830381600087803b1580156112a157600080fd5b505af11580156112b5573d6000803e3d6000fd5b50505050600260009054906101000a900473ffffffffffffffffffffffffffffffffffffffff1673ffffffffffffffffffffffffffffffffffffffff1663c37e50ee86336040518363ffffffff1660e01b8152600401611316929190611cbc565b600060405180830381600087803b15801561133057600080fd5b505af1158015611344573d6000803e3d6000fd5b50505050600260009054906101000a900473ffffffffffffffffffffffffffffffffffffffff1673ffffffffffffffffffffffffffffffffffffffff166387949b7f86866040518363ffffffff1660e01b81526004016113a5929190611cbc565b600060405180830381600087803b1580156113bf57600080fd5b505af11580156113d3573d6000803e3d6000fd5b50505050600360009054906101000a900473ffffffffffffffffffffffffffffffffffffffff1673ffffffffffffffffffffffffffffffffffffffff16634b2aaaf58633876040518463ffffffff1660e01b815260040161143693929190611ce5565b600060405180830381600087803b15801561145057600080fd5b505af1158015611464573d6000803e3d6000fd5b505050508373ffffffffffffffffffffffffffffffffffffffff163373ffffffffffffffffffffffffffffffffffffffff16867f8761175769f4812fc1a3f00267fb069d1d176cbd8c2381dee3428be5f1f74a3b60405160405180910390a45050505050565b600360009054906101000a900473ffffffffffffffffffffffffffffffffffffffff1681565b60008054906101000a900473ffffffffffffffffffffffffffffffffffffffff1681565b82805461152090611ed9565b90600052602060002090601f0160209004810192826115425760008555611589565b82601f1061155b57803560ff1916838001178555611589565b82800160010185558215611589579182015b8281111561158857823582559160200191906001019061156d565b5b509050611596919061159a565b5090565b5b808211156115b357600081600090555060010161159b565b5090565b6000813590506115c681611f4b565b92915050565b6000815190506115db81611f4b565b92915050565b6000815190506115f081611f62565b92915050565b60008151905061160581611f79565b92915050565b60008083601f84011261161d57600080fd5b8235905067ffffffffffffffff81111561163657600080fd5b60208301915083600182028301111561164e57600080fd5b9250929050565b60008135905061166481611f89565b92915050565b60006020828403121561167c57600080fd5b600061168a848285016115cc565b91505092915050565b6000602082840312156116a557600080fd5b60006116b3848285016115e1565b91505092915050565b6000602082840312156116ce57600080fd5b60006116dc848285016115f6565b91505092915050565b6000602082840312156116f757600080fd5b600061170584828501611655565b91505092915050565b6000806040838503121561172157600080fd5b600061172f85828601611655565b9250506020611740858286016115b7565b9150509250929050565b60008060006040848603121561175f57600080fd5b600061176d86828701611655565b935050602084013567ffffffffffffffff81111561178a57600080fd5b6117968682870161160b565b92509250509250925092565b6117ab81611dbf565b82525050565b6117ba81611e07565b82525050565b6117c981611e2b565b82525050565b6117d881611e4f565b82525050565b6117e781611e73565b82525050565b60006117f98385611dae565b9350611806838584611e97565b61180f83611f3a565b840190509392505050565b600061182582611da3565b61182f8185611dae565b935061183f818560208601611ea6565b61184881611f3a565b840191505092915050565b6000611860602783611dae565b91507f536f6c6f2070726f647563746f7265732070756564656e20637265617220707260008301527f6f647563746f73000000000000000000000000000000000000000000000000006020830152604082019050919050565b60006118c6601a83611dae565b91507f44657374696e61746172696f206e6f207265676973747261646f0000000000006000830152602082019050919050565b6000611906602e83611dae565b91507f4e6f207469656e6573207065726d69736f2070617261206d6f6469666963617260008301527f20657374652070726f647563746f0000000000000000000000000000000000006020830152604082019050919050565b600061196c601583611dae565b91507f5573756172696f206e6f207265676973747261646f00000000000000000000006000830152602082019050919050565b60006119ac601283611dae565b91507f50726f647563746f206e6f2065786973746500000000000000000000000000006000830152602082019050919050565b60006119ec601f83611dae565b91507f4e6f206572657320717569656e20706f73656520656c2070726f647563746f006000830152602082019050919050565b6000611a2c602c83611dae565b91507f5472616e73666572656e636961206e6f207065726d697469646120656e74726560008301527f206573746f7320726f6c657300000000000000000000000000000000000000006020830152604082019050919050565b6000611a92601283611dae565b91507f50726f647563746f2079612065786973746500000000000000000000000000006000830152602082019050919050565b611ace81611dfd565b82525050565b6000602082019050611ae960008301846117a2565b92915050565b6000602082019050611b0460008301846117b1565b92915050565b6000602082019050611b1f60008301846117c0565b92915050565b6000602082019050611b3a60008301846117cf565b92915050565b6000602082019050611b5560008301846117de565b92915050565b60006020820190508181036000830152611b768184866117ed565b90509392505050565b60006020820190508181036000830152611b99818461181a565b905092915050565b60006020820190508181036000830152611bba81611853565b9050919050565b60006020820190508181036000830152611bda816118b9565b9050919050565b60006020820190508181036000830152611bfa816118f9565b9050919050565b60006020820190508181036000830152611c1a8161195f565b9050919050565b60006020820190508181036000830152611c3a8161199f565b9050919050565b60006020820190508181036000830152611c5a816119df565b9050919050565b60006020820190508181036000830152611c7a81611a1f565b9050919050565b60006020820190508181036000830152611c9a81611a85565b9050919050565b6000602082019050611cb66000830184611ac5565b92915050565b6000604082019050611cd16000830185611ac5565b611cde60208301846117a2565b9392505050565b6000606082019050611cfa6000830186611ac5565b611d0760208301856117a2565b611d1460408301846117a2565b949350505050565b6000606082019050611d316000830187611ac5565b8181036020830152611d448185876117ed565b9050611d5360408301846117a2565b95945050505050565b6000606082019050611d716000830187611ac5565b8181036020830152611d83818661181a565b90508181036040830152611d988184866117ed565b905095945050505050565b600081519050919050565b600082825260208201905092915050565b6000611dca82611ddd565b9050919050565b60008115159050919050565b600073ffffffffffffffffffffffffffffffffffffffff82169050919050565b6000819050919050565b6000611e1282611e19565b9050919050565b6000611e2482611ddd565b9050919050565b6000611e3682611e3d565b9050919050565b6000611e4882611ddd565b9050919050565b6000611e5a82611e61565b9050919050565b6000611e6c82611ddd565b9050919050565b6000611e7e82611e85565b9050919050565b6000611e9082611ddd565b9050919050565b82818337600083830152505050565b60005b83811015611ec4578082015181840152602081019050611ea9565b83811115611ed3576000848401525b50505050565b60006002820490506001821680611ef157607f821691505b60208210811415611f0557611f04611f0b565b5b50919050565b7f4e487b7100000000000000000000000000000000000000000000000000000000600052602260045260246000fd5b6000601f19601f8301169050919050565b611f5481611dbf565b8114611f5f57600080fd5b50565b611f6b81611dd1565b8114611f7657600080fd5b50565b60048110611f8657600080fd5b50565b611f9281611dfd565b8114611f9d57600080fd5b5056fea26469706673582212209049140a6ed7755cfcfda734cf24dcb4849c9d28a8f94234ab9ae49fe7c0b02864736f6c63430008000033",
			"opcodes": "PUSH1 0x80 PUSH1 0x40 MSTORE CALLVALUE DUP1 ISZERO PUSH3 0x11 JUMPI PUSH1 0x0 DUP1 REVERT JUMPDEST POP PUSH1 0x40 MLOAD PUSH3 0x21FB CODESIZE SUB DUP1 PUSH3 0x21FB DUP4 CODECOPY DUP2 DUP2 ADD PUSH1 0x40 MSTORE DUP2 ADD SWAP1 PUSH3 0x37 SWAP2 SWAP1 PUSH3 0x15B JUMP JUMPDEST DUP4 PUSH1 0x0 DUP1 PUSH2 0x100 EXP DUP2 SLOAD DUP2 PUSH20 0xFFFFFFFFFFFFFFFFFFFFFFFFFFFFFFFFFFFFFFFF MUL NOT AND SWAP1 DUP4 PUSH20 0xFFFFFFFFFFFFFFFFFFFFFFFFFFFFFFFFFFFFFFFF AND MUL OR SWAP1 SSTORE POP DUP3 PUSH1 0x1 PUSH1 0x0 PUSH2 0x100 EXP DUP2 SLOAD DUP2 PUSH20 0xFFFFFFFFFFFFFFFFFFFFFFFFFFFFFFFFFFFFFFFF MUL NOT AND SWAP1 DUP4 PUSH20 0xFFFFFFFFFFFFFFFFFFFFFFFFFFFFFFFFFFFFFFFF AND MUL OR SWAP1 SSTORE POP DUP2 PUSH1 0x2 PUSH1 0x0 PUSH2 0x100 EXP DUP2 SLOAD DUP2 PUSH20 0xFFFFFFFFFFFFFFFFFFFFFFFFFFFFFFFFFFFFFFFF MUL NOT AND SWAP1 DUP4 PUSH20 0xFFFFFFFFFFFFFFFFFFFFFFFFFFFFFFFFFFFFFFFF AND MUL OR SWAP1 SSTORE POP DUP1 PUSH1 0x3 PUSH1 0x0 PUSH2 0x100 EXP DUP2 SLOAD DUP2 PUSH20 0xFFFFFFFFFFFFFFFFFFFFFFFFFFFFFFFFFFFFFFFF MUL NOT AND SWAP1 DUP4 PUSH20 0xFFFFFFFFFFFFFFFFFFFFFFFFFFFFFFFFFFFFFFFF AND MUL OR SWAP1 SSTORE POP POP POP POP POP PUSH3 0x215 JUMP JUMPDEST PUSH1 0x0 DUP2 MLOAD SWAP1 POP PUSH3 0x155 DUP2 PUSH3 0x1FB JUMP JUMPDEST SWAP3 SWAP2 POP POP JUMP JUMPDEST PUSH1 0x0 DUP1 PUSH1 0x0 DUP1 PUSH1 0x80 DUP6 DUP8 SUB SLT ISZERO PUSH3 0x172 JUMPI PUSH1 0x0 DUP1 REVERT JUMPDEST PUSH1 0x0 PUSH3 0x182 DUP8 DUP3 DUP9 ADD PUSH3 0x144 JUMP JUMPDEST SWAP5 POP POP PUSH1 0x20 PUSH3 0x195 DUP8 DUP3 DUP9 ADD PUSH3 0x144 JUMP JUMPDEST SWAP4 POP POP PUSH1 0x40 PUSH3 0x1A8 DUP8 DUP3 DUP9 ADD PUSH3 0x144 JUMP JUMPDEST SWAP3 POP POP PUSH1 0x60 PUSH3 0x1BB DUP8 DUP3 DUP9 ADD PUSH3 0x144 JUMP JUMPDEST SWAP2 POP POP SWAP3 SWAP6 SWAP2 SWAP5 POP SWAP3 POP JUMP JUMPDEST PUSH1 0x0 PUSH3 0x1D4 DUP3 PUSH3 0x1DB JUMP JUMPDEST SWAP1 POP SWAP2 SWAP1 POP JUMP JUMPDEST PUSH1 0x0 PUSH20 0xFFFFFFFFFFFFFFFFFFFFFFFFFFFFFFFFFFFFFFFF DUP3 AND SWAP1 POP SWAP2 SWAP1 POP JUMP JUMPDEST PUSH3 0x206 DUP2 PUSH3 0x1C7 JUMP JUMPDEST DUP2 EQ PUSH3 0x212 JUMPI PUSH1 0x0 DUP1 REVERT JUMPDEST POP JUMP JUMPDEST PUSH2 0x1FD6 DUP1 PUSH3 0x225 PUSH1 0x0 CODECOPY PUSH1 0x0 RETURN INVALID PUSH1 0x80 PUSH1 0x40 MSTORE CALLVALUE DUP1 ISZERO PUSH2 0x10 JUMPI PUSH1 0x0 DUP1 REVERT JUMPDEST POP PUSH1 0x4 CALLDATASIZE LT PUSH2 0x88 JUMPI PUSH1 0x0 CALLDATALOAD PUSH1 0xE0 SHR DUP1 PUSH4 0x5E6A5A63 GT PUSH2 0x5B JUMPI DUP1 PUSH4 0x5E6A5A63 EQ PUSH2 0x115 JUMPI DUP1 PUSH4 0x6ADD2DF9 EQ PUSH2 0x131 JUMPI DUP1 PUSH4 0x7E5A5F8F EQ PUSH2 0x14D JUMPI DUP1 PUSH4 0xF05BB606 EQ PUSH2 0x16B JUMPI PUSH2 0x88 JUMP JUMPDEST DUP1 PUSH4 0xCBC5668 EQ PUSH2 0x8D JUMPI DUP1 PUSH4 0x1CA2D4AE EQ PUSH2 0xA9 JUMPI DUP1 PUSH4 0x3CA70178 EQ PUSH2 0xC7 JUMPI DUP1 PUSH4 0x4024CD8A EQ PUSH2 0xF7 JUMPI JUMPDEST PUSH1 0x0 DUP1 REVERT JUMPDEST PUSH2 0xA7 PUSH1 0x4 DUP1 CALLDATASIZE SUB DUP2 ADD SWAP1 PUSH2 0xA2 SWAP2 SWAP1 PUSH2 0x174A JUMP JUMPDEST PUSH2 0x189 JUMP JUMPDEST STOP JUMPDEST PUSH2 0xB1 PUSH2 0x54B JUMP JUMPDEST PUSH1 0x40 MLOAD PUSH2 0xBE SWAP2 SWAP1 PUSH2 0x1B40 JUMP JUMPDEST PUSH1 0x40 MLOAD DUP1 SWAP2 SUB SWAP1 RETURN JUMPDEST PUSH2 0xE1 PUSH1 0x4 DUP1 CALLDATASIZE SUB DUP2 ADD SWAP1 PUSH2 0xDC SWAP2 SWAP1 PUSH2 0x16E5 JUMP JUMPDEST PUSH2 0x571 JUMP JUMPDEST PUSH1 0x40 MLOAD PUSH2 0xEE SWAP2 SWAP1 PUSH2 0x1B7F JUMP JUMPDEST PUSH1 0x40 MLOAD DUP1 SWAP2 SUB SWAP1 RETURN JUMPDEST PUSH2 0xFF PUSH2 0x611 JUMP JUMPDEST PUSH1 0x40 MLOAD PUSH2 0x10C SWAP2 SWAP1 PUSH2 0x1AEF JUMP JUMPDEST PUSH1 0x40 MLOAD DUP1 SWAP2 SUB SWAP1 RETURN JUMPDEST PUSH2 0x12F PUSH1 0x4 DUP1 CALLDATASIZE SUB DUP2 ADD SWAP1 PUSH2 0x12A SWAP2 SWAP1 PUSH2 0x174A JUMP JUMPDEST PUSH2 0x637 JUMP JUMPDEST STOP JUMPDEST PUSH2 0x14B PUSH1 0x4 DUP1 CALLDATASIZE SUB DUP2 ADD SWAP1 PUSH2 0x146 SWAP2 SWAP1 PUSH2 0x170E JUMP JUMPDEST PUSH2 0xB05 JUMP JUMPDEST STOP JUMPDEST PUSH2 0x155 PUSH2 0x14CA JUMP JUMPDEST PUSH1 0x40 MLOAD PUSH2 0x162 SWAP2 SWAP1 PUSH2 0x1B0A JUMP JUMPDEST PUSH1 0x40 MLOAD DUP1 SWAP2 SUB SWAP1 RETURN JUMPDEST PUSH2 0x173 PUSH2 0x14F0 JUMP JUMPDEST PUSH1 0x40 MLOAD PUSH2 0x180 SWAP2 SWAP1 PUSH2 0x1B25 JUMP JUMPDEST PUSH1 0x40 MLOAD DUP1 SWAP2 SUB SWAP1 RETURN JUMPDEST PUSH1 0x0 PUSH1 0x1 PUSH1 0x0 SWAP1 SLOAD SWAP1 PUSH2 0x100 EXP SWAP1 DIV PUSH20 0xFFFFFFFFFFFFFFFFFFFFFFFFFFFFFFFFFFFFFFFF AND PUSH20 0xFFFFFFFFFFFFFFFFFFFFFFFFFFFFFFFFFFFFFFFF AND PUSH4 0x33A21DC1 CALLER PUSH1 0x40 MLOAD DUP3 PUSH4 0xFFFFFFFF AND PUSH1 0xE0 SHL DUP2 MSTORE PUSH1 0x4 ADD PUSH2 0x1E6 SWAP2 SWAP1 PUSH2 0x1AD4 JUMP JUMPDEST PUSH1 0x20 PUSH1 0x40 MLOAD DUP1 DUP4 SUB DUP2 DUP7 DUP1 EXTCODESIZE ISZERO DUP1 ISZERO PUSH2 0x1FE JUMPI PUSH1 0x0 DUP1 REVERT JUMPDEST POP GAS STATICCALL ISZERO DUP1 ISZERO PUSH2 0x212 JUMPI RETURNDATASIZE PUSH1 0x0 DUP1 RETURNDATACOPY RETURNDATASIZE PUSH1 0x0 REVERT JUMPDEST POP POP POP POP PUSH1 0x40 MLOAD RETURNDATASIZE PUSH1 0x1F NOT PUSH1 0x1F DUP3 ADD AND DUP3 ADD DUP1 PUSH1 0x40 MSTORE POP DUP2 ADD SWAP1 PUSH2 0x236 SWAP2 SWAP1 PUSH2 0x16BC JUMP JUMPDEST SWAP1 POP PUSH1 0x1 PUSH1 0x3 DUP2 GT ISZERO PUSH2 0x272 JUMPI PUSH32 0x4E487B7100000000000000000000000000000000000000000000000000000000 PUSH1 0x0 MSTORE PUSH1 0x21 PUSH1 0x4 MSTORE PUSH1 0x24 PUSH1 0x0 REVERT JUMPDEST DUP2 PUSH1 0x3 DUP2 GT ISZERO PUSH2 0x2AB JUMPI PUSH32 0x4E487B7100000000000000000000000000000000000000000000000000000000 PUSH1 0x0 MSTORE PUSH1 0x21 PUSH1 0x4 MSTORE PUSH1 0x24 PUSH1 0x0 REVERT JUMPDEST EQ PUSH2 0x2EB JUMPI PUSH1 0x40 MLOAD PUSH32 0x8C379A000000000000000000000000000000000000000000000000000000000 DUP2 MSTORE PUSH1 0x4 ADD PUSH2 0x2E2 SWAP1 PUSH2 0x1BA1 JUMP JUMPDEST PUSH1 0x40 MLOAD DUP1 SWAP2 SUB SWAP1 REVERT JUMPDEST PUSH1 0x0 DUP1 SLOAD SWAP1 PUSH2 0x100 EXP SWAP1 DIV PUSH20 0xFFFFFFFFFFFFFFFFFFFFFFFFFFFFFFFFFFFFFFFF AND PUSH20 0xFFFFFFFFFFFFFFFFFFFFFFFFFFFFFFFFFFFFFFFF AND PUSH4 0x618FDD47 DUP6 PUSH1 0x40 MLOAD DUP3 PUSH4 0xFFFFFFFF AND PUSH1 0xE0 SHL DUP2 MSTORE PUSH1 0x4 ADD PUSH2 0x344 SWAP2 SWAP1 PUSH2 0x1CA1 JUMP JUMPDEST PUSH1 0x20 PUSH1 0x40 MLOAD DUP1 DUP4 SUB DUP2 DUP7 DUP1 EXTCODESIZE ISZERO DUP1 ISZERO PUSH2 0x35C JUMPI PUSH1 0x0 DUP1 REVERT JUMPDEST POP GAS STATICCALL ISZERO DUP1 ISZERO PUSH2 0x370 JUMPI RETURNDATASIZE PUSH1 0x0 DUP1 RETURNDATACOPY RETURNDATASIZE PUSH1 0x0 REVERT JUMPDEST POP POP POP POP PUSH1 0x40 MLOAD RETURNDATASIZE PUSH1 0x1F NOT PUSH1 0x1F DUP3 ADD AND DUP3 ADD DUP1 PUSH1 0x40 MSTORE POP DUP2 ADD SWAP1 PUSH2 0x394 SWAP2 SWAP1 PUSH2 0x1693 JUMP JUMPDEST ISZERO PUSH2 0x3D4 JUMPI PUSH1 0x40 MLOAD PUSH32 0x8C379A000000000000000000000000000000000000000000000000000000000 DUP2 MSTORE PUSH1 0x4 ADD PUSH2 0x3CB SWAP1 PUSH2 0x1C81 JUMP JUMPDEST PUSH1 0x40 MLOAD DUP1 SWAP2 SUB SWAP1 REVERT JUMPDEST PUSH1 0x0 DUP1 SLOAD SWAP1 PUSH2 0x100 EXP SWAP1 DIV PUSH20 0xFFFFFFFFFFFFFFFFFFFFFFFFFFFFFFFFFFFFFFFF AND PUSH20 0xFFFFFFFFFFFFFFFFFFFFFFFFFFFFFFFFFFFFFFFF AND PUSH4 0x666ECFD0 DUP6 DUP6 DUP6 CALLER PUSH1 0x40 MLOAD DUP6 PUSH4 0xFFFFFFFF AND PUSH1 0xE0 SHL DUP2 MSTORE PUSH1 0x4 ADD PUSH2 0x433 SWAP5 SWAP4 SWAP3 SWAP2 SWAP1 PUSH2 0x1D1C JUMP JUMPDEST PUSH1 0x0 PUSH1 0x40 MLOAD DUP1 DUP4 SUB DUP2 PUSH1 0x0 DUP8 DUP1 EXTCODESIZE ISZERO DUP1 ISZERO PUSH2 0x44D JUMPI PUSH1 0x0 DUP1 REVERT JUMPDEST POP GAS CALL ISZERO DUP1 ISZERO PUSH2 0x461 JUMPI RETURNDATASIZE PUSH1 0x0 DUP1 RETURNDATACOPY RETURNDATASIZE PUSH1 0x0 REVERT JUMPDEST POP POP POP POP PUSH1 0x2 PUSH1 0x0 SWAP1 SLOAD SWAP1 PUSH2 0x100 EXP SWAP1 DIV PUSH20 0xFFFFFFFFFFFFFFFFFFFFFFFFFFFFFFFFFFFFFFFF AND PUSH20 0xFFFFFFFFFFFFFFFFFFFFFFFFFFFFFFFFFFFFFFFF AND PUSH4 0x87949B7F DUP6 CALLER PUSH1 0x40 MLOAD DUP4 PUSH4 0xFFFFFFFF AND PUSH1 0xE0 SHL DUP2 MSTORE PUSH1 0x4 ADD PUSH2 0x4C2 SWAP3 SWAP2 SWAP1 PUSH2 0x1CBC JUMP JUMPDEST PUSH1 0x0 PUSH1 0x40 MLOAD DUP1 DUP4 SUB DUP2 PUSH1 0x0 DUP8 DUP1 EXTCODESIZE ISZERO DUP1 ISZERO PUSH2 0x4DC JUMPI PUSH1 0x0 DUP1 REVERT JUMPDEST POP GAS CALL ISZERO DUP1 ISZERO PUSH2 0x4F0 JUMPI RETURNDATASIZE PUSH1 0x0 DUP1 RETURNDATACOPY RETURNDATASIZE PUSH1 0x0 REVERT JUMPDEST POP POP POP POP CALLER PUSH20 0xFFFFFFFFFFFFFFFFFFFFFFFFFFFFFFFFFFFFFFFF AND DUP5 PUSH32 0x47F31B1968929FD855DAA7CF13B31D0BEECE11B0F0F068AA6A77EA0CF4DB2607 DUP6 DUP6 PUSH1 0x40 MLOAD PUSH2 0x53D SWAP3 SWAP2 SWAP1 PUSH2 0x1B5B JUMP JUMPDEST PUSH1 0x40 MLOAD DUP1 SWAP2 SUB SWAP1 LOG3 POP POP POP POP JUMP JUMPDEST PUSH1 0x1 PUSH1 0x0 SWAP1 SLOAD SWAP1 PUSH2 0x100 EXP SWAP1 DIV PUSH20 0xFFFFFFFFFFFFFFFFFFFFFFFFFFFFFFFFFFFFFFFF AND DUP2 JUMP JUMPDEST PUSH1 0x4 PUSH1 0x20 MSTORE DUP1 PUSH1 0x0 MSTORE PUSH1 0x40 PUSH1 0x0 KECCAK256 PUSH1 0x0 SWAP2 POP SWAP1 POP DUP1 SLOAD PUSH2 0x590 SWAP1 PUSH2 0x1ED9 JUMP JUMPDEST DUP1 PUSH1 0x1F ADD PUSH1 0x20 DUP1 SWAP2 DIV MUL PUSH1 0x20 ADD PUSH1 0x40 MLOAD SWAP1 DUP2 ADD PUSH1 0x40 MSTORE DUP1 SWAP3 SWAP2 SWAP1 DUP2 DUP2 MSTORE PUSH1 0x20 ADD DUP3 DUP1 SLOAD PUSH2 0x5BC SWAP1 PUSH2 0x1ED9 JUMP JUMPDEST DUP1 ISZERO PUSH2 0x609 JUMPI DUP1 PUSH1 0x1F LT PUSH2 0x5DE JUMPI PUSH2 0x100 DUP1 DUP4 SLOAD DIV MUL DUP4 MSTORE SWAP2 PUSH1 0x20 ADD SWAP2 PUSH2 0x609 JUMP JUMPDEST DUP3 ADD SWAP2 SWAP1 PUSH1 0x0 MSTORE PUSH1 0x20 PUSH1 0x0 KECCAK256 SWAP1 JUMPDEST DUP2 SLOAD DUP2 MSTORE SWAP1 PUSH1 0x1 ADD SWAP1 PUSH1 0x20 ADD DUP1 DUP4 GT PUSH2 0x5EC JUMPI DUP3 SWAP1 SUB PUSH1 0x1F AND DUP3 ADD SWAP2 JUMPDEST POP POP POP POP POP DUP2 JUMP JUMPDEST PUSH1 0x2 PUSH1 0x0 SWAP1 SLOAD SWAP1 PUSH2 0x100 EXP SWAP1 DIV PUSH20 0xFFFFFFFFFFFFFFFFFFFFFFFFFFFFFFFFFFFFFFFF AND DUP2 JUMP JUMPDEST PUSH1 0x0 DUP1 SLOAD SWAP1 PUSH2 0x100 EXP SWAP1 DIV PUSH20 0xFFFFFFFFFFFFFFFFFFFFFFFFFFFFFFFFFFFFFFFF AND PUSH20 0xFFFFFFFFFFFFFFFFFFFFFFFFFFFFFFFFFFFFFFFF AND PUSH4 0x618FDD47 DUP5 PUSH1 0x40 MLOAD DUP3 PUSH4 0xFFFFFFFF AND PUSH1 0xE0 SHL DUP2 MSTORE PUSH1 0x4 ADD PUSH2 0x690 SWAP2 SWAP1 PUSH2 0x1CA1 JUMP JUMPDEST PUSH1 0x20 PUSH1 0x40 MLOAD DUP1 DUP4 SUB DUP2 DUP7 DUP1 EXTCODESIZE ISZERO DUP1 ISZERO PUSH2 0x6A8 JUMPI PUSH1 0x0 DUP1 REVERT JUMPDEST POP GAS STATICCALL ISZERO DUP1 ISZERO PUSH2 0x6BC JUMPI RETURNDATASIZE PUSH1 0x0 DUP1 RETURNDATACOPY RETURNDATASIZE PUSH1 0x0 REVERT JUMPDEST POP POP POP POP PUSH1 0x40 MLOAD RETURNDATASIZE PUSH1 0x1F NOT PUSH1 0x1F DUP3 ADD AND DUP3 ADD DUP1 PUSH1 0x40 MSTORE POP DUP2 ADD SWAP1 PUSH2 0x6E0 SWAP2 SWAP1 PUSH2 0x1693 JUMP JUMPDEST PUSH2 0x71F JUMPI PUSH1 0x40 MLOAD PUSH32 0x8C379A000000000000000000000000000000000000000000000000000000000 DUP2 MSTORE PUSH1 0x4 ADD PUSH2 0x716 SWAP1 PUSH2 0x1C21 JUMP JUMPDEST PUSH1 0x40 MLOAD DUP1 SWAP2 SUB SWAP1 REVERT JUMPDEST PUSH1 0x2 PUSH1 0x0 SWAP1 SLOAD SWAP1 PUSH2 0x100 EXP SWAP1 DIV PUSH20 0xFFFFFFFFFFFFFFFFFFFFFFFFFFFFFFFFFFFFFFFF AND PUSH20 0xFFFFFFFFFFFFFFFFFFFFFFFFFFFFFFFFFFFFFFFF AND PUSH4 0xED14AC99 DUP5 CALLER PUSH1 0x40 MLOAD DUP4 PUSH4 0xFFFFFFFF AND PUSH1 0xE0 SHL DUP2 MSTORE PUSH1 0x4 ADD PUSH2 0x77C SWAP3 SWAP2 SWAP1 PUSH2 0x1CBC JUMP JUMPDEST PUSH1 0x20 PUSH1 0x40 MLOAD DUP1 DUP4 SUB DUP2 DUP7 DUP1 EXTCODESIZE ISZERO DUP1 ISZERO PUSH2 0x794 JUMPI PUSH1 0x0 DUP1 REVERT JUMPDEST POP GAS STATICCALL ISZERO DUP1 ISZERO PUSH2 0x7A8 JUMPI RETURNDATASIZE PUSH1 0x0 DUP1 RETURNDATACOPY RETURNDATASIZE PUSH1 0x0 REVERT JUMPDEST POP POP POP POP PUSH1 0x40 MLOAD RETURNDATASIZE PUSH1 0x1F NOT PUSH1 0x1F DUP3 ADD AND DUP3 ADD DUP1 PUSH1 0x40 MSTORE POP DUP2 ADD SWAP1 PUSH2 0x7CC SWAP2 SWAP1 PUSH2 0x1693 JUMP JUMPDEST PUSH2 0x80B JUMPI PUSH1 0x40 MLOAD PUSH32 0x8C379A000000000000000000000000000000000000000000000000000000000 DUP2 MSTORE PUSH1 0x4 ADD PUSH2 0x802 SWAP1 PUSH2 0x1BE1 JUMP JUMPDEST PUSH1 0x40 MLOAD DUP1 SWAP2 SUB SWAP1 REVERT JUMPDEST PUSH1 0x0 PUSH1 0x1 PUSH1 0x0 SWAP1 SLOAD SWAP1 PUSH2 0x100 EXP SWAP1 DIV PUSH20 0xFFFFFFFFFFFFFFFFFFFFFFFFFFFFFFFFFFFFFFFF AND PUSH20 0xFFFFFFFFFFFFFFFFFFFFFFFFFFFFFFFFFFFFFFFF AND PUSH4 0x33A21DC1 CALLER PUSH1 0x40 MLOAD DUP3 PUSH4 0xFFFFFFFF AND PUSH1 0xE0 SHL DUP2 MSTORE PUSH1 0x4 ADD PUSH2 0x868 SWAP2 SWAP1 PUSH2 0x1AD4 JUMP JUMPDEST PUSH1 0x20 PUSH1 0x40 MLOAD DUP1 DUP4 SUB DUP2 DUP7 DUP1 EXTCODESIZE ISZERO DUP1 ISZERO PUSH2 0x880 JUMPI PUSH1 0x0 DUP1 REVERT JUMPDEST POP GAS STATICCALL ISZERO DUP1 ISZERO PUSH2 0x894 JUMPI RETURNDATASIZE PUSH1 0x0 DUP1 RETURNDATACOPY RETURNDATASIZE PUSH1 0x0 REVERT JUMPDEST POP POP POP POP PUSH1 0x40 MLOAD RETURNDATASIZE PUSH1 0x1F NOT PUSH1 0x1F DUP3 ADD AND DUP3 ADD DUP1 PUSH1 0x40 MSTORE POP DUP2 ADD SWAP1 PUSH2 0x8B8 SWAP2 SWAP1 PUSH2 0x16BC JUMP JUMPDEST SWAP1 POP PUSH1 0x0 PUSH1 0x3 DUP2 GT ISZERO PUSH2 0x8F4 JUMPI PUSH32 0x4E487B7100000000000000000000000000000000000000000000000000000000 PUSH1 0x0 MSTORE PUSH1 0x21 PUSH1 0x4 MSTORE PUSH1 0x24 PUSH1 0x0 REVERT JUMPDEST DUP2 PUSH1 0x3 DUP2 GT ISZERO PUSH2 0x92D JUMPI PUSH32 0x4E487B7100000000000000000000000000000000000000000000000000000000 PUSH1 0x0 MSTORE PUSH1 0x21 PUSH1 0x4 MSTORE PUSH1 0x24 PUSH1 0x0 REVERT JUMPDEST EQ ISZERO PUSH2 0x96E JUMPI PUSH1 0x40 MLOAD PUSH32 0x8C379A000000000000000000000000000000000000000000000000000000000 DUP2 MSTORE PUSH1 0x4 ADD PUSH2 0x965 SWAP1 PUSH2 0x1C01 JUMP JUMPDEST PUSH1 0x40 MLOAD DUP1 SWAP2 SUB SWAP1 REVERT JUMPDEST PUSH1 0x0 PUSH1 0x4 PUSH1 0x0 DUP7 DUP2 MSTORE PUSH1 0x20 ADD SWAP1 DUP2 MSTORE PUSH1 0x20 ADD PUSH1 0x0 KECCAK256 DUP1 SLOAD PUSH2 0x98E SWAP1 PUSH2 0x1ED9 JUMP JUMPDEST DUP1 PUSH1 0x1F ADD PUSH1 0x20 DUP1 SWAP2 DIV MUL PUSH1 0x20 ADD PUSH1 0x40 MLOAD SWAP1 DUP2 ADD PUSH1 0x40 MSTORE DUP1 SWAP3 SWAP2 SWAP1 DUP2 DUP2 MSTORE PUSH1 0x20 ADD DUP3 DUP1 SLOAD PUSH2 0x9BA SWAP1 PUSH2 0x1ED9 JUMP JUMPDEST DUP1 ISZERO PUSH2 0xA07 JUMPI DUP1 PUSH1 0x1F LT PUSH2 0x9DC JUMPI PUSH2 0x100 DUP1 DUP4 SLOAD DIV MUL DUP4 MSTORE SWAP2 PUSH1 0x20 ADD SWAP2 PUSH2 0xA07 JUMP JUMPDEST DUP3 ADD SWAP2 SWAP1 PUSH1 0x0 MSTORE PUSH1 0x20 PUSH1 0x0 KECCAK256 SWAP1 JUMPDEST DUP2 SLOAD DUP2 MSTORE SWAP1 PUSH1 0x1 ADD SWAP1 PUSH1 0x20 ADD DUP1 DUP4 GT PUSH2 0x9EA JUMPI DUP3 SWAP1 SUB PUSH1 0x1F AND DUP3 ADD SWAP2 JUMPDEST POP POP POP POP POP SWAP1 POP DUP4 DUP4 PUSH1 0x4 PUSH1 0x0 DUP9 DUP2 MSTORE PUSH1 0x20 ADD SWAP1 DUP2 MSTORE PUSH1 0x20 ADD PUSH1 0x0 KECCAK256 SWAP2 SWAP1 PUSH2 0xA30 SWAP3 SWAP2 SWAP1 PUSH2 0x1514 JUMP JUMPDEST POP PUSH1 0x3 PUSH1 0x0 SWAP1 SLOAD SWAP1 PUSH2 0x100 EXP SWAP1 DIV PUSH20 0xFFFFFFFFFFFFFFFFFFFFFFFFFFFFFFFFFFFFFFFF AND PUSH20 0xFFFFFFFFFFFFFFFFFFFFFFFFFFFFFFFFFFFFFFFF AND PUSH4 0x77543222 DUP7 DUP4 DUP8 DUP8 PUSH1 0x40 MLOAD DUP6 PUSH4 0xFFFFFFFF AND PUSH1 0xE0 SHL DUP2 MSTORE PUSH1 0x4 ADD PUSH2 0xA92 SWAP5 SWAP4 SWAP3 SWAP2 SWAP1 PUSH2 0x1D5C JUMP JUMPDEST PUSH1 0x0 PUSH1 0x40 MLOAD DUP1 DUP4 SUB DUP2 PUSH1 0x0 DUP8 DUP1 EXTCODESIZE ISZERO DUP1 ISZERO PUSH2 0xAAC JUMPI PUSH1 0x0 DUP1 REVERT JUMPDEST POP GAS CALL ISZERO DUP1 ISZERO PUSH2 0xAC0 JUMPI RETURNDATASIZE PUSH1 0x0 DUP1 RETURNDATACOPY RETURNDATASIZE PUSH1 0x0 REVERT JUMPDEST POP POP POP POP DUP5 PUSH32 0xECFC98CDD416BD6051E028DA16E26F6512ADCEDDA6B875A1B7A4097E6B4888C8 DUP6 DUP6 PUSH1 0x40 MLOAD PUSH2 0xAF6 SWAP3 SWAP2 SWAP1 PUSH2 0x1B5B JUMP JUMPDEST PUSH1 0x40 MLOAD DUP1 SWAP2 SUB SWAP1 LOG2 POP POP POP POP POP JUMP JUMPDEST PUSH1 0x0 DUP1 SLOAD SWAP1 PUSH2 0x100 EXP SWAP1 DIV PUSH20 0xFFFFFFFFFFFFFFFFFFFFFFFFFFFFFFFFFFFFFFFF AND PUSH20 0xFFFFFFFFFFFFFFFFFFFFFFFFFFFFFFFFFFFFFFFF AND PUSH4 0x618FDD47 DUP4 PUSH1 0x40 MLOAD DUP3 PUSH4 0xFFFFFFFF AND PUSH1 0xE0 SHL DUP2 MSTORE PUSH1 0x4 ADD PUSH2 0xB5E SWAP2 SWAP1 PUSH2 0x1CA1 JUMP JUMPDEST PUSH1 0x20 PUSH1 0x40 MLOAD DUP1 DUP4 SUB DUP2 DUP7 DUP1 EXTCODESIZE ISZERO DUP1 ISZERO PUSH2 0xB76 JUMPI PUSH1 0x0 DUP1 REVERT JUMPDEST POP GAS STATICCALL ISZERO DUP1 ISZERO PUSH2 0xB8A JUMPI RETURNDATASIZE PUSH1 0x0 DUP1 RETURNDATACOPY RETURNDATASIZE PUSH1 0x0 REVERT JUMPDEST POP POP POP POP PUSH1 0x40 MLOAD RETURNDATASIZE PUSH1 0x1F NOT PUSH1 0x1F DUP3 ADD AND DUP3 ADD DUP1 PUSH1 0x40 MSTORE POP DUP2 ADD SWAP1 PUSH2 0xBAE SWAP2 SWAP1 PUSH2 0x1693 JUMP JUMPDEST PUSH2 0xBED JUMPI PUSH1 0x40 MLOAD PUSH32 0x8C379A000000000000000000000000000000000000000000000000000000000 DUP2 MSTORE PUSH1 0x4 ADD PUSH2 0xBE4 SWAP1 PUSH2 0x1C21 JUMP JUMPDEST PUSH1 0x40 MLOAD DUP1 SWAP2 SUB SWAP1 REVERT JUMPDEST PUSH1 0x2 PUSH1 0x0 SWAP1 SLOAD SWAP1 PUSH2 0x100 EXP SWAP1 DIV PUSH20 0xFFFFFFFFFFFFFFFFFFFFFFFFFFFFFFFFFFFFFFFF AND PUSH20 0xFFFFFFFFFFFFFFFFFFFFFFFFFFFFFFFFFFFFFFFF AND PUSH4 0xED14AC99 DUP4 CALLER PUSH1 0x40 MLOAD DUP4 PUSH4 0xFFFFFFFF AND PUSH1 0xE0 SHL DUP2 MSTORE PUSH1 0x4 ADD PUSH2 0xC4A SWAP3 SWAP2 SWAP1 PUSH2 0x1CBC JUMP JUMPDEST PUSH1 0x20 PUSH1 0x40 MLOAD DUP1 DUP4 SUB DUP2 DUP7 DUP1 EXTCODESIZE ISZERO DUP1 ISZERO PUSH2 0xC62 JUMPI PUSH1 0x0 DUP1 REVERT JUMPDEST POP GAS STATICCALL ISZERO DUP1 ISZERO PUSH2 0xC76 JUMPI RETURNDATASIZE PUSH1 0x0 DUP1 RETURNDATACOPY RETURNDATASIZE PUSH1 0x0 REVERT JUMPDEST POP POP POP POP PUSH1 0x40 MLOAD RETURNDATASIZE PUSH1 0x1F NOT PUSH1 0x1F DUP3 ADD AND DUP3 ADD DUP1 PUSH1 0x40 MSTORE POP DUP2 ADD SWAP1 PUSH2 0xC9A SWAP2 SWAP1 PUSH2 0x1693 JUMP JUMPDEST PUSH2 0xCD9 JUMPI PUSH1 0x40 MLOAD PUSH32 0x8C379A000000000000000000000000000000000000000000000000000000000 DUP2 MSTORE PUSH1 0x4 ADD PUSH2 0xCD0 SWAP1 PUSH2 0x1BE1 JUMP JUMPDEST PUSH1 0x40 MLOAD DUP1 SWAP2 SUB SWAP1 REVERT JUMPDEST PUSH1 0x0 DUP1 PUSH1 0x0 SWAP1 SLOAD SWAP1 PUSH2 0x100 EXP SWAP1 DIV PUSH20 0xFFFFFFFFFFFFFFFFFFFFFFFFFFFFFFFFFFFFFFFF AND PUSH20 0xFFFFFFFFFFFFFFFFFFFFFFFFFFFFFFFFFFFFFFFF AND PUSH4 0xB3FEBE1C DUP5 PUSH1 0x40 MLOAD DUP3 PUSH4 0xFFFFFFFF AND PUSH1 0xE0 SHL DUP2 MSTORE PUSH1 0x4 ADD PUSH2 0xD35 SWAP2 SWAP1 PUSH2 0x1CA1 JUMP JUMPDEST PUSH1 0x20 PUSH1 0x40 MLOAD DUP1 DUP4 SUB DUP2 DUP7 DUP1 EXTCODESIZE ISZERO DUP1 ISZERO PUSH2 0xD4D JUMPI PUSH1 0x0 DUP1 REVERT JUMPDEST POP GAS STATICCALL ISZERO DUP1 ISZERO PUSH2 0xD61 JUMPI RETURNDATASIZE PUSH1 0x0 DUP1 RETURNDATACOPY RETURNDATASIZE PUSH1 0x0 REVERT JUMPDEST POP POP POP POP PUSH1 0x40 MLOAD RETURNDATASIZE PUSH1 0x1F NOT PUSH1 0x1F DUP3 ADD AND DUP3 ADD DUP1 PUSH1 0x40 MSTORE POP DUP2 ADD SWAP1 PUSH2 0xD85 SWAP2 SWAP1 PUSH2 0x166A JUMP JUMPDEST SWAP1 POP DUP1 PUSH20 0xFFFFFFFFFFFFFFFFFFFFFFFFFFFFFFFFFFFFFFFF AND CALLER PUSH20 0xFFFFFFFFFFFFFFFFFFFFFFFFFFFFFFFFFFFFFFFF AND EQ PUSH2 0xDF5 JUMPI PUSH1 0x40 MLOAD PUSH32 0x8C379A000000000000000000000000000000000000000000000000000000000 DUP2 MSTORE PUSH1 0x4 ADD PUSH2 0xDEC SWAP1 PUSH2 0x1C41 JUMP JUMPDEST PUSH1 0x40 MLOAD DUP1 SWAP2 SUB SWAP1 REVERT JUMPDEST PUSH1 0x0 PUSH1 0x1 PUSH1 0x0 SWAP1 SLOAD SWAP1 PUSH2 0x100 EXP SWAP1 DIV PUSH20 0xFFFFFFFFFFFFFFFFFFFFFFFFFFFFFFFFFFFFFFFF AND PUSH20 0xFFFFFFFFFFFFFFFFFFFFFFFFFFFFFFFFFFFFFFFF AND PUSH4 0x33A21DC1 CALLER PUSH1 0x40 MLOAD DUP3 PUSH4 0xFFFFFFFF AND PUSH1 0xE0 SHL DUP2 MSTORE PUSH1 0x4 ADD PUSH2 0xE52 SWAP2 SWAP1 PUSH2 0x1AD4 JUMP JUMPDEST PUSH1 0x20 PUSH1 0x40 MLOAD DUP1 DUP4 SUB DUP2 DUP7 DUP1 EXTCODESIZE ISZERO DUP1 ISZERO PUSH2 0xE6A JUMPI PUSH1 0x0 DUP1 REVERT JUMPDEST POP GAS STATICCALL ISZERO DUP1 ISZERO PUSH2 0xE7E JUMPI RETURNDATASIZE PUSH1 0x0 DUP1 RETURNDATACOPY RETURNDATASIZE PUSH1 0x0 REVERT JUMPDEST POP POP POP POP PUSH1 0x40 MLOAD RETURNDATASIZE PUSH1 0x1F NOT PUSH1 0x1F DUP3 ADD AND DUP3 ADD DUP1 PUSH1 0x40 MSTORE POP DUP2 ADD SWAP1 PUSH2 0xEA2 SWAP2 SWAP1 PUSH2 0x16BC JUMP JUMPDEST SWAP1 POP PUSH1 0x0 PUSH1 0x1 PUSH1 0x0 SWAP1 SLOAD SWAP1 PUSH2 0x100 EXP SWAP1 DIV PUSH20 0xFFFFFFFFFFFFFFFFFFFFFFFFFFFFFFFFFFFFFFFF AND PUSH20 0xFFFFFFFFFFFFFFFFFFFFFFFFFFFFFFFFFFFFFFFF AND PUSH4 0x33A21DC1 DUP6 PUSH1 0x40 MLOAD DUP3 PUSH4 0xFFFFFFFF AND PUSH1 0xE0 SHL DUP2 MSTORE PUSH1 0x4 ADD PUSH2 0xF01 SWAP2 SWAP1 PUSH2 0x1AD4 JUMP JUMPDEST PUSH1 0x20 PUSH1 0x40 MLOAD DUP1 DUP4 SUB DUP2 DUP7 DUP1 EXTCODESIZE ISZERO DUP1 ISZERO PUSH2 0xF19 JUMPI PUSH1 0x0 DUP1 REVERT JUMPDEST POP GAS STATICCALL ISZERO DUP1 ISZERO PUSH2 0xF2D JUMPI RETURNDATASIZE PUSH1 0x0 DUP1 RETURNDATACOPY RETURNDATASIZE PUSH1 0x0 REVERT JUMPDEST POP POP POP POP PUSH1 0x40 MLOAD RETURNDATASIZE PUSH1 0x1F NOT PUSH1 0x1F DUP3 ADD AND DUP3 ADD DUP1 PUSH1 0x40 MSTORE POP DUP2 ADD SWAP1 PUSH2 0xF51 SWAP2 SWAP1 PUSH2 0x16BC JUMP JUMPDEST SWAP1 POP PUSH1 0x0 PUSH1 0x3 DUP2 GT ISZERO PUSH2 0xF8D JUMPI PUSH32 0x4E487B7100000000000000000000000000000000000000000000000000000000 PUSH1 0x0 MSTORE PUSH1 0x21 PUSH1 0x4 MSTORE PUSH1 0x24 PUSH1 0x0 REVERT JUMPDEST DUP2 PUSH1 0x3 DUP2 GT ISZERO PUSH2 0xFC6 JUMPI PUSH32 0x4E487B7100000000000000000000000000000000000000000000000000000000 PUSH1 0x0 MSTORE PUSH1 0x21 PUSH1 0x4 MSTORE PUSH1 0x24 PUSH1 0x0 REVERT JUMPDEST EQ ISZERO PUSH2 0x1007 JUMPI PUSH1 0x40 MLOAD PUSH32 0x8C379A000000000000000000000000000000000000000000000000000000000 DUP2 MSTORE PUSH1 0x4 ADD PUSH2 0xFFE SWAP1 PUSH2 0x1BC1 JUMP JUMPDEST PUSH1 0x40 MLOAD DUP1 SWAP2 SUB SWAP1 REVERT JUMPDEST PUSH1 0x1 PUSH1 0x3 DUP2 GT ISZERO PUSH2 0x1041 JUMPI PUSH32 0x4E487B7100000000000000000000000000000000000000000000000000000000 PUSH1 0x0 MSTORE PUSH1 0x21 PUSH1 0x4 MSTORE PUSH1 0x24 PUSH1 0x0 REVERT JUMPDEST DUP3 PUSH1 0x3 DUP2 GT ISZERO PUSH2 0x107A JUMPI PUSH32 0x4E487B7100000000000000000000000000000000000000000000000000000000 PUSH1 0x0 MSTORE PUSH1 0x21 PUSH1 0x4 MSTORE PUSH1 0x24 PUSH1 0x0 REVERT JUMPDEST EQ DUP1 ISZERO PUSH2 0x10F7 JUMPI POP PUSH1 0x2 PUSH1 0x3 DUP2 GT ISZERO PUSH2 0x10BC JUMPI PUSH32 0x4E487B7100000000000000000000000000000000000000000000000000000000 PUSH1 0x0 MSTORE PUSH1 0x21 PUSH1 0x4 MSTORE PUSH1 0x24 PUSH1 0x0 REVERT JUMPDEST DUP2 PUSH1 0x3 DUP2 GT ISZERO PUSH2 0x10F5 JUMPI PUSH32 0x4E487B7100000000000000000000000000000000000000000000000000000000 PUSH1 0x0 MSTORE PUSH1 0x21 PUSH1 0x4 MSTORE PUSH1 0x24 PUSH1 0x0 REVERT JUMPDEST EQ JUMPDEST DUP1 PUSH2 0x11ED JUMPI POP PUSH1 0x2 PUSH1 0x3 DUP2 GT ISZERO PUSH2 0x1137 JUMPI PUSH32 0x4E487B7100000000000000000000000000000000000000000000000000000000 PUSH1 0x0 MSTORE PUSH1 0x21 PUSH1 0x4 MSTORE PUSH1 0x24 PUSH1 0x0 REVERT JUMPDEST DUP3 PUSH1 0x3 DUP2 GT ISZERO PUSH2 0x1170 JUMPI PUSH32 0x4E487B7100000000000000000000000000000000000000000000000000000000 PUSH1 0x0 MSTORE PUSH1 0x21 PUSH1 0x4 MSTORE PUSH1 0x24 PUSH1 0x0 REVERT JUMPDEST EQ DUP1 ISZERO PUSH2 0x11EC JUMPI POP PUSH1 0x3 DUP1 DUP2 GT ISZERO PUSH2 0x11B1 JUMPI PUSH32 0x4E487B7100000000000000000000000000000000000000000000000000000000 PUSH1 0x0 MSTORE PUSH1 0x21 PUSH1 0x4 MSTORE PUSH1 0x24 PUSH1 0x0 REVERT JUMPDEST DUP2 PUSH1 0x3 DUP2 GT ISZERO PUSH2 0x11EA JUMPI PUSH32 0x4E487B7100000000000000000000000000000000000000000000000000000000 PUSH1 0x0 MSTORE PUSH1 0x21 PUSH1 0x4 MSTORE PUSH1 0x24 PUSH1 0x0 REVERT JUMPDEST EQ JUMPDEST JUMPDEST PUSH2 0x122C JUMPI PUSH1 0x40 MLOAD PUSH32 0x8C379A000000000000000000000000000000000000000000000000000000000 DUP2 MSTORE PUSH1 0x4 ADD PUSH2 0x1223 SWAP1 PUSH2 0x1C61 JUMP JUMPDEST PUSH1 0x40 MLOAD DUP1 SWAP2 SUB SWAP1 REVERT JUMPDEST PUSH1 0x0 DUP1 SLOAD SWAP1 PUSH2 0x100 EXP SWAP1 DIV PUSH20 0xFFFFFFFFFFFFFFFFFFFFFFFFFFFFFFFFFFFFFFFF AND PUSH20 0xFFFFFFFFFFFFFFFFFFFFFFFFFFFFFFFFFFFFFFFF AND PUSH4 0xFC43CE17 DUP7 DUP7 PUSH1 0x40 MLOAD DUP4 PUSH4 0xFFFFFFFF AND PUSH1 0xE0 SHL DUP2 MSTORE PUSH1 0x4 ADD PUSH2 0x1287 SWAP3 SWAP2 SWAP1 PUSH2 0x1CBC JUMP JUMPDEST PUSH1 0x0 PUSH1 0x40 MLOAD DUP1 DUP4 SUB DUP2 PUSH1 0x0 DUP8 DUP1 EXTCODESIZE ISZERO DUP1 ISZERO PUSH2 0x12A1 JUMPI PUSH1 0x0 DUP1 REVERT JUMPDEST POP GAS CALL ISZERO DUP1 ISZERO PUSH2 0x12B5 JUMPI RETURNDATASIZE PUSH1 0x0 DUP1 RETURNDATACOPY RETURNDATASIZE PUSH1 0x0 REVERT JUMPDEST POP POP POP POP PUSH1 0x2 PUSH1 0x0 SWAP1 SLOAD SWAP1 PUSH2 0x100 EXP SWAP1 DIV PUSH20 0xFFFFFFFFFFFFFFFFFFFFFFFFFFFFFFFFFFFFFFFF AND PUSH20 0xFFFFFFFFFFFFFFFFFFFFFFFFFFFFFFFFFFFFFFFF AND PUSH4 0xC37E50EE DUP7 CALLER PUSH1 0x40 MLOAD DUP4 PUSH4 0xFFFFFFFF AND PUSH1 0xE0 SHL DUP2 MSTORE PUSH1 0x4 ADD PUSH2 0x1316 SWAP3 SWAP2 SWAP1 PUSH2 0x1CBC JUMP JUMPDEST PUSH1 0x0 PUSH1 0x40 MLOAD DUP1 DUP4 SUB DUP2 PUSH1 0x0 DUP8 DUP1 EXTCODESIZE ISZERO DUP1 ISZERO PUSH2 0x1330 JUMPI PUSH1 0x0 DUP1 REVERT JUMPDEST POP GAS CALL ISZERO DUP1 ISZERO PUSH2 0x1344 JUMPI RETURNDATASIZE PUSH1 0x0 DUP1 RETURNDATACOPY RETURNDATASIZE PUSH1 0x0 REVERT JUMPDEST POP POP POP POP PUSH1 0x2 PUSH1 0x0 SWAP1 SLOAD SWAP1 PUSH2 0x100 EXP SWAP1 DIV PUSH20 0xFFFFFFFFFFFFFFFFFFFFFFFFFFFFFFFFFFFFFFFF AND PUSH20 0xFFFFFFFFFFFFFFFFFFFFFFFFFFFFFFFFFFFFFFFF AND PUSH4 0x87949B7F DUP7 DUP7 PUSH1 0x40 MLOAD DUP4 PUSH4 0xFFFFFFFF AND PUSH1 0xE0 SHL DUP2 MSTORE PUSH1 0x4 ADD PUSH2 0x13A5 SWAP3 SWAP2 SWAP1 PUSH2 0x1CBC JUMP JUMPDEST PUSH1 0x0 PUSH1 0x40 MLOAD DUP1 DUP4 SUB DUP2 PUSH1 0x0 DUP8 DUP1 EXTCODESIZE ISZERO DUP1 ISZERO PUSH2 0x13BF JUMPI PUSH1 0x0 DUP1 REVERT JUMPDEST POP GAS CALL ISZERO DUP1 ISZERO PUSH2 0x13D3 JUMPI RETURNDATASIZE PUSH1 0x0 DUP1 RETURNDATACOPY RETURNDATASIZE PUSH1 0x0 REVERT JUMPDEST POP POP POP POP PUSH1 0x3 PUSH1 0x0 SWAP1 SLOAD SWAP1 PUSH2 0x100 EXP SWAP1 DIV PUSH20 0xFFFFFFFFFFFFFFFFFFFFFFFFFFFFFFFFFFFFFFFF AND PUSH20 0xFFFFFFFFFFFFFFFFFFFFFFFFFFFFFFFFFFFFFFFF AND PUSH4 0x4B2AAAF5 DUP7 CALLER DUP8 PUSH1 0x40 MLOAD DUP5 PUSH4 0xFFFFFFFF AND PUSH1 0xE0 SHL DUP2 MSTORE PUSH1 0x4 ADD PUSH2 0x1436 SWAP4 SWAP3 SWAP2 SWAP1 PUSH2 0x1CE5 JUMP JUMPDEST PUSH1 0x0 PUSH1 0x40 MLOAD DUP1 DUP4 SUB DUP2 PUSH1 0x0 DUP8 DUP1 EXTCODESIZE ISZERO DUP1 ISZERO PUSH2 0x1450 JUMPI PUSH1 0x0 DUP1 REVERT JUMPDEST POP GAS CALL ISZERO DUP1 ISZERO PUSH2 0x1464 JUMPI RETURNDATASIZE PUSH1 0x0 DUP1 RETURNDATACOPY RETURNDATASIZE PUSH1 0x0 REVERT JUMPDEST POP POP POP POP DUP4 PUSH20 0xFFFFFFFFFFFFFFFFFFFFFFFFFFFFFFFFFFFFFFFF AND CALLER PUSH20 0xFFFFFFFFFFFFFFFFFFFFFFFFFFFFFFFFFFFFFFFF AND DUP7 PUSH32 0x8761175769F4812FC1A3F00267FB069D1D176CBD8C2381DEE3428BE5F1F74A3B PUSH1 0x40 MLOAD PUSH1 0x40 MLOAD DUP1 SWAP2 SUB SWAP1 LOG4 POP POP POP POP POP JUMP JUMPDEST PUSH1 0x3 PUSH1 0x0 SWAP1 SLOAD SWAP1 PUSH2 0x100 EXP SWAP1 DIV PUSH20 0xFFFFFFFFFFFFFFFFFFFFFFFFFFFFFFFFFFFFFFFF AND DUP2 JUMP JUMPDEST PUSH1 0x0 DUP1 SLOAD SWAP1 PUSH2 0x100 EXP SWAP1 DIV PUSH20 0xFFFFFFFFFFFFFFFFFFFFFFFFFFFFFFFFFFFFFFFF AND DUP2 JUMP JUMPDEST DUP3 DUP1 SLOAD PUSH2 0x1520 SWAP1 PUSH2 0x1ED9 JUMP JUMPDEST SWAP1 PUSH1 0x0 MSTORE PUSH1 0x20 PUSH1 0x0 KECCAK256 SWAP1 PUSH1 0x1F ADD PUSH1 0x20 SWAP1 DIV DUP2 ADD SWAP3 DUP3 PUSH2 0x1542 JUMPI PUSH1 0x0 DUP6 SSTORE PUSH2 0x1589 JUMP JUMPDEST DUP3 PUSH1 0x1F LT PUSH2 0x155B JUMPI DUP1 CALLDATALOAD PUSH1 0xFF NOT AND DUP4 DUP1 ADD OR DUP6 SSTORE PUSH2 0x1589 JUMP JUMPDEST DUP3 DUP1 ADD PUSH1 0x1 ADD DUP6 SSTORE DUP3 ISZERO PUSH2 0x1589 JUMPI SWAP2 DUP3 ADD JUMPDEST DUP3 DUP2 GT ISZERO PUSH2 0x1588 JUMPI DUP3 CALLDATALOAD DUP3 SSTORE SWAP2 PUSH1 0x20 ADD SWAP2 SWAP1 PUSH1 0x1 ADD SWAP1 PUSH2 0x156D JUMP JUMPDEST JUMPDEST POP SWAP1 POP PUSH2 0x1596 SWAP2 SWAP1 PUSH2 0x159A JUMP JUMPDEST POP SWAP1 JUMP JUMPDEST JUMPDEST DUP1 DUP3 GT ISZERO PUSH2 0x15B3 JUMPI PUSH1 0x0 DUP2 PUSH1 0x0 SWAP1 SSTORE POP PUSH1 0x1 ADD PUSH2 0x159B JUMP JUMPDEST POP SWAP1 JUMP JUMPDEST PUSH1 0x0 DUP2 CALLDATALOAD SWAP1 POP PUSH2 0x15C6 DUP2 PUSH2 0x1F4B JUMP JUMPDEST SWAP3 SWAP2 POP POP JUMP JUMPDEST PUSH1 0x0 DUP2 MLOAD SWAP1 POP PUSH2 0x15DB DUP2 PUSH2 0x1F4B JUMP JUMPDEST SWAP3 SWAP2 POP POP JUMP JUMPDEST PUSH1 0x0 DUP2 MLOAD SWAP1 POP PUSH2 0x15F0 DUP2 PUSH2 0x1F62 JUMP JUMPDEST SWAP3 SWAP2 POP POP JUMP JUMPDEST PUSH1 0x0 DUP2 MLOAD SWAP1 POP PUSH2 0x1605 DUP2 PUSH2 0x1F79 JUMP JUMPDEST SWAP3 SWAP2 POP POP JUMP JUMPDEST PUSH1 0x0 DUP1 DUP4 PUSH1 0x1F DUP5 ADD SLT PUSH2 0x161D JUMPI PUSH1 0x0 DUP1 REVERT JUMPDEST DUP3 CALLDATALOAD SWAP1 POP PUSH8 0xFFFFFFFFFFFFFFFF DUP2 GT ISZERO PUSH2 0x1636 JUMPI PUSH1 0x0 DUP1 REVERT JUMPDEST PUSH1 0x20 DUP4 ADD SWAP2 POP DUP4 PUSH1 0x1 DUP3 MUL DUP4 ADD GT ISZERO PUSH2 0x164E JUMPI PUSH1 0x0 DUP1 REVERT JUMPDEST SWAP3 POP SWAP3 SWAP1 POP JUMP JUMPDEST PUSH1 0x0 DUP2 CALLDATALOAD SWAP1 POP PUSH2 0x1664 DUP2 PUSH2 0x1F89 JUMP JUMPDEST SWAP3 SWAP2 POP POP JUMP JUMPDEST PUSH1 0x0 PUSH1 0x20 DUP3 DUP5 SUB SLT ISZERO PUSH2 0x167C JUMPI PUSH1 0x0 DUP1 REVERT JUMPDEST PUSH1 0x0 PUSH2 0x168A DUP5 DUP3 DUP6 ADD PUSH2 0x15CC JUMP JUMPDEST SWAP2 POP POP SWAP3 SWAP2 POP POP JUMP JUMPDEST PUSH1 0x0 PUSH1 0x20 DUP3 DUP5 SUB SLT ISZERO PUSH2 0x16A5 JUMPI PUSH1 0x0 DUP1 REVERT JUMPDEST PUSH1 0x0 PUSH2 0x16B3 DUP5 DUP3 DUP6 ADD PUSH2 0x15E1 JUMP JUMPDEST SWAP2 POP POP SWAP3 SWAP2 POP POP JUMP JUMPDEST PUSH1 0x0 PUSH1 0x20 DUP3 DUP5 SUB SLT ISZERO PUSH2 0x16CE JUMPI PUSH1 0x0 DUP1 REVERT JUMPDEST PUSH1 0x0 PUSH2 0x16DC DUP5 DUP3 DUP6 ADD PUSH2 0x15F6 JUMP JUMPDEST SWAP2 POP POP SWAP3 SWAP2 POP POP JUMP JUMPDEST PUSH1 0x0 PUSH1 0x20 DUP3 DUP5 SUB SLT ISZERO PUSH2 0x16F7 JUMPI PUSH1 0x0 DUP1 REVERT JUMPDEST PUSH1 0x0 PUSH2 0x1705 DUP5 DUP3 DUP6 ADD PUSH2 0x1655 JUMP JUMPDEST SWAP2 POP POP SWAP3 SWAP2 POP POP JUMP JUMPDEST PUSH1 0x0 DUP1 PUSH1 0x40 DUP4 DUP6 SUB SLT ISZERO PUSH2 0x1721 JUMPI PUSH1 0x0 DUP1 REVERT JUMPDEST PUSH1 0x0 PUSH2 0x172F DUP6 DUP3 DUP7 ADD PUSH2 0x1655 JUMP JUMPDEST SWAP3 POP POP PUSH1 0x20 PUSH2 0x1740 DUP6 DUP3 DUP7 ADD PUSH2 0x15B7 JUMP JUMPDEST SWAP2 POP POP SWAP3 POP SWAP3 SWAP1 POP JUMP JUMPDEST PUSH1 0x0 DUP1 PUSH1 0x0 PUSH1 0x40 DUP5 DUP7 SUB SLT ISZERO PUSH2 0x175F JUMPI PUSH1 0x0 DUP1 REVERT JUMPDEST PUSH1 0x0 PUSH2 0x176D DUP7 DUP3 DUP8 ADD PUSH2 0x1655 JUMP JUMPDEST SWAP4 POP POP PUSH1 0x20 DUP5 ADD CALLDATALOAD PUSH8 0xFFFFFFFFFFFFFFFF DUP2 GT ISZERO PUSH2 0x178A JUMPI PUSH1 0x0 DUP1 REVERT JUMPDEST PUSH2 0x1796 DUP7 DUP3 DUP8 ADD PUSH2 0x160B JUMP JUMPDEST SWAP3 POP SWAP3 POP POP SWAP3 POP SWAP3 POP SWAP3 JUMP JUMPDEST PUSH2 0x17AB DUP2 PUSH2 0x1DBF JUMP JUMPDEST DUP3 MSTORE POP POP JUMP JUMPDEST PUSH2 0x17BA DUP2 PUSH2 0x1E07 JUMP JUMPDEST DUP3 MSTORE POP POP JUMP JUMPDEST PUSH2 0x17C9 DUP2 PUSH2 0x1E2B JUMP JUMPDEST DUP3 MSTORE POP POP JUMP JUMPDEST PUSH2 0x17D8 DUP2 PUSH2 0x1E4F JUMP JUMPDEST DUP3 MSTORE POP POP JUMP JUMPDEST PUSH2 0x17E7 DUP2 PUSH2 0x1E73 JUMP JUMPDEST DUP3 MSTORE POP POP JUMP JUMPDEST PUSH1 0x0 PUSH2 0x17F9 DUP4 DUP6 PUSH2 0x1DAE JUMP JUMPDEST SWAP4 POP PUSH2 0x1806 DUP4 DUP6 DUP5 PUSH2 0x1E97 JUMP JUMPDEST PUSH2 0x180F DUP4 PUSH2 0x1F3A JUMP JUMPDEST DUP5 ADD SWAP1 POP SWAP4 SWAP3 POP POP POP JUMP JUMPDEST PUSH1 0x0 PUSH2 0x1825 DUP3 PUSH2 0x1DA3 JUMP JUMPDEST PUSH2 0x182F DUP2 DUP6 PUSH2 0x1DAE JUMP JUMPDEST SWAP4 POP PUSH2 0x183F DUP2 DUP6 PUSH1 0x20 DUP7 ADD PUSH2 0x1EA6 JUMP JUMPDEST PUSH2 0x1848 DUP2 PUSH2 0x1F3A JUMP JUMPDEST DUP5 ADD SWAP2 POP POP SWAP3 SWAP2 POP POP JUMP JUMPDEST PUSH1 0x0 PUSH2 0x1860 PUSH1 0x27 DUP4 PUSH2 0x1DAE JUMP JUMPDEST SWAP2 POP PUSH32 0x536F6C6F2070726F647563746F7265732070756564656E206372656172207072 PUSH1 0x0 DUP4 ADD MSTORE PUSH32 0x6F647563746F7300000000000000000000000000000000000000000000000000 PUSH1 0x20 DUP4 ADD MSTORE PUSH1 0x40 DUP3 ADD SWAP1 POP SWAP2 SWAP1 POP JUMP JUMPDEST PUSH1 0x0 PUSH2 0x18C6 PUSH1 0x1A DUP4 PUSH2 0x1DAE JUMP JUMPDEST SWAP2 POP PUSH32 0x44657374696E61746172696F206E6F207265676973747261646F000000000000 PUSH1 0x0 DUP4 ADD MSTORE PUSH1 0x20 DUP3 ADD SWAP1 POP SWAP2 SWAP1 POP JUMP JUMPDEST PUSH1 0x0 PUSH2 0x1906 PUSH1 0x2E DUP4 PUSH2 0x1DAE JUMP JUMPDEST SWAP2 POP PUSH32 0x4E6F207469656E6573207065726D69736F2070617261206D6F64696669636172 PUSH1 0x0 DUP4 ADD MSTORE PUSH32 0x20657374652070726F647563746F000000000000000000000000000000000000 PUSH1 0x20 DUP4 ADD MSTORE PUSH1 0x40 DUP3 ADD SWAP1 POP SWAP2 SWAP1 POP JUMP JUMPDEST PUSH1 0x0 PUSH2 0x196C PUSH1 0x15 DUP4 PUSH2 0x1DAE JUMP JUMPDEST SWAP2 POP PUSH32 0x5573756172696F206E6F207265676973747261646F0000000000000000000000 PUSH1 0x0 DUP4 ADD MSTORE PUSH1 0x20 DUP3 ADD SWAP1 POP SWAP2 SWAP1 POP JUMP JUMPDEST PUSH1 0x0 PUSH2 0x19AC PUSH1 0x12 DUP4 PUSH2 0x1DAE JUMP JUMPDEST SWAP2 POP PUSH32 0x50726F647563746F206E6F206578697374650000000000000000000000000000 PUSH1 0x0 DUP4 ADD MSTORE PUSH1 0x20 DUP3 ADD SWAP1 POP SWAP2 SWAP1 POP JUMP JUMPDEST PUSH1 0x0 PUSH2 0x19EC PUSH1 0x1F DUP4 PUSH2 0x1DAE JUMP JUMPDEST SWAP2 POP PUSH32 0x4E6F206572657320717569656E20706F73656520656C2070726F647563746F00 PUSH1 0x0 DUP4 ADD MSTORE PUSH1 0x20 DUP3 ADD SWAP1 POP SWAP2 SWAP1 POP JUMP JUMPDEST PUSH1 0x0 PUSH2 0x1A2C PUSH1 0x2C DUP4 PUSH2 0x1DAE JUMP JUMPDEST SWAP2 POP PUSH32 0x5472616E73666572656E636961206E6F207065726D697469646120656E747265 PUSH1 0x0 DUP4 ADD MSTORE PUSH32 0x206573746F7320726F6C65730000000000000000000000000000000000000000 PUSH1 0x20 DUP4 ADD MSTORE PUSH1 0x40 DUP3 ADD SWAP1 POP SWAP2 SWAP1 POP JUMP JUMPDEST PUSH1 0x0 PUSH2 0x1A92 PUSH1 0x12 DUP4 PUSH2 0x1DAE JUMP JUMPDEST SWAP2 POP PUSH32 0x50726F647563746F207961206578697374650000000000000000000000000000 PUSH1 0x0 DUP4 ADD MSTORE PUSH1 0x20 DUP3 ADD SWAP1 POP SWAP2 SWAP1 POP JUMP JUMPDEST PUSH2 0x1ACE DUP2 PUSH2 0x1DFD JUMP JUMPDEST DUP3 MSTORE POP POP JUMP JUMPDEST PUSH1 0x0 PUSH1 0x20 DUP3 ADD SWAP1 POP PUSH2 0x1AE9 PUSH1 0x0 DUP4 ADD DUP5 PUSH2 0x17A2 JUMP JUMPDEST SWAP3 SWAP2 POP POP JUMP JUMPDEST PUSH1 0x0 PUSH1 0x20 DUP3 ADD SWAP1 POP PUSH2 0x1B04 PUSH1 0x0 DUP4 ADD DUP5 PUSH2 0x17B1 JUMP JUMPDEST SWAP3 SWAP2 POP POP JUMP JUMPDEST PUSH1 0x0 PUSH1 0x20 DUP3 ADD SWAP1 POP PUSH2 0x1B1F PUSH1 0x0 DUP4 ADD DUP5 PUSH2 0x17C0 JUMP JUMPDEST SWAP3 SWAP2 POP POP JUMP JUMPDEST PUSH1 0x0 PUSH1 0x20 DUP3 ADD SWAP1 POP PUSH2 0x1B3A PUSH1 0x0 DUP4 ADD DUP5 PUSH2 0x17CF JUMP JUMPDEST SWAP3 SWAP2 POP POP JUMP JUMPDEST PUSH1 0x0 PUSH1 0x20 DUP3 ADD SWAP1 POP PUSH2 0x1B55 PUSH1 0x0 DUP4 ADD DUP5 PUSH2 0x17DE JUMP JUMPDEST SWAP3 SWAP2 POP POP JUMP JUMPDEST PUSH1 0x0 PUSH1 0x20 DUP3 ADD SWAP1 POP DUP2 DUP2 SUB PUSH1 0x0 DUP4 ADD MSTORE PUSH2 0x1B76 DUP2 DUP5 DUP7 PUSH2 0x17ED JUMP JUMPDEST SWAP1 POP SWAP4 SWAP3 POP POP POP JUMP JUMPDEST PUSH1 0x0 PUSH1 0x20 DUP3 ADD SWAP1 POP DUP2 DUP2 SUB PUSH1 0x0 DUP4 ADD MSTORE PUSH2 0x1B99 DUP2 DUP5 PUSH2 0x181A JUMP JUMPDEST SWAP1 POP SWAP3 SWAP2 POP POP JUMP JUMPDEST PUSH1 0x0 PUSH1 0x20 DUP3 ADD SWAP1 POP DUP2 DUP2 SUB PUSH1 0x0 DUP4 ADD MSTORE PUSH2 0x1BBA DUP2 PUSH2 0x1853 JUMP JUMPDEST SWAP1 POP SWAP2 SWAP1 POP JUMP JUMPDEST PUSH1 0x0 PUSH1 0x20 DUP3 ADD SWAP1 POP DUP2 DUP2 SUB PUSH1 0x0 DUP4 ADD MSTORE PUSH2 0x1BDA DUP2 PUSH2 0x18B9 JUMP JUMPDEST SWAP1 POP SWAP2 SWAP1 POP JUMP JUMPDEST PUSH1 0x0 PUSH1 0x20 DUP3 ADD SWAP1 POP DUP2 DUP2 SUB PUSH1 0x0 DUP4 ADD MSTORE PUSH2 0x1BFA DUP2 PUSH2 0x18F9 JUMP JUMPDEST SWAP1 POP SWAP2 SWAP1 POP JUMP JUMPDEST PUSH1 0x0 PUSH1 0x20 DUP3 ADD SWAP1 POP DUP2 DUP2 SUB PUSH1 0x0 DUP4 ADD MSTORE PUSH2 0x1C1A DUP2 PUSH2 0x195F JUMP JUMPDEST SWAP1 POP SWAP2 SWAP1 POP JUMP JUMPDEST PUSH1 0x0 PUSH1 0x20 DUP3 ADD SWAP1 POP DUP2 DUP2 SUB PUSH1 0x0 DUP4 ADD MSTORE PUSH2 0x1C3A DUP2 PUSH2 0x199F JUMP JUMPDEST SWAP1 POP SWAP2 SWAP1 POP JUMP JUMPDEST PUSH1 0x0 PUSH1 0x20 DUP3 ADD SWAP1 POP DUP2 DUP2 SUB PUSH1 0x0 DUP4 ADD MSTORE PUSH2 0x1C5A DUP2 PUSH2 0x19DF JUMP JUMPDEST SWAP1 POP SWAP2 SWAP1 POP JUMP JUMPDEST PUSH1 0x0 PUSH1 0x20 DUP3 ADD SWAP1 POP DUP2 DUP2 SUB PUSH1 0x0 DUP4 ADD MSTORE PUSH2 0x1C7A DUP2 PUSH2 0x1A1F JUMP JUMPDEST SWAP1 POP SWAP2 SWAP1 POP JUMP JUMPDEST PUSH1 0x0 PUSH1 0x20 DUP3 ADD SWAP1 POP DUP2 DUP2 SUB PUSH1 0x0 DUP4 ADD MSTORE PUSH2 0x1C9A DUP2 PUSH2 0x1A85 JUMP JUMPDEST SWAP1 POP SWAP2 SWAP1 POP JUMP JUMPDEST PUSH1 0x0 PUSH1 0x20 DUP3 ADD SWAP1 POP PUSH2 0x1CB6 PUSH1 0x0 DUP4 ADD DUP5 PUSH2 0x1AC5 JUMP JUMPDEST SWAP3 SWAP2 POP POP JUMP JUMPDEST PUSH1 0x0 PUSH1 0x40 DUP3 ADD SWAP1 POP PUSH2 0x1CD1 PUSH1 0x0 DUP4 ADD DUP6 PUSH2 0x1AC5 JUMP JUMPDEST PUSH2 0x1CDE PUSH1 0x20 DUP4 ADD DUP5 PUSH2 0x17A2 JUMP JUMPDEST SWAP4 SWAP3 POP POP POP JUMP JUMPDEST PUSH1 0x0 PUSH1 0x60 DUP3 ADD SWAP1 POP PUSH2 0x1CFA PUSH1 0x0 DUP4 ADD DUP7 PUSH2 0x1AC5 JUMP JUMPDEST PUSH2 0x1D07 PUSH1 0x20 DUP4 ADD DUP6 PUSH2 0x17A2 JUMP JUMPDEST PUSH2 0x1D14 PUSH1 0x40 DUP4 ADD DUP5 PUSH2 0x17A2 JUMP JUMPDEST SWAP5 SWAP4 POP POP POP POP JUMP JUMPDEST PUSH1 0x0 PUSH1 0x60 DUP3 ADD SWAP1 POP PUSH2 0x1D31 PUSH1 0x0 DUP4 ADD DUP8 PUSH2 0x1AC5 JUMP JUMPDEST DUP2 DUP2 SUB PUSH1 0x20 DUP4 ADD MSTORE PUSH2 0x1D44 DUP2 DUP6 DUP8 PUSH2 0x17ED JUMP JUMPDEST SWAP1 POP PUSH2 0x1D53 PUSH1 0x40 DUP4 ADD DUP5 PUSH2 0x17A2 JUMP JUMPDEST SWAP6 SWAP5 POP POP POP POP POP JUMP JUMPDEST PUSH1 0x0 PUSH1 0x60 DUP3 ADD SWAP1 POP PUSH2 0x1D71 PUSH1 0x0 DUP4 ADD DUP8 PUSH2 0x1AC5 JUMP JUMPDEST DUP2 DUP2 SUB PUSH1 0x20 DUP4 ADD MSTORE PUSH2 0x1D83 DUP2 DUP7 PUSH2 0x181A JUMP JUMPDEST SWAP1 POP DUP2 DUP2 SUB PUSH1 0x40 DUP4 ADD MSTORE PUSH2 0x1D98 DUP2 DUP5 DUP7 PUSH2 0x17ED JUMP JUMPDEST SWAP1 POP SWAP6 SWAP5 POP POP POP POP POP JUMP JUMPDEST PUSH1 0x0 DUP2 MLOAD SWAP1 POP SWAP2 SWAP1 POP JUMP JUMPDEST PUSH1 0x0 DUP3 DUP3 MSTORE PUSH1 0x20 DUP3 ADD SWAP1 POP SWAP3 SWAP2 POP POP JUMP JUMPDEST PUSH1 0x0 PUSH2 0x1DCA DUP3 PUSH2 0x1DDD JUMP JUMPDEST SWAP1 POP SWAP2 SWAP1 POP JUMP JUMPDEST PUSH1 0x0 DUP2 ISZERO ISZERO SWAP1 POP SWAP2 SWAP1 POP JUMP JUMPDEST PUSH1 0x0 PUSH20 0xFFFFFFFFFFFFFFFFFFFFFFFFFFFFFFFFFFFFFFFF DUP3 AND SWAP1 POP SWAP2 SWAP1 POP JUMP JUMPDEST PUSH1 0x0 DUP2 SWAP1 POP SWAP2 SWAP1 POP JUMP JUMPDEST PUSH1 0x0 PUSH2 0x1E12 DUP3 PUSH2 0x1E19 JUMP JUMPDEST SWAP1 POP SWAP2 SWAP1 POP JUMP JUMPDEST PUSH1 0x0 PUSH2 0x1E24 DUP3 PUSH2 0x1DDD JUMP JUMPDEST SWAP1 POP SWAP2 SWAP1 POP JUMP JUMPDEST PUSH1 0x0 PUSH2 0x1E36 DUP3 PUSH2 0x1E3D JUMP JUMPDEST SWAP1 POP SWAP2 SWAP1 POP JUMP JUMPDEST PUSH1 0x0 PUSH2 0x1E48 DUP3 PUSH2 0x1DDD JUMP JUMPDEST SWAP1 POP SWAP2 SWAP1 POP JUMP JUMPDEST PUSH1 0x0 PUSH2 0x1E5A DUP3 PUSH2 0x1E61 JUMP JUMPDEST SWAP1 POP SWAP2 SWAP1 POP JUMP JUMPDEST PUSH1 0x0 PUSH2 0x1E6C DUP3 PUSH2 0x1DDD JUMP JUMPDEST SWAP1 POP SWAP2 SWAP1 POP JUMP JUMPDEST PUSH1 0x0 PUSH2 0x1E7E DUP3 PUSH2 0x1E85 JUMP JUMPDEST SWAP1 POP SWAP2 SWAP1 POP JUMP JUMPDEST PUSH1 0x0 PUSH2 0x1E90 DUP3 PUSH2 0x1DDD JUMP JUMPDEST SWAP1 POP SWAP2 SWAP1 POP JUMP JUMPDEST DUP3 DUP2 DUP4 CALLDATACOPY PUSH1 0x0 DUP4 DUP4 ADD MSTORE POP POP POP JUMP JUMPDEST PUSH1 0x0 JUMPDEST DUP4 DUP2 LT ISZERO PUSH2 0x1EC4 JUMPI DUP1 DUP3 ADD MLOAD DUP2 DUP5 ADD MSTORE PUSH1 0x20 DUP2 ADD SWAP1 POP PUSH2 0x1EA9 JUMP JUMPDEST DUP4 DUP2 GT ISZERO PUSH2 0x1ED3 JUMPI PUSH1 0x0 DUP5 DUP5 ADD MSTORE JUMPDEST POP POP POP POP JUMP JUMPDEST PUSH1 0x0 PUSH1 0x2 DUP3 DIV SWAP1 POP PUSH1 0x1 DUP3 AND DUP1 PUSH2 0x1EF1 JUMPI PUSH1 0x7F DUP3 AND SWAP2 POP JUMPDEST PUSH1 0x20 DUP3 LT DUP2 EQ ISZERO PUSH2 0x1F05 JUMPI PUSH2 0x1F04 PUSH2 0x1F0B JUMP JUMPDEST JUMPDEST POP SWAP2 SWAP1 POP JUMP JUMPDEST PUSH32 0x4E487B7100000000000000000000000000000000000000000000000000000000 PUSH1 0x0 MSTORE PUSH1 0x22 PUSH1 0x4 MSTORE PUSH1 0x24 PUSH1 0x0 REVERT JUMPDEST PUSH1 0x0 PUSH1 0x1F NOT PUSH1 0x1F DUP4 ADD AND SWAP1 POP SWAP2 SWAP1 POP JUMP JUMPDEST PUSH2 0x1F54 DUP2 PUSH2 0x1DBF JUMP JUMPDEST DUP2 EQ PUSH2 0x1F5F JUMPI PUSH1 0x0 DUP1 REVERT JUMPDEST POP JUMP JUMPDEST PUSH2 0x1F6B DUP2 PUSH2 0x1DD1 JUMP JUMPDEST DUP2 EQ PUSH2 0x1F76 JUMPI PUSH1 0x0 DUP1 REVERT JUMPDEST POP JUMP JUMPDEST PUSH1 0x4 DUP2 LT PUSH2 0x1F86 JUMPI PUSH1 0x0 DUP1 REVERT JUMPDEST POP JUMP JUMPDEST PUSH2 0x1F92 DUP2 PUSH2 0x1DFD JUMP JUMPDEST DUP2 EQ PUSH2 0x1F9D JUMPI PUSH1 0x0 DUP1 REVERT JUMPDEST POP JUMP INVALID LOG2 PUSH5 0x6970667358 0x22 SLT KECCAK256 SWAP1 0x49 EQ EXP PUSH15 0xD7755CFCFDA734CF24DCB4849C9D28 0xA8 0xF9 TIMESTAMP CALLVALUE 0xAB SWAP11 0xE4 SWAP16 0xE7 0xC0 0xB0 0x28 PUSH5 0x736F6C6343 STOP ADDMOD STOP STOP CALLER "
		},
		"gasEstimates": {
			"creation": {
				"codeDepositCost": "1630000",
				"executionCost": "infinite",
				"totalCost": "infinite"
			},
			"external": {
				"actualizarEstadoProducto(uint256,string)": "infinite",
				"crearProducto(uint256,string)": "infinite",
				"estadosProducto(uint256)": "infinite",
				"gestorPermisos()": "1324",
				"registroAuditoria()": "1301",
				"registroProductos()": "1320",
				"registroUsuarios()": "1280",
				"transferirProducto(uint256,address)": "infinite"
			}
		},
		"methodIdentifiers": {
			"actualizarEstadoProducto(uint256,string)": "5e6a5a63",
			"crearProducto(uint256,string)": "0cbc5668",
			"estadosProducto(uint256)": "3ca70178",
			"gestorPermisos()": "4024cd8a",
			"registroAuditoria()": "7e5a5f8f",
			"registroProductos()": "f05bb606",
			"registroUsuarios()": "1ca2d4ae",
			"transferirProducto(uint256,address)": "6add2df9"
		}
	},
	"abi": [
		{
			"inputs": [
				{
					"internalType": "address",
					"name": "_registroProductos",
					"type": "address"
				},
				{
					"internalType": "address",
					"name": "_registroUsuarios",
					"type": "address"
				},
				{
					"internalType": "address",
					"name": "_gestorPermisos",
					"type": "address"
				},
				{
					"internalType": "address",
					"name": "_registroAuditoria",
					"type": "address"
				}
			],
			"stateMutability": "nonpayable",
			"type": "constructor"
		},
		{
			"anonymous": false,
			"inputs": [
				{
					"indexed": true,
					"internalType": "uint256",
					"name": "idProducto",
					"type": "uint256"
				},
				{
					"indexed": false,
					"internalType": "string",
					"name": "nuevoEstado",
					"type": "string"
				}
			],
			"name": "EstadoProductoActualizado",
			"type": "event"
		},
		{
			"anonymous": false,
			"inputs": [
				{
					"indexed": true,
					"internalType": "uint256",
					"name": "idProducto",
					"type": "uint256"
				},
				{
					"indexed": false,
					"internalType": "string",
					"name": "descripcion",
					"type": "string"
				},
				{
					"indexed": true,
					"internalType": "address",
					"name": "productor",
					"type": "address"
				}
			],
			"name": "ProductoCreado",
			"type": "event"
		},
		{
			"anonymous": false,
			"inputs": [
				{
					"indexed": true,
					"internalType": "uint256",
					"name": "idProducto",
					"type": "uint256"
				},
				{
					"indexed": true,
					"internalType": "address",
					"name": "desde",
					"type": "address"
				},
				{
					"indexed": true,
					"internalType": "address",
					"name": "hacia",
					"type": "address"
				}
			],
			"name": "ProductoTransferido",
			"type": "event"
		},
		{
			"inputs": [
				{
					"internalType": "uint256",
					"name": "idProducto",
					"type": "uint256"
				},
				{
					"internalType": "string",
					"name": "nuevoEstado",
					"type": "string"
				}
			],
			"name": "actualizarEstadoProducto",
			"outputs": [],
			"stateMutability": "nonpayable",
			"type": "function"
		},
		{
			"inputs": [
				{
					"internalType": "uint256",
					"name": "idProducto",
					"type": "uint256"
				},
				{
					"internalType": "string",
					"name": "descripcion",
					"type": "string"
				}
			],
			"name": "crearProducto",
			"outputs": [],
			"stateMutability": "nonpayable",
			"type": "function"
		},
		{
			"inputs": [
				{
					"internalType": "uint256",
					"name": "",
					"type": "uint256"
				}
			],
			"name": "estadosProducto",
			"outputs": [
				{
					"internalType": "string",
					"name": "",
					"type": "string"
				}
			],
			"stateMutability": "view",
			"type": "function"
		},
		{
			"inputs": [],
			"name": "gestorPermisos",
			"outputs": [
				{
					"internalType": "contract IGestorPermisos",
					"name": "",
					"type": "address"
				}
			],
			"stateMutability": "view",
			"type": "function"
		},
		{
			"inputs": [],
			"name": "registroAuditoria",
			"outputs": [
				{
					"internalType": "contract IRegistroAuditoria",
					"name": "",
					"type": "address"
				}
			],
			"stateMutability": "view",
			"type": "function"
		},
		{
			"inputs": [],
			"name": "registroProductos",
			"outputs": [
				{
					"internalType": "contract IRegistroProductos",
					"name": "",
					"type": "address"
				}
			],
			"stateMutability": "view",
			"type": "function"
		},
		{
			"inputs": [],
			"name": "registroUsuarios",
			"outputs": [
				{
					"internalType": "contract IRegistroUsuarios",
					"name": "",
					"type": "address"
				}
			],
			"stateMutability": "view",
			"type": "function"
		},
		{
			"inputs": [
				{
					"internalType": "uint256",
					"name": "idProducto",
					"type": "uint256"
				},
				{
					"internalType": "address",
					"name": "hacia",
					"type": "address"
				}
			],
			"name": "transferirProducto",
			"outputs": [],
			"stateMutability": "nonpayable",
			"type": "function"
		}
	]
}