{
	"data": {
		"bytecode": {
			"linkReferences": {},
			"object": "6101006040523480156200001257600080fd5b5060405162001ed938038062001ed9833981810160405281019062000038919062000135565b8373ffffffffffffffffffffffffffffffffffffffff1660808173ffffffffffffffffffffffffffffffffffffffff1660601b815250508273ffffffffffffffffffffffffffffffffffffffff1660a08173ffffffffffffffffffffffffffffffffffffffff1660601b815250508173ffffffffffffffffffffffffffffffffffffffff1660c08173ffffffffffffffffffffffffffffffffffffffff1660601b815250508073ffffffffffffffffffffffffffffffffffffffff1660e08173ffffffffffffffffffffffffffffffffffffffff1660601b8152505050505050620001ef565b6000815190506200012f81620001d5565b92915050565b600080600080608085870312156200014c57600080fd5b60006200015c878288016200011e565b94505060206200016f878288016200011e565b935050604062000182878288016200011e565b925050606062000195878288016200011e565b91505092959194509250565b6000620001ae82620001b5565b9050919050565b600073ffffffffffffffffffffffffffffffffffffffff82169050919050565b620001e081620001a1565b8114620001ec57600080fd5b50565b60805160601c60a05160601c60c05160601c60e05160601c611c4a6200028f6000396000818161083901526111d40152600081816103760152818161052d015281816109f5015281816110ba0152611147015260008181609e0152818161061901528181610bfc0152610ca90152600081816101fc015281816102e5015281816104450152818161090d01528181610ae1015261102d0152611c4a6000f3fe608060405234801561001057600080fd5b50600436106100415760003560e01c80630cbc5668146100465780635e6a5a63146100625780636add2df91461007e575b600080fd5b610060600480360381019061005b91906114af565b61009a565b005b61007c600480360381019061007791906114af565b610443565b005b61009860048036038101906100939190611473565b61090b565b005b60007f000000000000000000000000000000000000000000000000000000000000000073ffffffffffffffffffffffffffffffffffffffff166333a21dc1336040518263ffffffff1660e01b81526004016100f591906117fd565b60206040518083038186803b15801561010d57600080fd5b505afa158015610121573d6000803e3d6000fd5b505050506040513d601f19601f82011682018060405250810190610145919061144a565b905060016003811115610181577f4e487b7100000000000000000000000000000000000000000000000000000000600052602160045260246000fd5b8160038111156101ba577f4e487b7100000000000000000000000000000000000000000000000000000000600052602160045260246000fd5b146101fa576040517f08c379a00000000000000000000000000000000000000000000000000000000081526004016101f190611897565b60405180910390fd5b7f000000000000000000000000000000000000000000000000000000000000000073ffffffffffffffffffffffffffffffffffffffff1663618fdd47856040518263ffffffff1660e01b81526004016102539190611997565b60206040518083038186803b15801561026b57600080fd5b505afa15801561027f573d6000803e3d6000fd5b505050506040513d601f19601f820116820180604052508101906102a39190611421565b156102e3576040517f08c379a00000000000000000000000000000000000000000000000000000000081526004016102da90611977565b60405180910390fd5b7f000000000000000000000000000000000000000000000000000000000000000073ffffffffffffffffffffffffffffffffffffffff1663666ecfd0858585336040518563ffffffff1660e01b81526004016103429493929190611a12565b600060405180830381600087803b15801561035c57600080fd5b505af1158015610370573d6000803e3d6000fd5b505050507f000000000000000000000000000000000000000000000000000000000000000073ffffffffffffffffffffffffffffffffffffffff166387949b7f85336040518363ffffffff1660e01b81526004016103cf9291906119b2565b600060405180830381600087803b1580156103e957600080fd5b505af11580156103fd573d6000803e3d6000fd5b50505050837f47f31b1968929fd855daa7cf13b31d0beece11b0f0f068aa6a77ea0cf4db260784843360405161043593929190611865565b60405180910390a250505050565b7f000000000000000000000000000000000000000000000000000000000000000073ffffffffffffffffffffffffffffffffffffffff1663618fdd47846040518263ffffffff1660e01b815260040161049c9190611997565b60206040518083038186803b1580156104b457600080fd5b505afa1580156104c8573d6000803e3d6000fd5b505050506040513d601f19601f820116820180604052508101906104ec9190611421565b61052b576040517f08c379a000000000000000000000000000000000000000000000000000000000815260040161052290611917565b60405180910390fd5b7f000000000000000000000000000000000000000000000000000000000000000073ffffffffffffffffffffffffffffffffffffffff1663ed14ac9984336040518363ffffffff1660e01b81526004016105869291906119b2565b60206040518083038186803b15801561059e57600080fd5b505afa1580156105b2573d6000803e3d6000fd5b505050506040513d601f19601f820116820180604052508101906105d69190611421565b610615576040517f08c379a000000000000000000000000000000000000000000000000000000000815260040161060c906118d7565b60405180910390fd5b60007f000000000000000000000000000000000000000000000000000000000000000073ffffffffffffffffffffffffffffffffffffffff166333a21dc1336040518263ffffffff1660e01b815260040161067091906117fd565b60206040518083038186803b15801561068857600080fd5b505afa15801561069c573d6000803e3d6000fd5b505050506040513d601f19601f820116820180604052508101906106c0919061144a565b9050600060038111156106fc577f4e487b7100000000000000000000000000000000000000000000000000000000600052602160045260246000fd5b816003811115610735577f4e487b7100000000000000000000000000000000000000000000000000000000600052602160045260246000fd5b1415610776576040517f08c379a000000000000000000000000000000000000000000000000000000000815260040161076d906118f7565b60405180910390fd5b6000806000868152602001908152602001600020805461079590611b4d565b80601f01602080910402602001604051908101604052809291908181526020018280546107c190611b4d565b801561080e5780601f106107e35761010080835404028352916020019161080e565b820191906000526020600020905b8154815290600101906020018083116107f157829003601f168201915b50505050509050838360008088815260200190815260200160002091906108369291906112a2565b507f000000000000000000000000000000000000000000000000000000000000000073ffffffffffffffffffffffffffffffffffffffff1663d3dda4f986838787336040518663ffffffff1660e01b8152600401610898959493929190611a52565b600060405180830381600087803b1580156108b257600080fd5b505af11580156108c6573d6000803e3d6000fd5b50505050847fecfc98cdd416bd6051e028da16e26f6512adcedda6b875a1b7a4097e6b4888c885856040516108fc929190611841565b60405180910390a25050505050565b7f000000000000000000000000000000000000000000000000000000000000000073ffffffffffffffffffffffffffffffffffffffff1663618fdd47836040518263ffffffff1660e01b81526004016109649190611997565b60206040518083038186803b15801561097c57600080fd5b505afa158015610990573d6000803e3d6000fd5b505050506040513d601f19601f820116820180604052508101906109b49190611421565b6109f3576040517f08c379a00000000000000000000000000000000000000000000000000000000081526004016109ea90611917565b60405180910390fd5b7f000000000000000000000000000000000000000000000000000000000000000073ffffffffffffffffffffffffffffffffffffffff1663ed14ac9983336040518363ffffffff1660e01b8152600401610a4e9291906119b2565b60206040518083038186803b158015610a6657600080fd5b505afa158015610a7a573d6000803e3d6000fd5b505050506040513d601f19601f82011682018060405250810190610a9e9190611421565b610add576040517f08c379a0000000000000000000000000000000000000000000000000000000008152600401610ad4906118d7565b60405180910390fd5b60007f000000000000000000000000000000000000000000000000000000000000000073ffffffffffffffffffffffffffffffffffffffff1663b3febe1c846040518263ffffffff1660e01b8152600401610b389190611997565b60206040518083038186803b158015610b5057600080fd5b505afa158015610b64573d6000803e3d6000fd5b505050506040513d601f19601f82011682018060405250810190610b8891906113f8565b90508073ffffffffffffffffffffffffffffffffffffffff163373ffffffffffffffffffffffffffffffffffffffff1614610bf8576040517f08c379a0000000000000000000000000000000000000000000000000000000008152600401610bef90611937565b60405180910390fd5b60007f000000000000000000000000000000000000000000000000000000000000000073ffffffffffffffffffffffffffffffffffffffff166333a21dc1336040518263ffffffff1660e01b8152600401610c5391906117fd565b60206040518083038186803b158015610c6b57600080fd5b505afa158015610c7f573d6000803e3d6000fd5b505050506040513d601f19601f82011682018060405250810190610ca3919061144a565b905060007f000000000000000000000000000000000000000000000000000000000000000073ffffffffffffffffffffffffffffffffffffffff166333a21dc1856040518263ffffffff1660e01b8152600401610d0091906117fd565b60206040518083038186803b158015610d1857600080fd5b505afa158015610d2c573d6000803e3d6000fd5b505050506040513d601f19601f82011682018060405250810190610d50919061144a565b905060006003811115610d8c577f4e487b7100000000000000000000000000000000000000000000000000000000600052602160045260246000fd5b816003811115610dc5577f4e487b7100000000000000000000000000000000000000000000000000000000600052602160045260246000fd5b1415610e06576040517f08c379a0000000000000000000000000000000000000000000000000000000008152600401610dfd906118b7565b60405180910390fd5b60016003811115610e40577f4e487b7100000000000000000000000000000000000000000000000000000000600052602160045260246000fd5b826003811115610e79577f4e487b7100000000000000000000000000000000000000000000000000000000600052602160045260246000fd5b148015610ef6575060026003811115610ebb577f4e487b7100000000000000000000000000000000000000000000000000000000600052602160045260246000fd5b816003811115610ef4577f4e487b7100000000000000000000000000000000000000000000000000000000600052602160045260246000fd5b145b80610fec575060026003811115610f36577f4e487b7100000000000000000000000000000000000000000000000000000000600052602160045260246000fd5b826003811115610f6f577f4e487b7100000000000000000000000000000000000000000000000000000000600052602160045260246000fd5b148015610feb5750600380811115610fb0577f4e487b7100000000000000000000000000000000000000000000000000000000600052602160045260246000fd5b816003811115610fe9577f4e487b7100000000000000000000000000000000000000000000000000000000600052602160045260246000fd5b145b5b61102b576040517f08c379a000000000000000000000000000000000000000000000000000000000815260040161102290611957565b60405180910390fd5b7f000000000000000000000000000000000000000000000000000000000000000073ffffffffffffffffffffffffffffffffffffffff1663fc43ce1786866040518363ffffffff1660e01b81526004016110869291906119b2565b600060405180830381600087803b1580156110a057600080fd5b505af11580156110b4573d6000803e3d6000fd5b505050507f000000000000000000000000000000000000000000000000000000000000000073ffffffffffffffffffffffffffffffffffffffff1663c37e50ee86336040518363ffffffff1660e01b81526004016111139291906119b2565b600060405180830381600087803b15801561112d57600080fd5b505af1158015611141573d6000803e3d6000fd5b505050507f000000000000000000000000000000000000000000000000000000000000000073ffffffffffffffffffffffffffffffffffffffff166387949b7f86866040518363ffffffff1660e01b81526004016111a09291906119b2565b600060405180830381600087803b1580156111ba57600080fd5b505af11580156111ce573d6000803e3d6000fd5b505050507f000000000000000000000000000000000000000000000000000000000000000073ffffffffffffffffffffffffffffffffffffffff16634b2aaaf58633876040518463ffffffff1660e01b815260040161122f939291906119db565b600060405180830381600087803b15801561124957600080fd5b505af115801561125d573d6000803e3d6000fd5b50505050847f8761175769f4812fc1a3f00267fb069d1d176cbd8c2381dee3428be5f1f74a3b3386604051611293929190611818565b60405180910390a25050505050565b8280546112ae90611b4d565b90600052602060002090601f0160209004810192826112d05760008555611317565b82601f106112e957803560ff1916838001178555611317565b82800160010185558215611317579182015b828111156113165782358255916020019190600101906112fb565b5b5090506113249190611328565b5090565b5b80821115611341576000816000905550600101611329565b5090565b60008135905061135481611bbf565b92915050565b60008151905061136981611bbf565b92915050565b60008151905061137e81611bd6565b92915050565b60008151905061139381611bed565b92915050565b60008083601f8401126113ab57600080fd5b8235905067ffffffffffffffff8111156113c457600080fd5b6020830191508360018202830111156113dc57600080fd5b9250929050565b6000813590506113f281611bfd565b92915050565b60006020828403121561140a57600080fd5b60006114188482850161135a565b91505092915050565b60006020828403121561143357600080fd5b60006114418482850161136f565b91505092915050565b60006020828403121561145c57600080fd5b600061146a84828501611384565b91505092915050565b6000806040838503121561148657600080fd5b6000611494858286016113e3565b92505060206114a585828601611345565b9150509250929050565b6000806000604084860312156114c457600080fd5b60006114d2868287016113e3565b935050602084013567ffffffffffffffff8111156114ef57600080fd5b6114fb86828701611399565b92509250509250925092565b61151081611ac3565b82525050565b60006115228385611ab2565b935061152f838584611b0b565b61153883611bae565b840190509392505050565b600061154e82611aa7565b6115588185611ab2565b9350611568818560208601611b1a565b61157181611bae565b840191505092915050565b6000611589602783611ab2565b91507f536f6c6f2070726f647563746f7265732070756564656e20637265617220707260008301527f6f647563746f73000000000000000000000000000000000000000000000000006020830152604082019050919050565b60006115ef601a83611ab2565b91507f44657374696e61746172696f206e6f207265676973747261646f0000000000006000830152602082019050919050565b600061162f602e83611ab2565b91507f4e6f207469656e6573207065726d69736f2070617261206d6f6469666963617260008301527f20657374652070726f647563746f0000000000000000000000000000000000006020830152604082019050919050565b6000611695601583611ab2565b91507f5573756172696f206e6f207265676973747261646f00000000000000000000006000830152602082019050919050565b60006116d5601283611ab2565b91507f50726f647563746f206e6f2065786973746500000000000000000000000000006000830152602082019050919050565b6000611715601f83611ab2565b91507f4e6f206572657320717569656e20706f73656520656c2070726f647563746f006000830152602082019050919050565b6000611755602c83611ab2565b91507f5472616e73666572656e636961206e6f207065726d697469646120656e74726560008301527f206573746f7320726f6c657300000000000000000000000000000000000000006020830152604082019050919050565b60006117bb601283611ab2565b91507f50726f647563746f2079612065786973746500000000000000000000000000006000830152602082019050919050565b6117f781611b01565b82525050565b60006020820190506118126000830184611507565b92915050565b600060408201905061182d6000830185611507565b61183a6020830184611507565b9392505050565b6000602082019050818103600083015261185c818486611516565b90509392505050565b60006040820190508181036000830152611880818587611516565b905061188f6020830184611507565b949350505050565b600060208201905081810360008301526118b08161157c565b9050919050565b600060208201905081810360008301526118d0816115e2565b9050919050565b600060208201905081810360008301526118f081611622565b9050919050565b6000602082019050818103600083015261191081611688565b9050919050565b60006020820190508181036000830152611930816116c8565b9050919050565b6000602082019050818103600083015261195081611708565b9050919050565b6000602082019050818103600083015261197081611748565b9050919050565b60006020820190508181036000830152611990816117ae565b9050919050565b60006020820190506119ac60008301846117ee565b92915050565b60006040820190506119c760008301856117ee565b6119d46020830184611507565b9392505050565b60006060820190506119f060008301866117ee565b6119fd6020830185611507565b611a0a6040830184611507565b949350505050565b6000606082019050611a2760008301876117ee565b8181036020830152611a3a818587611516565b9050611a496040830184611507565b95945050505050565b6000608082019050611a6760008301886117ee565b8181036020830152611a798187611543565b90508181036040830152611a8e818587611516565b9050611a9d6060830184611507565b9695505050505050565b600081519050919050565b600082825260208201905092915050565b6000611ace82611ae1565b9050919050565b60008115159050919050565b600073ffffffffffffffffffffffffffffffffffffffff82169050919050565b6000819050919050565b82818337600083830152505050565b60005b83811015611b38578082015181840152602081019050611b1d565b83811115611b47576000848401525b50505050565b60006002820490506001821680611b6557607f821691505b60208210811415611b7957611b78611b7f565b5b50919050565b7f4e487b7100000000000000000000000000000000000000000000000000000000600052602260045260246000fd5b6000601f19601f8301169050919050565b611bc881611ac3565b8114611bd357600080fd5b50565b611bdf81611ad5565b8114611bea57600080fd5b50565b60048110611bfa57600080fd5b50565b611c0681611b01565b8114611c1157600080fd5b5056fea2646970667358221220e12ea2488837eb62b9977e18261db5a5dd8d09241c2b199e3352ddccee13117264736f6c63430008000033",
			"opcodes": "PUSH2 0x100 PUSH1 0x40 MSTORE CALLVALUE DUP1 ISZERO PUSH3 0x12 JUMPI PUSH1 0x0 DUP1 REVERT JUMPDEST POP PUSH1 0x40 MLOAD PUSH3 0x1ED9 CODESIZE SUB DUP1 PUSH3 0x1ED9 DUP4 CODECOPY DUP2 DUP2 ADD PUSH1 0x40 MSTORE DUP2 ADD SWAP1 PUSH3 0x38 SWAP2 SWAP1 PUSH3 0x135 JUMP JUMPDEST DUP4 PUSH20 0xFFFFFFFFFFFFFFFFFFFFFFFFFFFFFFFFFFFFFFFF AND PUSH1 0x80 DUP2 PUSH20 0xFFFFFFFFFFFFFFFFFFFFFFFFFFFFFFFFFFFFFFFF AND PUSH1 0x60 SHL DUP2 MSTORE POP POP DUP3 PUSH20 0xFFFFFFFFFFFFFFFFFFFFFFFFFFFFFFFFFFFFFFFF AND PUSH1 0xA0 DUP2 PUSH20 0xFFFFFFFFFFFFFFFFFFFFFFFFFFFFFFFFFFFFFFFF AND PUSH1 0x60 SHL DUP2 MSTORE POP POP DUP2 PUSH20 0xFFFFFFFFFFFFFFFFFFFFFFFFFFFFFFFFFFFFFFFF AND PUSH1 0xC0 DUP2 PUSH20 0xFFFFFFFFFFFFFFFFFFFFFFFFFFFFFFFFFFFFFFFF AND PUSH1 0x60 SHL DUP2 MSTORE POP POP DUP1 PUSH20 0xFFFFFFFFFFFFFFFFFFFFFFFFFFFFFFFFFFFFFFFF AND PUSH1 0xE0 DUP2 PUSH20 0xFFFFFFFFFFFFFFFFFFFFFFFFFFFFFFFFFFFFFFFF AND PUSH1 0x60 SHL DUP2 MSTORE POP POP POP POP POP POP PUSH3 0x1EF JUMP JUMPDEST PUSH1 0x0 DUP2 MLOAD SWAP1 POP PUSH3 0x12F DUP2 PUSH3 0x1D5 JUMP JUMPDEST SWAP3 SWAP2 POP POP JUMP JUMPDEST PUSH1 0x0 DUP1 PUSH1 0x0 DUP1 PUSH1 0x80 DUP6 DUP8 SUB SLT ISZERO PUSH3 0x14C JUMPI PUSH1 0x0 DUP1 REVERT JUMPDEST PUSH1 0x0 PUSH3 0x15C DUP8 DUP3 DUP9 ADD PUSH3 0x11E JUMP JUMPDEST SWAP5 POP POP PUSH1 0x20 PUSH3 0x16F DUP8 DUP3 DUP9 ADD PUSH3 0x11E JUMP JUMPDEST SWAP4 POP POP PUSH1 0x40 PUSH3 0x182 DUP8 DUP3 DUP9 ADD PUSH3 0x11E JUMP JUMPDEST SWAP3 POP POP PUSH1 0x60 PUSH3 0x195 DUP8 DUP3 DUP9 ADD PUSH3 0x11E JUMP JUMPDEST SWAP2 POP POP SWAP3 SWAP6 SWAP2 SWAP5 POP SWAP3 POP JUMP JUMPDEST PUSH1 0x0 PUSH3 0x1AE DUP3 PUSH3 0x1B5 JUMP JUMPDEST SWAP1 POP SWAP2 SWAP1 POP JUMP JUMPDEST PUSH1 0x0 PUSH20 0xFFFFFFFFFFFFFFFFFFFFFFFFFFFFFFFFFFFFFFFF DUP3 AND SWAP1 POP SWAP2 SWAP1 POP JUMP JUMPDEST PUSH3 0x1E0 DUP2 PUSH3 0x1A1 JUMP JUMPDEST DUP2 EQ PUSH3 0x1EC JUMPI PUSH1 0x0 DUP1 REVERT JUMPDEST POP JUMP JUMPDEST PUSH1 0x80 MLOAD PUSH1 0x60 SHR PUSH1 0xA0 MLOAD PUSH1 0x60 SHR PUSH1 0xC0 MLOAD PUSH1 0x60 SHR PUSH1 0xE0 MLOAD PUSH1 0x60 SHR PUSH2 0x1C4A PUSH3 0x28F PUSH1 0x0 CODECOPY PUSH1 0x0 DUP2 DUP2 PUSH2 0x839 ADD MSTORE PUSH2 0x11D4 ADD MSTORE PUSH1 0x0 DUP2 DUP2 PUSH2 0x376 ADD MSTORE DUP2 DUP2 PUSH2 0x52D ADD MSTORE DUP2 DUP2 PUSH2 0x9F5 ADD MSTORE DUP2 DUP2 PUSH2 0x10BA ADD MSTORE PUSH2 0x1147 ADD MSTORE PUSH1 0x0 DUP2 DUP2 PUSH1 0x9E ADD MSTORE DUP2 DUP2 PUSH2 0x619 ADD MSTORE DUP2 DUP2 PUSH2 0xBFC ADD MSTORE PUSH2 0xCA9 ADD MSTORE PUSH1 0x0 DUP2 DUP2 PUSH2 0x1FC ADD MSTORE DUP2 DUP2 PUSH2 0x2E5 ADD MSTORE DUP2 DUP2 PUSH2 0x445 ADD MSTORE DUP2 DUP2 PUSH2 0x90D ADD MSTORE DUP2 DUP2 PUSH2 0xAE1 ADD MSTORE PUSH2 0x102D ADD MSTORE PUSH2 0x1C4A PUSH1 0x0 RETURN INVALID PUSH1 0x80 PUSH1 0x40 MSTORE CALLVALUE DUP1 ISZERO PUSH2 0x10 JUMPI PUSH1 0x0 DUP1 REVERT JUMPDEST POP PUSH1 0x4 CALLDATASIZE LT PUSH2 0x41 JUMPI PUSH1 0x0 CALLDATALOAD PUSH1 0xE0 SHR DUP1 PUSH4 0xCBC5668 EQ PUSH2 0x46 JUMPI DUP1 PUSH4 0x5E6A5A63 EQ PUSH2 0x62 JUMPI DUP1 PUSH4 0x6ADD2DF9 EQ PUSH2 0x7E JUMPI JUMPDEST PUSH1 0x0 DUP1 REVERT JUMPDEST PUSH2 0x60 PUSH1 0x4 DUP1 CALLDATASIZE SUB DUP2 ADD SWAP1 PUSH2 0x5B SWAP2 SWAP1 PUSH2 0x14AF JUMP JUMPDEST PUSH2 0x9A JUMP JUMPDEST STOP JUMPDEST PUSH2 0x7C PUSH1 0x4 DUP1 CALLDATASIZE SUB DUP2 ADD SWAP1 PUSH2 0x77 SWAP2 SWAP1 PUSH2 0x14AF JUMP JUMPDEST PUSH2 0x443 JUMP JUMPDEST STOP JUMPDEST PUSH2 0x98 PUSH1 0x4 DUP1 CALLDATASIZE SUB DUP2 ADD SWAP1 PUSH2 0x93 SWAP2 SWAP1 PUSH2 0x1473 JUMP JUMPDEST PUSH2 0x90B JUMP JUMPDEST STOP JUMPDEST PUSH1 0x0 PUSH32 0x0 PUSH20 0xFFFFFFFFFFFFFFFFFFFFFFFFFFFFFFFFFFFFFFFF AND PUSH4 0x33A21DC1 CALLER PUSH1 0x40 MLOAD DUP3 PUSH4 0xFFFFFFFF AND PUSH1 0xE0 SHL DUP2 MSTORE PUSH1 0x4 ADD PUSH2 0xF5 SWAP2 SWAP1 PUSH2 0x17FD JUMP JUMPDEST PUSH1 0x20 PUSH1 0x40 MLOAD DUP1 DUP4 SUB DUP2 DUP7 DUP1 EXTCODESIZE ISZERO DUP1 ISZERO PUSH2 0x10D JUMPI PUSH1 0x0 DUP1 REVERT JUMPDEST POP GAS STATICCALL ISZERO DUP1 ISZERO PUSH2 0x121 JUMPI RETURNDATASIZE PUSH1 0x0 DUP1 RETURNDATACOPY RETURNDATASIZE PUSH1 0x0 REVERT JUMPDEST POP POP POP POP PUSH1 0x40 MLOAD RETURNDATASIZE PUSH1 0x1F NOT PUSH1 0x1F DUP3 ADD AND DUP3 ADD DUP1 PUSH1 0x40 MSTORE POP DUP2 ADD SWAP1 PUSH2 0x145 SWAP2 SWAP1 PUSH2 0x144A JUMP JUMPDEST SWAP1 POP PUSH1 0x1 PUSH1 0x3 DUP2 GT ISZERO PUSH2 0x181 JUMPI PUSH32 0x4E487B7100000000000000000000000000000000000000000000000000000000 PUSH1 0x0 MSTORE PUSH1 0x21 PUSH1 0x4 MSTORE PUSH1 0x24 PUSH1 0x0 REVERT JUMPDEST DUP2 PUSH1 0x3 DUP2 GT ISZERO PUSH2 0x1BA JUMPI PUSH32 0x4E487B7100000000000000000000000000000000000000000000000000000000 PUSH1 0x0 MSTORE PUSH1 0x21 PUSH1 0x4 MSTORE PUSH1 0x24 PUSH1 0x0 REVERT JUMPDEST EQ PUSH2 0x1FA JUMPI PUSH1 0x40 MLOAD PUSH32 0x8C379A000000000000000000000000000000000000000000000000000000000 DUP2 MSTORE PUSH1 0x4 ADD PUSH2 0x1F1 SWAP1 PUSH2 0x1897 JUMP JUMPDEST PUSH1 0x40 MLOAD DUP1 SWAP2 SUB SWAP1 REVERT JUMPDEST PUSH32 0x0 PUSH20 0xFFFFFFFFFFFFFFFFFFFFFFFFFFFFFFFFFFFFFFFF AND PUSH4 0x618FDD47 DUP6 PUSH1 0x40 MLOAD DUP3 PUSH4 0xFFFFFFFF AND PUSH1 0xE0 SHL DUP2 MSTORE PUSH1 0x4 ADD PUSH2 0x253 SWAP2 SWAP1 PUSH2 0x1997 JUMP JUMPDEST PUSH1 0x20 PUSH1 0x40 MLOAD DUP1 DUP4 SUB DUP2 DUP7 DUP1 EXTCODESIZE ISZERO DUP1 ISZERO PUSH2 0x26B JUMPI PUSH1 0x0 DUP1 REVERT JUMPDEST POP GAS STATICCALL ISZERO DUP1 ISZERO PUSH2 0x27F JUMPI RETURNDATASIZE PUSH1 0x0 DUP1 RETURNDATACOPY RETURNDATASIZE PUSH1 0x0 REVERT JUMPDEST POP POP POP POP PUSH1 0x40 MLOAD RETURNDATASIZE PUSH1 0x1F NOT PUSH1 0x1F DUP3 ADD AND DUP3 ADD DUP1 PUSH1 0x40 MSTORE POP DUP2 ADD SWAP1 PUSH2 0x2A3 SWAP2 SWAP1 PUSH2 0x1421 JUMP JUMPDEST ISZERO PUSH2 0x2E3 JUMPI PUSH1 0x40 MLOAD PUSH32 0x8C379A000000000000000000000000000000000000000000000000000000000 DUP2 MSTORE PUSH1 0x4 ADD PUSH2 0x2DA SWAP1 PUSH2 0x1977 JUMP JUMPDEST PUSH1 0x40 MLOAD DUP1 SWAP2 SUB SWAP1 REVERT JUMPDEST PUSH32 0x0 PUSH20 0xFFFFFFFFFFFFFFFFFFFFFFFFFFFFFFFFFFFFFFFF AND PUSH4 0x666ECFD0 DUP6 DUP6 DUP6 CALLER PUSH1 0x40 MLOAD DUP6 PUSH4 0xFFFFFFFF AND PUSH1 0xE0 SHL DUP2 MSTORE PUSH1 0x4 ADD PUSH2 0x342 SWAP5 SWAP4 SWAP3 SWAP2 SWAP1 PUSH2 0x1A12 JUMP JUMPDEST PUSH1 0x0 PUSH1 0x40 MLOAD DUP1 DUP4 SUB DUP2 PUSH1 0x0 DUP8 DUP1 EXTCODESIZE ISZERO DUP1 ISZERO PUSH2 0x35C JUMPI PUSH1 0x0 DUP1 REVERT JUMPDEST POP GAS CALL ISZERO DUP1 ISZERO PUSH2 0x370 JUMPI RETURNDATASIZE PUSH1 0x0 DUP1 RETURNDATACOPY RETURNDATASIZE PUSH1 0x0 REVERT JUMPDEST POP POP POP POP PUSH32 0x0 PUSH20 0xFFFFFFFFFFFFFFFFFFFFFFFFFFFFFFFFFFFFFFFF AND PUSH4 0x87949B7F DUP6 CALLER PUSH1 0x40 MLOAD DUP4 PUSH4 0xFFFFFFFF AND PUSH1 0xE0 SHL DUP2 MSTORE PUSH1 0x4 ADD PUSH2 0x3CF SWAP3 SWAP2 SWAP1 PUSH2 0x19B2 JUMP JUMPDEST PUSH1 0x0 PUSH1 0x40 MLOAD DUP1 DUP4 SUB DUP2 PUSH1 0x0 DUP8 DUP1 EXTCODESIZE ISZERO DUP1 ISZERO PUSH2 0x3E9 JUMPI PUSH1 0x0 DUP1 REVERT JUMPDEST POP GAS CALL ISZERO DUP1 ISZERO PUSH2 0x3FD JUMPI RETURNDATASIZE PUSH1 0x0 DUP1 RETURNDATACOPY RETURNDATASIZE PUSH1 0x0 REVERT JUMPDEST POP POP POP POP DUP4 PUSH32 0x47F31B1968929FD855DAA7CF13B31D0BEECE11B0F0F068AA6A77EA0CF4DB2607 DUP5 DUP5 CALLER PUSH1 0x40 MLOAD PUSH2 0x435 SWAP4 SWAP3 SWAP2 SWAP1 PUSH2 0x1865 JUMP JUMPDEST PUSH1 0x40 MLOAD DUP1 SWAP2 SUB SWAP1 LOG2 POP POP POP POP JUMP JUMPDEST PUSH32 0x0 PUSH20 0xFFFFFFFFFFFFFFFFFFFFFFFFFFFFFFFFFFFFFFFF AND PUSH4 0x618FDD47 DUP5 PUSH1 0x40 MLOAD DUP3 PUSH4 0xFFFFFFFF AND PUSH1 0xE0 SHL DUP2 MSTORE PUSH1 0x4 ADD PUSH2 0x49C SWAP2 SWAP1 PUSH2 0x1997 JUMP JUMPDEST PUSH1 0x20 PUSH1 0x40 MLOAD DUP1 DUP4 SUB DUP2 DUP7 DUP1 EXTCODESIZE ISZERO DUP1 ISZERO PUSH2 0x4B4 JUMPI PUSH1 0x0 DUP1 REVERT JUMPDEST POP GAS STATICCALL ISZERO DUP1 ISZERO PUSH2 0x4C8 JUMPI RETURNDATASIZE PUSH1 0x0 DUP1 RETURNDATACOPY RETURNDATASIZE PUSH1 0x0 REVERT JUMPDEST POP POP POP POP PUSH1 0x40 MLOAD RETURNDATASIZE PUSH1 0x1F NOT PUSH1 0x1F DUP3 ADD AND DUP3 ADD DUP1 PUSH1 0x40 MSTORE POP DUP2 ADD SWAP1 PUSH2 0x4EC SWAP2 SWAP1 PUSH2 0x1421 JUMP JUMPDEST PUSH2 0x52B JUMPI PUSH1 0x40 MLOAD PUSH32 0x8C379A000000000000000000000000000000000000000000000000000000000 DUP2 MSTORE PUSH1 0x4 ADD PUSH2 0x522 SWAP1 PUSH2 0x1917 JUMP JUMPDEST PUSH1 0x40 MLOAD DUP1 SWAP2 SUB SWAP1 REVERT JUMPDEST PUSH32 0x0 PUSH20 0xFFFFFFFFFFFFFFFFFFFFFFFFFFFFFFFFFFFFFFFF AND PUSH4 0xED14AC99 DUP5 CALLER PUSH1 0x40 MLOAD DUP4 PUSH4 0xFFFFFFFF AND PUSH1 0xE0 SHL DUP2 MSTORE PUSH1 0x4 ADD PUSH2 0x586 SWAP3 SWAP2 SWAP1 PUSH2 0x19B2 JUMP JUMPDEST PUSH1 0x20 PUSH1 0x40 MLOAD DUP1 DUP4 SUB DUP2 DUP7 DUP1 EXTCODESIZE ISZERO DUP1 ISZERO PUSH2 0x59E JUMPI PUSH1 0x0 DUP1 REVERT JUMPDEST POP GAS STATICCALL ISZERO DUP1 ISZERO PUSH2 0x5B2 JUMPI RETURNDATASIZE PUSH1 0x0 DUP1 RETURNDATACOPY RETURNDATASIZE PUSH1 0x0 REVERT JUMPDEST POP POP POP POP PUSH1 0x40 MLOAD RETURNDATASIZE PUSH1 0x1F NOT PUSH1 0x1F DUP3 ADD AND DUP3 ADD DUP1 PUSH1 0x40 MSTORE POP DUP2 ADD SWAP1 PUSH2 0x5D6 SWAP2 SWAP1 PUSH2 0x1421 JUMP JUMPDEST PUSH2 0x615 JUMPI PUSH1 0x40 MLOAD PUSH32 0x8C379A000000000000000000000000000000000000000000000000000000000 DUP2 MSTORE PUSH1 0x4 ADD PUSH2 0x60C SWAP1 PUSH2 0x18D7 JUMP JUMPDEST PUSH1 0x40 MLOAD DUP1 SWAP2 SUB SWAP1 REVERT JUMPDEST PUSH1 0x0 PUSH32 0x0 PUSH20 0xFFFFFFFFFFFFFFFFFFFFFFFFFFFFFFFFFFFFFFFF AND PUSH4 0x33A21DC1 CALLER PUSH1 0x40 MLOAD DUP3 PUSH4 0xFFFFFFFF AND PUSH1 0xE0 SHL DUP2 MSTORE PUSH1 0x4 ADD PUSH2 0x670 SWAP2 SWAP1 PUSH2 0x17FD JUMP JUMPDEST PUSH1 0x20 PUSH1 0x40 MLOAD DUP1 DUP4 SUB DUP2 DUP7 DUP1 EXTCODESIZE ISZERO DUP1 ISZERO PUSH2 0x688 JUMPI PUSH1 0x0 DUP1 REVERT JUMPDEST POP GAS STATICCALL ISZERO DUP1 ISZERO PUSH2 0x69C JUMPI RETURNDATASIZE PUSH1 0x0 DUP1 RETURNDATACOPY RETURNDATASIZE PUSH1 0x0 REVERT JUMPDEST POP POP POP POP PUSH1 0x40 MLOAD RETURNDATASIZE PUSH1 0x1F NOT PUSH1 0x1F DUP3 ADD AND DUP3 ADD DUP1 PUSH1 0x40 MSTORE POP DUP2 ADD SWAP1 PUSH2 0x6C0 SWAP2 SWAP1 PUSH2 0x144A JUMP JUMPDEST SWAP1 POP PUSH1 0x0 PUSH1 0x3 DUP2 GT ISZERO PUSH2 0x6FC JUMPI PUSH32 0x4E487B7100000000000000000000000000000000000000000000000000000000 PUSH1 0x0 MSTORE PUSH1 0x21 PUSH1 0x4 MSTORE PUSH1 0x24 PUSH1 0x0 REVERT JUMPDEST DUP2 PUSH1 0x3 DUP2 GT ISZERO PUSH2 0x735 JUMPI PUSH32 0x4E487B7100000000000000000000000000000000000000000000000000000000 PUSH1 0x0 MSTORE PUSH1 0x21 PUSH1 0x4 MSTORE PUSH1 0x24 PUSH1 0x0 REVERT JUMPDEST EQ ISZERO PUSH2 0x776 JUMPI PUSH1 0x40 MLOAD PUSH32 0x8C379A000000000000000000000000000000000000000000000000000000000 DUP2 MSTORE PUSH1 0x4 ADD PUSH2 0x76D SWAP1 PUSH2 0x18F7 JUMP JUMPDEST PUSH1 0x40 MLOAD DUP1 SWAP2 SUB SWAP1 REVERT JUMPDEST PUSH1 0x0 DUP1 PUSH1 0x0 DUP7 DUP2 MSTORE PUSH1 0x20 ADD SWAP1 DUP2 MSTORE PUSH1 0x20 ADD PUSH1 0x0 KECCAK256 DUP1 SLOAD PUSH2 0x795 SWAP1 PUSH2 0x1B4D JUMP JUMPDEST DUP1 PUSH1 0x1F ADD PUSH1 0x20 DUP1 SWAP2 DIV MUL PUSH1 0x20 ADD PUSH1 0x40 MLOAD SWAP1 DUP2 ADD PUSH1 0x40 MSTORE DUP1 SWAP3 SWAP2 SWAP1 DUP2 DUP2 MSTORE PUSH1 0x20 ADD DUP3 DUP1 SLOAD PUSH2 0x7C1 SWAP1 PUSH2 0x1B4D JUMP JUMPDEST DUP1 ISZERO PUSH2 0x80E JUMPI DUP1 PUSH1 0x1F LT PUSH2 0x7E3 JUMPI PUSH2 0x100 DUP1 DUP4 SLOAD DIV MUL DUP4 MSTORE SWAP2 PUSH1 0x20 ADD SWAP2 PUSH2 0x80E JUMP JUMPDEST DUP3 ADD SWAP2 SWAP1 PUSH1 0x0 MSTORE PUSH1 0x20 PUSH1 0x0 KECCAK256 SWAP1 JUMPDEST DUP2 SLOAD DUP2 MSTORE SWAP1 PUSH1 0x1 ADD SWAP1 PUSH1 0x20 ADD DUP1 DUP4 GT PUSH2 0x7F1 JUMPI DUP3 SWAP1 SUB PUSH1 0x1F AND DUP3 ADD SWAP2 JUMPDEST POP POP POP POP POP SWAP1 POP DUP4 DUP4 PUSH1 0x0 DUP1 DUP9 DUP2 MSTORE PUSH1 0x20 ADD SWAP1 DUP2 MSTORE PUSH1 0x20 ADD PUSH1 0x0 KECCAK256 SWAP2 SWAP1 PUSH2 0x836 SWAP3 SWAP2 SWAP1 PUSH2 0x12A2 JUMP JUMPDEST POP PUSH32 0x0 PUSH20 0xFFFFFFFFFFFFFFFFFFFFFFFFFFFFFFFFFFFFFFFF AND PUSH4 0xD3DDA4F9 DUP7 DUP4 DUP8 DUP8 CALLER PUSH1 0x40 MLOAD DUP7 PUSH4 0xFFFFFFFF AND PUSH1 0xE0 SHL DUP2 MSTORE PUSH1 0x4 ADD PUSH2 0x898 SWAP6 SWAP5 SWAP4 SWAP3 SWAP2 SWAP1 PUSH2 0x1A52 JUMP JUMPDEST PUSH1 0x0 PUSH1 0x40 MLOAD DUP1 DUP4 SUB DUP2 PUSH1 0x0 DUP8 DUP1 EXTCODESIZE ISZERO DUP1 ISZERO PUSH2 0x8B2 JUMPI PUSH1 0x0 DUP1 REVERT JUMPDEST POP GAS CALL ISZERO DUP1 ISZERO PUSH2 0x8C6 JUMPI RETURNDATASIZE PUSH1 0x0 DUP1 RETURNDATACOPY RETURNDATASIZE PUSH1 0x0 REVERT JUMPDEST POP POP POP POP DUP5 PUSH32 0xECFC98CDD416BD6051E028DA16E26F6512ADCEDDA6B875A1B7A4097E6B4888C8 DUP6 DUP6 PUSH1 0x40 MLOAD PUSH2 0x8FC SWAP3 SWAP2 SWAP1 PUSH2 0x1841 JUMP JUMPDEST PUSH1 0x40 MLOAD DUP1 SWAP2 SUB SWAP1 LOG2 POP POP POP POP POP JUMP JUMPDEST PUSH32 0x0 PUSH20 0xFFFFFFFFFFFFFFFFFFFFFFFFFFFFFFFFFFFFFFFF AND PUSH4 0x618FDD47 DUP4 PUSH1 0x40 MLOAD DUP3 PUSH4 0xFFFFFFFF AND PUSH1 0xE0 SHL DUP2 MSTORE PUSH1 0x4 ADD PUSH2 0x964 SWAP2 SWAP1 PUSH2 0x1997 JUMP JUMPDEST PUSH1 0x20 PUSH1 0x40 MLOAD DUP1 DUP4 SUB DUP2 DUP7 DUP1 EXTCODESIZE ISZERO DUP1 ISZERO PUSH2 0x97C JUMPI PUSH1 0x0 DUP1 REVERT JUMPDEST POP GAS STATICCALL ISZERO DUP1 ISZERO PUSH2 0x990 JUMPI RETURNDATASIZE PUSH1 0x0 DUP1 RETURNDATACOPY RETURNDATASIZE PUSH1 0x0 REVERT JUMPDEST POP POP POP POP PUSH1 0x40 MLOAD RETURNDATASIZE PUSH1 0x1F NOT PUSH1 0x1F DUP3 ADD AND DUP3 ADD DUP1 PUSH1 0x40 MSTORE POP DUP2 ADD SWAP1 PUSH2 0x9B4 SWAP2 SWAP1 PUSH2 0x1421 JUMP JUMPDEST PUSH2 0x9F3 JUMPI PUSH1 0x40 MLOAD PUSH32 0x8C379A000000000000000000000000000000000000000000000000000000000 DUP2 MSTORE PUSH1 0x4 ADD PUSH2 0x9EA SWAP1 PUSH2 0x1917 JUMP JUMPDEST PUSH1 0x40 MLOAD DUP1 SWAP2 SUB SWAP1 REVERT JUMPDEST PUSH32 0x0 PUSH20 0xFFFFFFFFFFFFFFFFFFFFFFFFFFFFFFFFFFFFFFFF AND PUSH4 0xED14AC99 DUP4 CALLER PUSH1 0x40 MLOAD DUP4 PUSH4 0xFFFFFFFF AND PUSH1 0xE0 SHL DUP2 MSTORE PUSH1 0x4 ADD PUSH2 0xA4E SWAP3 SWAP2 SWAP1 PUSH2 0x19B2 JUMP JUMPDEST PUSH1 0x20 PUSH1 0x40 MLOAD DUP1 DUP4 SUB DUP2 DUP7 DUP1 EXTCODESIZE ISZERO DUP1 ISZERO PUSH2 0xA66 JUMPI PUSH1 0x0 DUP1 REVERT JUMPDEST POP GAS STATICCALL ISZERO DUP1 ISZERO PUSH2 0xA7A JUMPI RETURNDATASIZE PUSH1 0x0 DUP1 RETURNDATACOPY RETURNDATASIZE PUSH1 0x0 REVERT JUMPDEST POP POP POP POP PUSH1 0x40 MLOAD RETURNDATASIZE PUSH1 0x1F NOT PUSH1 0x1F DUP3 ADD AND DUP3 ADD DUP1 PUSH1 0x40 MSTORE POP DUP2 ADD SWAP1 PUSH2 0xA9E SWAP2 SWAP1 PUSH2 0x1421 JUMP JUMPDEST PUSH2 0xADD JUMPI PUSH1 0x40 MLOAD PUSH32 0x8C379A000000000000000000000000000000000000000000000000000000000 DUP2 MSTORE PUSH1 0x4 ADD PUSH2 0xAD4 SWAP1 PUSH2 0x18D7 JUMP JUMPDEST PUSH1 0x40 MLOAD DUP1 SWAP2 SUB SWAP1 REVERT JUMPDEST PUSH1 0x0 PUSH32 0x0 PUSH20 0xFFFFFFFFFFFFFFFFFFFFFFFFFFFFFFFFFFFFFFFF AND PUSH4 0xB3FEBE1C DUP5 PUSH1 0x40 MLOAD DUP3 PUSH4 0xFFFFFFFF AND PUSH1 0xE0 SHL DUP2 MSTORE PUSH1 0x4 ADD PUSH2 0xB38 SWAP2 SWAP1 PUSH2 0x1997 JUMP JUMPDEST PUSH1 0x20 PUSH1 0x40 MLOAD DUP1 DUP4 SUB DUP2 DUP7 DUP1 EXTCODESIZE ISZERO DUP1 ISZERO PUSH2 0xB50 JUMPI PUSH1 0x0 DUP1 REVERT JUMPDEST POP GAS STATICCALL ISZERO DUP1 ISZERO PUSH2 0xB64 JUMPI RETURNDATASIZE PUSH1 0x0 DUP1 RETURNDATACOPY RETURNDATASIZE PUSH1 0x0 REVERT JUMPDEST POP POP POP POP PUSH1 0x40 MLOAD RETURNDATASIZE PUSH1 0x1F NOT PUSH1 0x1F DUP3 ADD AND DUP3 ADD DUP1 PUSH1 0x40 MSTORE POP DUP2 ADD SWAP1 PUSH2 0xB88 SWAP2 SWAP1 PUSH2 0x13F8 JUMP JUMPDEST SWAP1 POP DUP1 PUSH20 0xFFFFFFFFFFFFFFFFFFFFFFFFFFFFFFFFFFFFFFFF AND CALLER PUSH20 0xFFFFFFFFFFFFFFFFFFFFFFFFFFFFFFFFFFFFFFFF AND EQ PUSH2 0xBF8 JUMPI PUSH1 0x40 MLOAD PUSH32 0x8C379A000000000000000000000000000000000000000000000000000000000 DUP2 MSTORE PUSH1 0x4 ADD PUSH2 0xBEF SWAP1 PUSH2 0x1937 JUMP JUMPDEST PUSH1 0x40 MLOAD DUP1 SWAP2 SUB SWAP1 REVERT JUMPDEST PUSH1 0x0 PUSH32 0x0 PUSH20 0xFFFFFFFFFFFFFFFFFFFFFFFFFFFFFFFFFFFFFFFF AND PUSH4 0x33A21DC1 CALLER PUSH1 0x40 MLOAD DUP3 PUSH4 0xFFFFFFFF AND PUSH1 0xE0 SHL DUP2 MSTORE PUSH1 0x4 ADD PUSH2 0xC53 SWAP2 SWAP1 PUSH2 0x17FD JUMP JUMPDEST PUSH1 0x20 PUSH1 0x40 MLOAD DUP1 DUP4 SUB DUP2 DUP7 DUP1 EXTCODESIZE ISZERO DUP1 ISZERO PUSH2 0xC6B JUMPI PUSH1 0x0 DUP1 REVERT JUMPDEST POP GAS STATICCALL ISZERO DUP1 ISZERO PUSH2 0xC7F JUMPI RETURNDATASIZE PUSH1 0x0 DUP1 RETURNDATACOPY RETURNDATASIZE PUSH1 0x0 REVERT JUMPDEST POP POP POP POP PUSH1 0x40 MLOAD RETURNDATASIZE PUSH1 0x1F NOT PUSH1 0x1F DUP3 ADD AND DUP3 ADD DUP1 PUSH1 0x40 MSTORE POP DUP2 ADD SWAP1 PUSH2 0xCA3 SWAP2 SWAP1 PUSH2 0x144A JUMP JUMPDEST SWAP1 POP PUSH1 0x0 PUSH32 0x0 PUSH20 0xFFFFFFFFFFFFFFFFFFFFFFFFFFFFFFFFFFFFFFFF AND PUSH4 0x33A21DC1 DUP6 PUSH1 0x40 MLOAD DUP3 PUSH4 0xFFFFFFFF AND PUSH1 0xE0 SHL DUP2 MSTORE PUSH1 0x4 ADD PUSH2 0xD00 SWAP2 SWAP1 PUSH2 0x17FD JUMP JUMPDEST PUSH1 0x20 PUSH1 0x40 MLOAD DUP1 DUP4 SUB DUP2 DUP7 DUP1 EXTCODESIZE ISZERO DUP1 ISZERO PUSH2 0xD18 JUMPI PUSH1 0x0 DUP1 REVERT JUMPDEST POP GAS STATICCALL ISZERO DUP1 ISZERO PUSH2 0xD2C JUMPI RETURNDATASIZE PUSH1 0x0 DUP1 RETURNDATACOPY RETURNDATASIZE PUSH1 0x0 REVERT JUMPDEST POP POP POP POP PUSH1 0x40 MLOAD RETURNDATASIZE PUSH1 0x1F NOT PUSH1 0x1F DUP3 ADD AND DUP3 ADD DUP1 PUSH1 0x40 MSTORE POP DUP2 ADD SWAP1 PUSH2 0xD50 SWAP2 SWAP1 PUSH2 0x144A JUMP JUMPDEST SWAP1 POP PUSH1 0x0 PUSH1 0x3 DUP2 GT ISZERO PUSH2 0xD8C JUMPI PUSH32 0x4E487B7100000000000000000000000000000000000000000000000000000000 PUSH1 0x0 MSTORE PUSH1 0x21 PUSH1 0x4 MSTORE PUSH1 0x24 PUSH1 0x0 REVERT JUMPDEST DUP2 PUSH1 0x3 DUP2 GT ISZERO PUSH2 0xDC5 JUMPI PUSH32 0x4E487B7100000000000000000000000000000000000000000000000000000000 PUSH1 0x0 MSTORE PUSH1 0x21 PUSH1 0x4 MSTORE PUSH1 0x24 PUSH1 0x0 REVERT JUMPDEST EQ ISZERO PUSH2 0xE06 JUMPI PUSH1 0x40 MLOAD PUSH32 0x8C379A000000000000000000000000000000000000000000000000000000000 DUP2 MSTORE PUSH1 0x4 ADD PUSH2 0xDFD SWAP1 PUSH2 0x18B7 JUMP JUMPDEST PUSH1 0x40 MLOAD DUP1 SWAP2 SUB SWAP1 REVERT JUMPDEST PUSH1 0x1 PUSH1 0x3 DUP2 GT ISZERO PUSH2 0xE40 JUMPI PUSH32 0x4E487B7100000000000000000000000000000000000000000000000000000000 PUSH1 0x0 MSTORE PUSH1 0x21 PUSH1 0x4 MSTORE PUSH1 0x24 PUSH1 0x0 REVERT JUMPDEST DUP3 PUSH1 0x3 DUP2 GT ISZERO PUSH2 0xE79 JUMPI PUSH32 0x4E487B7100000000000000000000000000000000000000000000000000000000 PUSH1 0x0 MSTORE PUSH1 0x21 PUSH1 0x4 MSTORE PUSH1 0x24 PUSH1 0x0 REVERT JUMPDEST EQ DUP1 ISZERO PUSH2 0xEF6 JUMPI POP PUSH1 0x2 PUSH1 0x3 DUP2 GT ISZERO PUSH2 0xEBB JUMPI PUSH32 0x4E487B7100000000000000000000000000000000000000000000000000000000 PUSH1 0x0 MSTORE PUSH1 0x21 PUSH1 0x4 MSTORE PUSH1 0x24 PUSH1 0x0 REVERT JUMPDEST DUP2 PUSH1 0x3 DUP2 GT ISZERO PUSH2 0xEF4 JUMPI PUSH32 0x4E487B7100000000000000000000000000000000000000000000000000000000 PUSH1 0x0 MSTORE PUSH1 0x21 PUSH1 0x4 MSTORE PUSH1 0x24 PUSH1 0x0 REVERT JUMPDEST EQ JUMPDEST DUP1 PUSH2 0xFEC JUMPI POP PUSH1 0x2 PUSH1 0x3 DUP2 GT ISZERO PUSH2 0xF36 JUMPI PUSH32 0x4E487B7100000000000000000000000000000000000000000000000000000000 PUSH1 0x0 MSTORE PUSH1 0x21 PUSH1 0x4 MSTORE PUSH1 0x24 PUSH1 0x0 REVERT JUMPDEST DUP3 PUSH1 0x3 DUP2 GT ISZERO PUSH2 0xF6F JUMPI PUSH32 0x4E487B7100000000000000000000000000000000000000000000000000000000 PUSH1 0x0 MSTORE PUSH1 0x21 PUSH1 0x4 MSTORE PUSH1 0x24 PUSH1 0x0 REVERT JUMPDEST EQ DUP1 ISZERO PUSH2 0xFEB JUMPI POP PUSH1 0x3 DUP1 DUP2 GT ISZERO PUSH2 0xFB0 JUMPI PUSH32 0x4E487B7100000000000000000000000000000000000000000000000000000000 PUSH1 0x0 MSTORE PUSH1 0x21 PUSH1 0x4 MSTORE PUSH1 0x24 PUSH1 0x0 REVERT JUMPDEST DUP2 PUSH1 0x3 DUP2 GT ISZERO PUSH2 0xFE9 JUMPI PUSH32 0x4E487B7100000000000000000000000000000000000000000000000000000000 PUSH1 0x0 MSTORE PUSH1 0x21 PUSH1 0x4 MSTORE PUSH1 0x24 PUSH1 0x0 REVERT JUMPDEST EQ JUMPDEST JUMPDEST PUSH2 0x102B JUMPI PUSH1 0x40 MLOAD PUSH32 0x8C379A000000000000000000000000000000000000000000000000000000000 DUP2 MSTORE PUSH1 0x4 ADD PUSH2 0x1022 SWAP1 PUSH2 0x1957 JUMP JUMPDEST PUSH1 0x40 MLOAD DUP1 SWAP2 SUB SWAP1 REVERT JUMPDEST PUSH32 0x0 PUSH20 0xFFFFFFFFFFFFFFFFFFFFFFFFFFFFFFFFFFFFFFFF AND PUSH4 0xFC43CE17 DUP7 DUP7 PUSH1 0x40 MLOAD DUP4 PUSH4 0xFFFFFFFF AND PUSH1 0xE0 SHL DUP2 MSTORE PUSH1 0x4 ADD PUSH2 0x1086 SWAP3 SWAP2 SWAP1 PUSH2 0x19B2 JUMP JUMPDEST PUSH1 0x0 PUSH1 0x40 MLOAD DUP1 DUP4 SUB DUP2 PUSH1 0x0 DUP8 DUP1 EXTCODESIZE ISZERO DUP1 ISZERO PUSH2 0x10A0 JUMPI PUSH1 0x0 DUP1 REVERT JUMPDEST POP GAS CALL ISZERO DUP1 ISZERO PUSH2 0x10B4 JUMPI RETURNDATASIZE PUSH1 0x0 DUP1 RETURNDATACOPY RETURNDATASIZE PUSH1 0x0 REVERT JUMPDEST POP POP POP POP PUSH32 0x0 PUSH20 0xFFFFFFFFFFFFFFFFFFFFFFFFFFFFFFFFFFFFFFFF AND PUSH4 0xC37E50EE DUP7 CALLER PUSH1 0x40 MLOAD DUP4 PUSH4 0xFFFFFFFF AND PUSH1 0xE0 SHL DUP2 MSTORE PUSH1 0x4 ADD PUSH2 0x1113 SWAP3 SWAP2 SWAP1 PUSH2 0x19B2 JUMP JUMPDEST PUSH1 0x0 PUSH1 0x40 MLOAD DUP1 DUP4 SUB DUP2 PUSH1 0x0 DUP8 DUP1 EXTCODESIZE ISZERO DUP1 ISZERO PUSH2 0x112D JUMPI PUSH1 0x0 DUP1 REVERT JUMPDEST POP GAS CALL ISZERO DUP1 ISZERO PUSH2 0x1141 JUMPI RETURNDATASIZE PUSH1 0x0 DUP1 RETURNDATACOPY RETURNDATASIZE PUSH1 0x0 REVERT JUMPDEST POP POP POP POP PUSH32 0x0 PUSH20 0xFFFFFFFFFFFFFFFFFFFFFFFFFFFFFFFFFFFFFFFF AND PUSH4 0x87949B7F DUP7 DUP7 PUSH1 0x40 MLOAD DUP4 PUSH4 0xFFFFFFFF AND PUSH1 0xE0 SHL DUP2 MSTORE PUSH1 0x4 ADD PUSH2 0x11A0 SWAP3 SWAP2 SWAP1 PUSH2 0x19B2 JUMP JUMPDEST PUSH1 0x0 PUSH1 0x40 MLOAD DUP1 DUP4 SUB DUP2 PUSH1 0x0 DUP8 DUP1 EXTCODESIZE ISZERO DUP1 ISZERO PUSH2 0x11BA JUMPI PUSH1 0x0 DUP1 REVERT JUMPDEST POP GAS CALL ISZERO DUP1 ISZERO PUSH2 0x11CE JUMPI RETURNDATASIZE PUSH1 0x0 DUP1 RETURNDATACOPY RETURNDATASIZE PUSH1 0x0 REVERT JUMPDEST POP POP POP POP PUSH32 0x0 PUSH20 0xFFFFFFFFFFFFFFFFFFFFFFFFFFFFFFFFFFFFFFFF AND PUSH4 0x4B2AAAF5 DUP7 CALLER DUP8 PUSH1 0x40 MLOAD DUP5 PUSH4 0xFFFFFFFF AND PUSH1 0xE0 SHL DUP2 MSTORE PUSH1 0x4 ADD PUSH2 0x122F SWAP4 SWAP3 SWAP2 SWAP1 PUSH2 0x19DB JUMP JUMPDEST PUSH1 0x0 PUSH1 0x40 MLOAD DUP1 DUP4 SUB DUP2 PUSH1 0x0 DUP8 DUP1 EXTCODESIZE ISZERO DUP1 ISZERO PUSH2 0x1249 JUMPI PUSH1 0x0 DUP1 REVERT JUMPDEST POP GAS CALL ISZERO DUP1 ISZERO PUSH2 0x125D JUMPI RETURNDATASIZE PUSH1 0x0 DUP1 RETURNDATACOPY RETURNDATASIZE PUSH1 0x0 REVERT JUMPDEST POP POP POP POP DUP5 PUSH32 0x8761175769F4812FC1A3F00267FB069D1D176CBD8C2381DEE3428BE5F1F74A3B CALLER DUP7 PUSH1 0x40 MLOAD PUSH2 0x1293 SWAP3 SWAP2 SWAP1 PUSH2 0x1818 JUMP JUMPDEST PUSH1 0x40 MLOAD DUP1 SWAP2 SUB SWAP1 LOG2 POP POP POP POP POP JUMP JUMPDEST DUP3 DUP1 SLOAD PUSH2 0x12AE SWAP1 PUSH2 0x1B4D JUMP JUMPDEST SWAP1 PUSH1 0x0 MSTORE PUSH1 0x20 PUSH1 0x0 KECCAK256 SWAP1 PUSH1 0x1F ADD PUSH1 0x20 SWAP1 DIV DUP2 ADD SWAP3 DUP3 PUSH2 0x12D0 JUMPI PUSH1 0x0 DUP6 SSTORE PUSH2 0x1317 JUMP JUMPDEST DUP3 PUSH1 0x1F LT PUSH2 0x12E9 JUMPI DUP1 CALLDATALOAD PUSH1 0xFF NOT AND DUP4 DUP1 ADD OR DUP6 SSTORE PUSH2 0x1317 JUMP JUMPDEST DUP3 DUP1 ADD PUSH1 0x1 ADD DUP6 SSTORE DUP3 ISZERO PUSH2 0x1317 JUMPI SWAP2 DUP3 ADD JUMPDEST DUP3 DUP2 GT ISZERO PUSH2 0x1316 JUMPI DUP3 CALLDATALOAD DUP3 SSTORE SWAP2 PUSH1 0x20 ADD SWAP2 SWAP1 PUSH1 0x1 ADD SWAP1 PUSH2 0x12FB JUMP JUMPDEST JUMPDEST POP SWAP1 POP PUSH2 0x1324 SWAP2 SWAP1 PUSH2 0x1328 JUMP JUMPDEST POP SWAP1 JUMP JUMPDEST JUMPDEST DUP1 DUP3 GT ISZERO PUSH2 0x1341 JUMPI PUSH1 0x0 DUP2 PUSH1 0x0 SWAP1 SSTORE POP PUSH1 0x1 ADD PUSH2 0x1329 JUMP JUMPDEST POP SWAP1 JUMP JUMPDEST PUSH1 0x0 DUP2 CALLDATALOAD SWAP1 POP PUSH2 0x1354 DUP2 PUSH2 0x1BBF JUMP JUMPDEST SWAP3 SWAP2 POP POP JUMP JUMPDEST PUSH1 0x0 DUP2 MLOAD SWAP1 POP PUSH2 0x1369 DUP2 PUSH2 0x1BBF JUMP JUMPDEST SWAP3 SWAP2 POP POP JUMP JUMPDEST PUSH1 0x0 DUP2 MLOAD SWAP1 POP PUSH2 0x137E DUP2 PUSH2 0x1BD6 JUMP JUMPDEST SWAP3 SWAP2 POP POP JUMP JUMPDEST PUSH1 0x0 DUP2 MLOAD SWAP1 POP PUSH2 0x1393 DUP2 PUSH2 0x1BED JUMP JUMPDEST SWAP3 SWAP2 POP POP JUMP JUMPDEST PUSH1 0x0 DUP1 DUP4 PUSH1 0x1F DUP5 ADD SLT PUSH2 0x13AB JUMPI PUSH1 0x0 DUP1 REVERT JUMPDEST DUP3 CALLDATALOAD SWAP1 POP PUSH8 0xFFFFFFFFFFFFFFFF DUP2 GT ISZERO PUSH2 0x13C4 JUMPI PUSH1 0x0 DUP1 REVERT JUMPDEST PUSH1 0x20 DUP4 ADD SWAP2 POP DUP4 PUSH1 0x1 DUP3 MUL DUP4 ADD GT ISZERO PUSH2 0x13DC JUMPI PUSH1 0x0 DUP1 REVERT JUMPDEST SWAP3 POP SWAP3 SWAP1 POP JUMP JUMPDEST PUSH1 0x0 DUP2 CALLDATALOAD SWAP1 POP PUSH2 0x13F2 DUP2 PUSH2 0x1BFD JUMP JUMPDEST SWAP3 SWAP2 POP POP JUMP JUMPDEST PUSH1 0x0 PUSH1 0x20 DUP3 DUP5 SUB SLT ISZERO PUSH2 0x140A JUMPI PUSH1 0x0 DUP1 REVERT JUMPDEST PUSH1 0x0 PUSH2 0x1418 DUP5 DUP3 DUP6 ADD PUSH2 0x135A JUMP JUMPDEST SWAP2 POP POP SWAP3 SWAP2 POP POP JUMP JUMPDEST PUSH1 0x0 PUSH1 0x20 DUP3 DUP5 SUB SLT ISZERO PUSH2 0x1433 JUMPI PUSH1 0x0 DUP1 REVERT JUMPDEST PUSH1 0x0 PUSH2 0x1441 DUP5 DUP3 DUP6 ADD PUSH2 0x136F JUMP JUMPDEST SWAP2 POP POP SWAP3 SWAP2 POP POP JUMP JUMPDEST PUSH1 0x0 PUSH1 0x20 DUP3 DUP5 SUB SLT ISZERO PUSH2 0x145C JUMPI PUSH1 0x0 DUP1 REVERT JUMPDEST PUSH1 0x0 PUSH2 0x146A DUP5 DUP3 DUP6 ADD PUSH2 0x1384 JUMP JUMPDEST SWAP2 POP POP SWAP3 SWAP2 POP POP JUMP JUMPDEST PUSH1 0x0 DUP1 PUSH1 0x40 DUP4 DUP6 SUB SLT ISZERO PUSH2 0x1486 JUMPI PUSH1 0x0 DUP1 REVERT JUMPDEST PUSH1 0x0 PUSH2 0x1494 DUP6 DUP3 DUP7 ADD PUSH2 0x13E3 JUMP JUMPDEST SWAP3 POP POP PUSH1 0x20 PUSH2 0x14A5 DUP6 DUP3 DUP7 ADD PUSH2 0x1345 JUMP JUMPDEST SWAP2 POP POP SWAP3 POP SWAP3 SWAP1 POP JUMP JUMPDEST PUSH1 0x0 DUP1 PUSH1 0x0 PUSH1 0x40 DUP5 DUP7 SUB SLT ISZERO PUSH2 0x14C4 JUMPI PUSH1 0x0 DUP1 REVERT JUMPDEST PUSH1 0x0 PUSH2 0x14D2 DUP7 DUP3 DUP8 ADD PUSH2 0x13E3 JUMP JUMPDEST SWAP4 POP POP PUSH1 0x20 DUP5 ADD CALLDATALOAD PUSH8 0xFFFFFFFFFFFFFFFF DUP2 GT ISZERO PUSH2 0x14EF JUMPI PUSH1 0x0 DUP1 REVERT JUMPDEST PUSH2 0x14FB DUP7 DUP3 DUP8 ADD PUSH2 0x1399 JUMP JUMPDEST SWAP3 POP SWAP3 POP POP SWAP3 POP SWAP3 POP SWAP3 JUMP JUMPDEST PUSH2 0x1510 DUP2 PUSH2 0x1AC3 JUMP JUMPDEST DUP3 MSTORE POP POP JUMP JUMPDEST PUSH1 0x0 PUSH2 0x1522 DUP4 DUP6 PUSH2 0x1AB2 JUMP JUMPDEST SWAP4 POP PUSH2 0x152F DUP4 DUP6 DUP5 PUSH2 0x1B0B JUMP JUMPDEST PUSH2 0x1538 DUP4 PUSH2 0x1BAE JUMP JUMPDEST DUP5 ADD SWAP1 POP SWAP4 SWAP3 POP POP POP JUMP JUMPDEST PUSH1 0x0 PUSH2 0x154E DUP3 PUSH2 0x1AA7 JUMP JUMPDEST PUSH2 0x1558 DUP2 DUP6 PUSH2 0x1AB2 JUMP JUMPDEST SWAP4 POP PUSH2 0x1568 DUP2 DUP6 PUSH1 0x20 DUP7 ADD PUSH2 0x1B1A JUMP JUMPDEST PUSH2 0x1571 DUP2 PUSH2 0x1BAE JUMP JUMPDEST DUP5 ADD SWAP2 POP POP SWAP3 SWAP2 POP POP JUMP JUMPDEST PUSH1 0x0 PUSH2 0x1589 PUSH1 0x27 DUP4 PUSH2 0x1AB2 JUMP JUMPDEST SWAP2 POP PUSH32 0x536F6C6F2070726F647563746F7265732070756564656E206372656172207072 PUSH1 0x0 DUP4 ADD MSTORE PUSH32 0x6F647563746F7300000000000000000000000000000000000000000000000000 PUSH1 0x20 DUP4 ADD MSTORE PUSH1 0x40 DUP3 ADD SWAP1 POP SWAP2 SWAP1 POP JUMP JUMPDEST PUSH1 0x0 PUSH2 0x15EF PUSH1 0x1A DUP4 PUSH2 0x1AB2 JUMP JUMPDEST SWAP2 POP PUSH32 0x44657374696E61746172696F206E6F207265676973747261646F000000000000 PUSH1 0x0 DUP4 ADD MSTORE PUSH1 0x20 DUP3 ADD SWAP1 POP SWAP2 SWAP1 POP JUMP JUMPDEST PUSH1 0x0 PUSH2 0x162F PUSH1 0x2E DUP4 PUSH2 0x1AB2 JUMP JUMPDEST SWAP2 POP PUSH32 0x4E6F207469656E6573207065726D69736F2070617261206D6F64696669636172 PUSH1 0x0 DUP4 ADD MSTORE PUSH32 0x20657374652070726F647563746F000000000000000000000000000000000000 PUSH1 0x20 DUP4 ADD MSTORE PUSH1 0x40 DUP3 ADD SWAP1 POP SWAP2 SWAP1 POP JUMP JUMPDEST PUSH1 0x0 PUSH2 0x1695 PUSH1 0x15 DUP4 PUSH2 0x1AB2 JUMP JUMPDEST SWAP2 POP PUSH32 0x5573756172696F206E6F207265676973747261646F0000000000000000000000 PUSH1 0x0 DUP4 ADD MSTORE PUSH1 0x20 DUP3 ADD SWAP1 POP SWAP2 SWAP1 POP JUMP JUMPDEST PUSH1 0x0 PUSH2 0x16D5 PUSH1 0x12 DUP4 PUSH2 0x1AB2 JUMP JUMPDEST SWAP2 POP PUSH32 0x50726F647563746F206E6F206578697374650000000000000000000000000000 PUSH1 0x0 DUP4 ADD MSTORE PUSH1 0x20 DUP3 ADD SWAP1 POP SWAP2 SWAP1 POP JUMP JUMPDEST PUSH1 0x0 PUSH2 0x1715 PUSH1 0x1F DUP4 PUSH2 0x1AB2 JUMP JUMPDEST SWAP2 POP PUSH32 0x4E6F206572657320717569656E20706F73656520656C2070726F647563746F00 PUSH1 0x0 DUP4 ADD MSTORE PUSH1 0x20 DUP3 ADD SWAP1 POP SWAP2 SWAP1 POP JUMP JUMPDEST PUSH1 0x0 PUSH2 0x1755 PUSH1 0x2C DUP4 PUSH2 0x1AB2 JUMP JUMPDEST SWAP2 POP PUSH32 0x5472616E73666572656E636961206E6F207065726D697469646120656E747265 PUSH1 0x0 DUP4 ADD MSTORE PUSH32 0x206573746F7320726F6C65730000000000000000000000000000000000000000 PUSH1 0x20 DUP4 ADD MSTORE PUSH1 0x40 DUP3 ADD SWAP1 POP SWAP2 SWAP1 POP JUMP JUMPDEST PUSH1 0x0 PUSH2 0x17BB PUSH1 0x12 DUP4 PUSH2 0x1AB2 JUMP JUMPDEST SWAP2 POP PUSH32 0x50726F647563746F207961206578697374650000000000000000000000000000 PUSH1 0x0 DUP4 ADD MSTORE PUSH1 0x20 DUP3 ADD SWAP1 POP SWAP2 SWAP1 POP JUMP JUMPDEST PUSH2 0x17F7 DUP2 PUSH2 0x1B01 JUMP JUMPDEST DUP3 MSTORE POP POP JUMP JUMPDEST PUSH1 0x0 PUSH1 0x20 DUP3 ADD SWAP1 POP PUSH2 0x1812 PUSH1 0x0 DUP4 ADD DUP5 PUSH2 0x1507 JUMP JUMPDEST SWAP3 SWAP2 POP POP JUMP JUMPDEST PUSH1 0x0 PUSH1 0x40 DUP3 ADD SWAP1 POP PUSH2 0x182D PUSH1 0x0 DUP4 ADD DUP6 PUSH2 0x1507 JUMP JUMPDEST PUSH2 0x183A PUSH1 0x20 DUP4 ADD DUP5 PUSH2 0x1507 JUMP JUMPDEST SWAP4 SWAP3 POP POP POP JUMP JUMPDEST PUSH1 0x0 PUSH1 0x20 DUP3 ADD SWAP1 POP DUP2 DUP2 SUB PUSH1 0x0 DUP4 ADD MSTORE PUSH2 0x185C DUP2 DUP5 DUP7 PUSH2 0x1516 JUMP JUMPDEST SWAP1 POP SWAP4 SWAP3 POP POP POP JUMP JUMPDEST PUSH1 0x0 PUSH1 0x40 DUP3 ADD SWAP1 POP DUP2 DUP2 SUB PUSH1 0x0 DUP4 ADD MSTORE PUSH2 0x1880 DUP2 DUP6 DUP8 PUSH2 0x1516 JUMP JUMPDEST SWAP1 POP PUSH2 0x188F PUSH1 0x20 DUP4 ADD DUP5 PUSH2 0x1507 JUMP JUMPDEST SWAP5 SWAP4 POP POP POP POP JUMP JUMPDEST PUSH1 0x0 PUSH1 0x20 DUP3 ADD SWAP1 POP DUP2 DUP2 SUB PUSH1 0x0 DUP4 ADD MSTORE PUSH2 0x18B0 DUP2 PUSH2 0x157C JUMP JUMPDEST SWAP1 POP SWAP2 SWAP1 POP JUMP JUMPDEST PUSH1 0x0 PUSH1 0x20 DUP3 ADD SWAP1 POP DUP2 DUP2 SUB PUSH1 0x0 DUP4 ADD MSTORE PUSH2 0x18D0 DUP2 PUSH2 0x15E2 JUMP JUMPDEST SWAP1 POP SWAP2 SWAP1 POP JUMP JUMPDEST PUSH1 0x0 PUSH1 0x20 DUP3 ADD SWAP1 POP DUP2 DUP2 SUB PUSH1 0x0 DUP4 ADD MSTORE PUSH2 0x18F0 DUP2 PUSH2 0x1622 JUMP JUMPDEST SWAP1 POP SWAP2 SWAP1 POP JUMP JUMPDEST PUSH1 0x0 PUSH1 0x20 DUP3 ADD SWAP1 POP DUP2 DUP2 SUB PUSH1 0x0 DUP4 ADD MSTORE PUSH2 0x1910 DUP2 PUSH2 0x1688 JUMP JUMPDEST SWAP1 POP SWAP2 SWAP1 POP JUMP JUMPDEST PUSH1 0x0 PUSH1 0x20 DUP3 ADD SWAP1 POP DUP2 DUP2 SUB PUSH1 0x0 DUP4 ADD MSTORE PUSH2 0x1930 DUP2 PUSH2 0x16C8 JUMP JUMPDEST SWAP1 POP SWAP2 SWAP1 POP JUMP JUMPDEST PUSH1 0x0 PUSH1 0x20 DUP3 ADD SWAP1 POP DUP2 DUP2 SUB PUSH1 0x0 DUP4 ADD MSTORE PUSH2 0x1950 DUP2 PUSH2 0x1708 JUMP JUMPDEST SWAP1 POP SWAP2 SWAP1 POP JUMP JUMPDEST PUSH1 0x0 PUSH1 0x20 DUP3 ADD SWAP1 POP DUP2 DUP2 SUB PUSH1 0x0 DUP4 ADD MSTORE PUSH2 0x1970 DUP2 PUSH2 0x1748 JUMP JUMPDEST SWAP1 POP SWAP2 SWAP1 POP JUMP JUMPDEST PUSH1 0x0 PUSH1 0x20 DUP3 ADD SWAP1 POP DUP2 DUP2 SUB PUSH1 0x0 DUP4 ADD MSTORE PUSH2 0x1990 DUP2 PUSH2 0x17AE JUMP JUMPDEST SWAP1 POP SWAP2 SWAP1 POP JUMP JUMPDEST PUSH1 0x0 PUSH1 0x20 DUP3 ADD SWAP1 POP PUSH2 0x19AC PUSH1 0x0 DUP4 ADD DUP5 PUSH2 0x17EE JUMP JUMPDEST SWAP3 SWAP2 POP POP JUMP JUMPDEST PUSH1 0x0 PUSH1 0x40 DUP3 ADD SWAP1 POP PUSH2 0x19C7 PUSH1 0x0 DUP4 ADD DUP6 PUSH2 0x17EE JUMP JUMPDEST PUSH2 0x19D4 PUSH1 0x20 DUP4 ADD DUP5 PUSH2 0x1507 JUMP JUMPDEST SWAP4 SWAP3 POP POP POP JUMP JUMPDEST PUSH1 0x0 PUSH1 0x60 DUP3 ADD SWAP1 POP PUSH2 0x19F0 PUSH1 0x0 DUP4 ADD DUP7 PUSH2 0x17EE JUMP JUMPDEST PUSH2 0x19FD PUSH1 0x20 DUP4 ADD DUP6 PUSH2 0x1507 JUMP JUMPDEST PUSH2 0x1A0A PUSH1 0x40 DUP4 ADD DUP5 PUSH2 0x1507 JUMP JUMPDEST SWAP5 SWAP4 POP POP POP POP JUMP JUMPDEST PUSH1 0x0 PUSH1 0x60 DUP3 ADD SWAP1 POP PUSH2 0x1A27 PUSH1 0x0 DUP4 ADD DUP8 PUSH2 0x17EE JUMP JUMPDEST DUP2 DUP2 SUB PUSH1 0x20 DUP4 ADD MSTORE PUSH2 0x1A3A DUP2 DUP6 DUP8 PUSH2 0x1516 JUMP JUMPDEST SWAP1 POP PUSH2 0x1A49 PUSH1 0x40 DUP4 ADD DUP5 PUSH2 0x1507 JUMP JUMPDEST SWAP6 SWAP5 POP POP POP POP POP JUMP JUMPDEST PUSH1 0x0 PUSH1 0x80 DUP3 ADD SWAP1 POP PUSH2 0x1A67 PUSH1 0x0 DUP4 ADD DUP9 PUSH2 0x17EE JUMP JUMPDEST DUP2 DUP2 SUB PUSH1 0x20 DUP4 ADD MSTORE PUSH2 0x1A79 DUP2 DUP8 PUSH2 0x1543 JUMP JUMPDEST SWAP1 POP DUP2 DUP2 SUB PUSH1 0x40 DUP4 ADD MSTORE PUSH2 0x1A8E DUP2 DUP6 DUP8 PUSH2 0x1516 JUMP JUMPDEST SWAP1 POP PUSH2 0x1A9D PUSH1 0x60 DUP4 ADD DUP5 PUSH2 0x1507 JUMP JUMPDEST SWAP7 SWAP6 POP POP POP POP POP POP JUMP JUMPDEST PUSH1 0x0 DUP2 MLOAD SWAP1 POP SWAP2 SWAP1 POP JUMP JUMPDEST PUSH1 0x0 DUP3 DUP3 MSTORE PUSH1 0x20 DUP3 ADD SWAP1 POP SWAP3 SWAP2 POP POP JUMP JUMPDEST PUSH1 0x0 PUSH2 0x1ACE DUP3 PUSH2 0x1AE1 JUMP JUMPDEST SWAP1 POP SWAP2 SWAP1 POP JUMP JUMPDEST PUSH1 0x0 DUP2 ISZERO ISZERO SWAP1 POP SWAP2 SWAP1 POP JUMP JUMPDEST PUSH1 0x0 PUSH20 0xFFFFFFFFFFFFFFFFFFFFFFFFFFFFFFFFFFFFFFFF DUP3 AND SWAP1 POP SWAP2 SWAP1 POP JUMP JUMPDEST PUSH1 0x0 DUP2 SWAP1 POP SWAP2 SWAP1 POP JUMP JUMPDEST DUP3 DUP2 DUP4 CALLDATACOPY PUSH1 0x0 DUP4 DUP4 ADD MSTORE POP POP POP JUMP JUMPDEST PUSH1 0x0 JUMPDEST DUP4 DUP2 LT ISZERO PUSH2 0x1B38 JUMPI DUP1 DUP3 ADD MLOAD DUP2 DUP5 ADD MSTORE PUSH1 0x20 DUP2 ADD SWAP1 POP PUSH2 0x1B1D JUMP JUMPDEST DUP4 DUP2 GT ISZERO PUSH2 0x1B47 JUMPI PUSH1 0x0 DUP5 DUP5 ADD MSTORE JUMPDEST POP POP POP POP JUMP JUMPDEST PUSH1 0x0 PUSH1 0x2 DUP3 DIV SWAP1 POP PUSH1 0x1 DUP3 AND DUP1 PUSH2 0x1B65 JUMPI PUSH1 0x7F DUP3 AND SWAP2 POP JUMPDEST PUSH1 0x20 DUP3 LT DUP2 EQ ISZERO PUSH2 0x1B79 JUMPI PUSH2 0x1B78 PUSH2 0x1B7F JUMP JUMPDEST JUMPDEST POP SWAP2 SWAP1 POP JUMP JUMPDEST PUSH32 0x4E487B7100000000000000000000000000000000000000000000000000000000 PUSH1 0x0 MSTORE PUSH1 0x22 PUSH1 0x4 MSTORE PUSH1 0x24 PUSH1 0x0 REVERT JUMPDEST PUSH1 0x0 PUSH1 0x1F NOT PUSH1 0x1F DUP4 ADD AND SWAP1 POP SWAP2 SWAP1 POP JUMP JUMPDEST PUSH2 0x1BC8 DUP2 PUSH2 0x1AC3 JUMP JUMPDEST DUP2 EQ PUSH2 0x1BD3 JUMPI PUSH1 0x0 DUP1 REVERT JUMPDEST POP JUMP JUMPDEST PUSH2 0x1BDF DUP2 PUSH2 0x1AD5 JUMP JUMPDEST DUP2 EQ PUSH2 0x1BEA JUMPI PUSH1 0x0 DUP1 REVERT JUMPDEST POP JUMP JUMPDEST PUSH1 0x4 DUP2 LT PUSH2 0x1BFA JUMPI PUSH1 0x0 DUP1 REVERT JUMPDEST POP JUMP JUMPDEST PUSH2 0x1C06 DUP2 PUSH2 0x1B01 JUMP JUMPDEST DUP2 EQ PUSH2 0x1C11 JUMPI PUSH1 0x0 DUP1 REVERT JUMPDEST POP JUMP INVALID LOG2 PUSH5 0x6970667358 0x22 SLT KECCAK256 0xE1 0x2E LOG2 0x48 DUP9 CALLDATACOPY 0xEB PUSH3 0xB9977E XOR 0x26 SAR 0xB5 0xA5 0xDD DUP14 MULMOD 0x24 SHR 0x2B NOT SWAP15 CALLER MSTORE 0xDD 0xCC 0xEE SGT GT PUSH19 0x64736F6C634300080000330000000000000000 "
		},
		"gasEstimates": {
			"creation": {
				"codeDepositCost": "1448400",
				"executionCost": "infinite",
				"totalCost": "infinite"
			},
			"external": {
				"actualizarEstadoProducto(uint256,string)": "infinite",
				"crearProducto(uint256,string)": "infinite",
				"transferirProducto(uint256,address)": "infinite"
			}
		},
		"methodIdentifiers": {
			"actualizarEstadoProducto(uint256,string)": "5e6a5a63",
			"crearProducto(uint256,string)": "0cbc5668",
			"transferirProducto(uint256,address)": "6add2df9"
		}
	},
	"abi": [
		{
			"inputs": [
				{
					"internalType": "address",
					"name": "_registroProductos",
					"type": "address"
				},
				{
					"internalType": "address",
					"name": "_registroUsuarios",
					"type": "address"
				},
				{
					"internalType": "address",
					"name": "_gestorPermisos",
					"type": "address"
				},
				{
					"internalType": "address",
					"name": "_registroAuditoria",
					"type": "address"
				}
			],
			"stateMutability": "nonpayable",
			"type": "constructor"
		},
		{
			"anonymous": false,
			"inputs": [
				{
					"indexed": true,
					"internalType": "uint256",
					"name": "idProducto",
					"type": "uint256"
				},
				{
					"indexed": false,
					"internalType": "string",
					"name": "nuevoEstado",
					"type": "string"
				}
			],
			"name": "EstadoProductoActualizado",
			"type": "event"
		},
		{
			"anonymous": false,
			"inputs": [
				{
					"indexed": true,
					"internalType": "uint256",
					"name": "idProducto",
					"type": "uint256"
				},
				{
					"indexed": false,
					"internalType": "string",
					"name": "descripcion",
					"type": "string"
				},
				{
					"indexed": false,
					"internalType": "address",
					"name": "productor",
					"type": "address"
				}
			],
			"name": "ProductoCreado",
			"type": "event"
		},
		{
			"anonymous": false,
			"inputs": [
				{
					"indexed": true,
					"internalType": "uint256",
					"name": "idProducto",
					"type": "uint256"
				},
				{
					"indexed": false,
					"internalType": "address",
					"name": "desde",
					"type": "address"
				},
				{
					"indexed": false,
					"internalType": "address",
					"name": "hacia",
					"type": "address"
				}
			],
			"name": "ProductoTransferido",
			"type": "event"
		},
		{
			"inputs": [
				{
					"internalType": "uint256",
					"name": "idProducto",
					"type": "uint256"
				},
				{
					"internalType": "string",
					"name": "nuevoEstado",
					"type": "string"
				}
			],
			"name": "actualizarEstadoProducto",
			"outputs": [],
			"stateMutability": "nonpayable",
			"type": "function"
		},
		{
			"inputs": [
				{
					"internalType": "uint256",
					"name": "idProducto",
					"type": "uint256"
				},
				{
					"internalType": "string",
					"name": "descripcion",
					"type": "string"
				}
			],
			"name": "crearProducto",
			"outputs": [],
			"stateMutability": "nonpayable",
			"type": "function"
		},
		{
			"inputs": [
				{
					"internalType": "uint256",
					"name": "idProducto",
					"type": "uint256"
				},
				{
					"internalType": "address",
					"name": "hacia",
					"type": "address"
				}
			],
			"name": "transferirProducto",
			"outputs": [],
			"stateMutability": "nonpayable",
			"type": "function"
		}
	]
}