{
	"data": {
		"bytecode": {
			"linkReferences": {},
			"object": "60a060405234801561001057600080fd5b503373ffffffffffffffffffffffffffffffffffffffff1660808173ffffffffffffffffffffffffffffffffffffffff1660601b8152505060805160601c610736610066600039600061026901526107366000f3fe608060405234801561001057600080fd5b50600436106100415760003560e01c80634b2aaaf5146100465780637754322214610062578063c435d39c1461007e575b600080fd5b610060600480360381019061005b91906103d5565b61009a565b005b61007c60048036038101906100779190610424565b61017d565b005b610098600480360381019061009391906103ac565b610267565b005b60008054906101000a900473ffffffffffffffffffffffffffffffffffffffff1673ffffffffffffffffffffffffffffffffffffffff163373ffffffffffffffffffffffffffffffffffffffff1614610128576040517f08c379a000000000000000000000000000000000000000000000000000000000815260040161011f9061063a565b60405180910390fd5b428273ffffffffffffffffffffffffffffffffffffffff16847f678c78b6e49ce64c9a39426676cd1691ddc89a26dd7de3907f2651e032e2fd8f8460405161017091906105cd565b60405180910390a4505050565b60008054906101000a900473ffffffffffffffffffffffffffffffffffffffff1673ffffffffffffffffffffffffffffffffffffffff163373ffffffffffffffffffffffffffffffffffffffff161461020b576040517f08c379a00000000000000000000000000000000000000000000000000000000081526004016102029061063a565b60405180910390fd5b42848460405161021c9291906105b4565b6040518091039020867f1fdc04a7ca2c79541eceae25559713c6ca7c8ed2fa293601ea42d3f803536b24858533604051610258939291906105e8565b60405180910390a45050505050565b7f000000000000000000000000000000000000000000000000000000000000000073ffffffffffffffffffffffffffffffffffffffff163373ffffffffffffffffffffffffffffffffffffffff16146102f5576040517f08c379a00000000000000000000000000000000000000000000000000000000081526004016102ec9061061a565b60405180910390fd5b806000806101000a81548173ffffffffffffffffffffffffffffffffffffffff021916908373ffffffffffffffffffffffffffffffffffffffff16021790555050565b600081359050610347816106d2565b92915050565b60008083601f84011261035f57600080fd5b8235905067ffffffffffffffff81111561037857600080fd5b60208301915083600182028301111561039057600080fd5b9250929050565b6000813590506103a6816106e9565b92915050565b6000602082840312156103be57600080fd5b60006103cc84828501610338565b91505092915050565b6000806000606084860312156103ea57600080fd5b60006103f886828701610397565b935050602061040986828701610338565b925050604061041a86828701610338565b9150509250925092565b60008060008060006060868803121561043c57600080fd5b600061044a88828901610397565b955050602086013567ffffffffffffffff81111561046757600080fd5b6104738882890161034d565b9450945050604086013567ffffffffffffffff81111561049257600080fd5b61049e8882890161034d565b92509250509295509295909350565b6104b681610676565b82525050565b60006104c8838561065a565b93506104d58385846106b2565b6104de836106c1565b840190509392505050565b60006104f5838561066b565b93506105028385846106b2565b82840190509392505050565b600061051b60168361065a565b91507f4e6f206572657320656c2070726f706965746172696f000000000000000000006000830152602082019050919050565b600061055b60288361065a565b91507f536f6c6f204c6f67696361436164656e6153756d696e697374726f207075656460008301527f65206c6c616d61720000000000000000000000000000000000000000000000006020830152604082019050919050565b60006105c18284866104e9565b91508190509392505050565b60006020820190506105e260008301846104ad565b92915050565b600060408201905081810360008301526106038185876104bc565b905061061260208301846104ad565b949350505050565b600060208201905081810360008301526106338161050e565b9050919050565b600060208201905081810360008301526106538161054e565b9050919050565b600082825260208201905092915050565b600081905092915050565b600061068182610688565b9050919050565b600073ffffffffffffffffffffffffffffffffffffffff82169050919050565b6000819050919050565b82818337600083830152505050565b6000601f19601f8301169050919050565b6106db81610676565b81146106e657600080fd5b50565b6106f2816106a8565b81146106fd57600080fd5b5056fea264697066735822122097f039ab941b4a2d3a4bbff5030aa89c4c533c4343702b8f928f8b41730eccb064736f6c63430008000033",
			"opcodes": "PUSH1 0xA0 PUSH1 0x40 MSTORE CALLVALUE DUP1 ISZERO PUSH2 0x10 JUMPI PUSH1 0x0 DUP1 REVERT JUMPDEST POP CALLER PUSH20 0xFFFFFFFFFFFFFFFFFFFFFFFFFFFFFFFFFFFFFFFF AND PUSH1 0x80 DUP2 PUSH20 0xFFFFFFFFFFFFFFFFFFFFFFFFFFFFFFFFFFFFFFFF AND PUSH1 0x60 SHL DUP2 MSTORE POP POP PUSH1 0x80 MLOAD PUSH1 0x60 SHR PUSH2 0x736 PUSH2 0x66 PUSH1 0x0 CODECOPY PUSH1 0x0 PUSH2 0x269 ADD MSTORE PUSH2 0x736 PUSH1 0x0 RETURN INVALID PUSH1 0x80 PUSH1 0x40 MSTORE CALLVALUE DUP1 ISZERO PUSH2 0x10 JUMPI PUSH1 0x0 DUP1 REVERT JUMPDEST POP PUSH1 0x4 CALLDATASIZE LT PUSH2 0x41 JUMPI PUSH1 0x0 CALLDATALOAD PUSH1 0xE0 SHR DUP1 PUSH4 0x4B2AAAF5 EQ PUSH2 0x46 JUMPI DUP1 PUSH4 0x77543222 EQ PUSH2 0x62 JUMPI DUP1 PUSH4 0xC435D39C EQ PUSH2 0x7E JUMPI JUMPDEST PUSH1 0x0 DUP1 REVERT JUMPDEST PUSH2 0x60 PUSH1 0x4 DUP1 CALLDATASIZE SUB DUP2 ADD SWAP1 PUSH2 0x5B SWAP2 SWAP1 PUSH2 0x3D5 JUMP JUMPDEST PUSH2 0x9A JUMP JUMPDEST STOP JUMPDEST PUSH2 0x7C PUSH1 0x4 DUP1 CALLDATASIZE SUB DUP2 ADD SWAP1 PUSH2 0x77 SWAP2 SWAP1 PUSH2 0x424 JUMP JUMPDEST PUSH2 0x17D JUMP JUMPDEST STOP JUMPDEST PUSH2 0x98 PUSH1 0x4 DUP1 CALLDATASIZE SUB DUP2 ADD SWAP1 PUSH2 0x93 SWAP2 SWAP1 PUSH2 0x3AC JUMP JUMPDEST PUSH2 0x267 JUMP JUMPDEST STOP JUMPDEST PUSH1 0x0 DUP1 SLOAD SWAP1 PUSH2 0x100 EXP SWAP1 DIV PUSH20 0xFFFFFFFFFFFFFFFFFFFFFFFFFFFFFFFFFFFFFFFF AND PUSH20 0xFFFFFFFFFFFFFFFFFFFFFFFFFFFFFFFFFFFFFFFF AND CALLER PUSH20 0xFFFFFFFFFFFFFFFFFFFFFFFFFFFFFFFFFFFFFFFF AND EQ PUSH2 0x128 JUMPI PUSH1 0x40 MLOAD PUSH32 0x8C379A000000000000000000000000000000000000000000000000000000000 DUP2 MSTORE PUSH1 0x4 ADD PUSH2 0x11F SWAP1 PUSH2 0x63A JUMP JUMPDEST PUSH1 0x40 MLOAD DUP1 SWAP2 SUB SWAP1 REVERT JUMPDEST TIMESTAMP DUP3 PUSH20 0xFFFFFFFFFFFFFFFFFFFFFFFFFFFFFFFFFFFFFFFF AND DUP5 PUSH32 0x678C78B6E49CE64C9A39426676CD1691DDC89A26DD7DE3907F2651E032E2FD8F DUP5 PUSH1 0x40 MLOAD PUSH2 0x170 SWAP2 SWAP1 PUSH2 0x5CD JUMP JUMPDEST PUSH1 0x40 MLOAD DUP1 SWAP2 SUB SWAP1 LOG4 POP POP POP JUMP JUMPDEST PUSH1 0x0 DUP1 SLOAD SWAP1 PUSH2 0x100 EXP SWAP1 DIV PUSH20 0xFFFFFFFFFFFFFFFFFFFFFFFFFFFFFFFFFFFFFFFF AND PUSH20 0xFFFFFFFFFFFFFFFFFFFFFFFFFFFFFFFFFFFFFFFF AND CALLER PUSH20 0xFFFFFFFFFFFFFFFFFFFFFFFFFFFFFFFFFFFFFFFF AND EQ PUSH2 0x20B JUMPI PUSH1 0x40 MLOAD PUSH32 0x8C379A000000000000000000000000000000000000000000000000000000000 DUP2 MSTORE PUSH1 0x4 ADD PUSH2 0x202 SWAP1 PUSH2 0x63A JUMP JUMPDEST PUSH1 0x40 MLOAD DUP1 SWAP2 SUB SWAP1 REVERT JUMPDEST TIMESTAMP DUP5 DUP5 PUSH1 0x40 MLOAD PUSH2 0x21C SWAP3 SWAP2 SWAP1 PUSH2 0x5B4 JUMP JUMPDEST PUSH1 0x40 MLOAD DUP1 SWAP2 SUB SWAP1 KECCAK256 DUP7 PUSH32 0x1FDC04A7CA2C79541ECEAE25559713C6CA7C8ED2FA293601EA42D3F803536B24 DUP6 DUP6 CALLER PUSH1 0x40 MLOAD PUSH2 0x258 SWAP4 SWAP3 SWAP2 SWAP1 PUSH2 0x5E8 JUMP JUMPDEST PUSH1 0x40 MLOAD DUP1 SWAP2 SUB SWAP1 LOG4 POP POP POP POP POP JUMP JUMPDEST PUSH32 0x0 PUSH20 0xFFFFFFFFFFFFFFFFFFFFFFFFFFFFFFFFFFFFFFFF AND CALLER PUSH20 0xFFFFFFFFFFFFFFFFFFFFFFFFFFFFFFFFFFFFFFFF AND EQ PUSH2 0x2F5 JUMPI PUSH1 0x40 MLOAD PUSH32 0x8C379A000000000000000000000000000000000000000000000000000000000 DUP2 MSTORE PUSH1 0x4 ADD PUSH2 0x2EC SWAP1 PUSH2 0x61A JUMP JUMPDEST PUSH1 0x40 MLOAD DUP1 SWAP2 SUB SWAP1 REVERT JUMPDEST DUP1 PUSH1 0x0 DUP1 PUSH2 0x100 EXP DUP2 SLOAD DUP2 PUSH20 0xFFFFFFFFFFFFFFFFFFFFFFFFFFFFFFFFFFFFFFFF MUL NOT AND SWAP1 DUP4 PUSH20 0xFFFFFFFFFFFFFFFFFFFFFFFFFFFFFFFFFFFFFFFF AND MUL OR SWAP1 SSTORE POP POP JUMP JUMPDEST PUSH1 0x0 DUP2 CALLDATALOAD SWAP1 POP PUSH2 0x347 DUP2 PUSH2 0x6D2 JUMP JUMPDEST SWAP3 SWAP2 POP POP JUMP JUMPDEST PUSH1 0x0 DUP1 DUP4 PUSH1 0x1F DUP5 ADD SLT PUSH2 0x35F JUMPI PUSH1 0x0 DUP1 REVERT JUMPDEST DUP3 CALLDATALOAD SWAP1 POP PUSH8 0xFFFFFFFFFFFFFFFF DUP2 GT ISZERO PUSH2 0x378 JUMPI PUSH1 0x0 DUP1 REVERT JUMPDEST PUSH1 0x20 DUP4 ADD SWAP2 POP DUP4 PUSH1 0x1 DUP3 MUL DUP4 ADD GT ISZERO PUSH2 0x390 JUMPI PUSH1 0x0 DUP1 REVERT JUMPDEST SWAP3 POP SWAP3 SWAP1 POP JUMP JUMPDEST PUSH1 0x0 DUP2 CALLDATALOAD SWAP1 POP PUSH2 0x3A6 DUP2 PUSH2 0x6E9 JUMP JUMPDEST SWAP3 SWAP2 POP POP JUMP JUMPDEST PUSH1 0x0 PUSH1 0x20 DUP3 DUP5 SUB SLT ISZERO PUSH2 0x3BE JUMPI PUSH1 0x0 DUP1 REVERT JUMPDEST PUSH1 0x0 PUSH2 0x3CC DUP5 DUP3 DUP6 ADD PUSH2 0x338 JUMP JUMPDEST SWAP2 POP POP SWAP3 SWAP2 POP POP JUMP JUMPDEST PUSH1 0x0 DUP1 PUSH1 0x0 PUSH1 0x60 DUP5 DUP7 SUB SLT ISZERO PUSH2 0x3EA JUMPI PUSH1 0x0 DUP1 REVERT JUMPDEST PUSH1 0x0 PUSH2 0x3F8 DUP7 DUP3 DUP8 ADD PUSH2 0x397 JUMP JUMPDEST SWAP4 POP POP PUSH1 0x20 PUSH2 0x409 DUP7 DUP3 DUP8 ADD PUSH2 0x338 JUMP JUMPDEST SWAP3 POP POP PUSH1 0x40 PUSH2 0x41A DUP7 DUP3 DUP8 ADD PUSH2 0x338 JUMP JUMPDEST SWAP2 POP POP SWAP3 POP SWAP3 POP SWAP3 JUMP JUMPDEST PUSH1 0x0 DUP1 PUSH1 0x0 DUP1 PUSH1 0x0 PUSH1 0x60 DUP7 DUP9 SUB SLT ISZERO PUSH2 0x43C JUMPI PUSH1 0x0 DUP1 REVERT JUMPDEST PUSH1 0x0 PUSH2 0x44A DUP9 DUP3 DUP10 ADD PUSH2 0x397 JUMP JUMPDEST SWAP6 POP POP PUSH1 0x20 DUP7 ADD CALLDATALOAD PUSH8 0xFFFFFFFFFFFFFFFF DUP2 GT ISZERO PUSH2 0x467 JUMPI PUSH1 0x0 DUP1 REVERT JUMPDEST PUSH2 0x473 DUP9 DUP3 DUP10 ADD PUSH2 0x34D JUMP JUMPDEST SWAP5 POP SWAP5 POP POP PUSH1 0x40 DUP7 ADD CALLDATALOAD PUSH8 0xFFFFFFFFFFFFFFFF DUP2 GT ISZERO PUSH2 0x492 JUMPI PUSH1 0x0 DUP1 REVERT JUMPDEST PUSH2 0x49E DUP9 DUP3 DUP10 ADD PUSH2 0x34D JUMP JUMPDEST SWAP3 POP SWAP3 POP POP SWAP3 SWAP6 POP SWAP3 SWAP6 SWAP1 SWAP4 POP JUMP JUMPDEST PUSH2 0x4B6 DUP2 PUSH2 0x676 JUMP JUMPDEST DUP3 MSTORE POP POP JUMP JUMPDEST PUSH1 0x0 PUSH2 0x4C8 DUP4 DUP6 PUSH2 0x65A JUMP JUMPDEST SWAP4 POP PUSH2 0x4D5 DUP4 DUP6 DUP5 PUSH2 0x6B2 JUMP JUMPDEST PUSH2 0x4DE DUP4 PUSH2 0x6C1 JUMP JUMPDEST DUP5 ADD SWAP1 POP SWAP4 SWAP3 POP POP POP JUMP JUMPDEST PUSH1 0x0 PUSH2 0x4F5 DUP4 DUP6 PUSH2 0x66B JUMP JUMPDEST SWAP4 POP PUSH2 0x502 DUP4 DUP6 DUP5 PUSH2 0x6B2 JUMP JUMPDEST DUP3 DUP5 ADD SWAP1 POP SWAP4 SWAP3 POP POP POP JUMP JUMPDEST PUSH1 0x0 PUSH2 0x51B PUSH1 0x16 DUP4 PUSH2 0x65A JUMP JUMPDEST SWAP2 POP PUSH32 0x4E6F206572657320656C2070726F706965746172696F00000000000000000000 PUSH1 0x0 DUP4 ADD MSTORE PUSH1 0x20 DUP3 ADD SWAP1 POP SWAP2 SWAP1 POP JUMP JUMPDEST PUSH1 0x0 PUSH2 0x55B PUSH1 0x28 DUP4 PUSH2 0x65A JUMP JUMPDEST SWAP2 POP PUSH32 0x536F6C6F204C6F67696361436164656E6153756D696E697374726F2070756564 PUSH1 0x0 DUP4 ADD MSTORE PUSH32 0x65206C6C616D6172000000000000000000000000000000000000000000000000 PUSH1 0x20 DUP4 ADD MSTORE PUSH1 0x40 DUP3 ADD SWAP1 POP SWAP2 SWAP1 POP JUMP JUMPDEST PUSH1 0x0 PUSH2 0x5C1 DUP3 DUP5 DUP7 PUSH2 0x4E9 JUMP JUMPDEST SWAP2 POP DUP2 SWAP1 POP SWAP4 SWAP3 POP POP POP JUMP JUMPDEST PUSH1 0x0 PUSH1 0x20 DUP3 ADD SWAP1 POP PUSH2 0x5E2 PUSH1 0x0 DUP4 ADD DUP5 PUSH2 0x4AD JUMP JUMPDEST SWAP3 SWAP2 POP POP JUMP JUMPDEST PUSH1 0x0 PUSH1 0x40 DUP3 ADD SWAP1 POP DUP2 DUP2 SUB PUSH1 0x0 DUP4 ADD MSTORE PUSH2 0x603 DUP2 DUP6 DUP8 PUSH2 0x4BC JUMP JUMPDEST SWAP1 POP PUSH2 0x612 PUSH1 0x20 DUP4 ADD DUP5 PUSH2 0x4AD JUMP JUMPDEST SWAP5 SWAP4 POP POP POP POP JUMP JUMPDEST PUSH1 0x0 PUSH1 0x20 DUP3 ADD SWAP1 POP DUP2 DUP2 SUB PUSH1 0x0 DUP4 ADD MSTORE PUSH2 0x633 DUP2 PUSH2 0x50E JUMP JUMPDEST SWAP1 POP SWAP2 SWAP1 POP JUMP JUMPDEST PUSH1 0x0 PUSH1 0x20 DUP3 ADD SWAP1 POP DUP2 DUP2 SUB PUSH1 0x0 DUP4 ADD MSTORE PUSH2 0x653 DUP2 PUSH2 0x54E JUMP JUMPDEST SWAP1 POP SWAP2 SWAP1 POP JUMP JUMPDEST PUSH1 0x0 DUP3 DUP3 MSTORE PUSH1 0x20 DUP3 ADD SWAP1 POP SWAP3 SWAP2 POP POP JUMP JUMPDEST PUSH1 0x0 DUP2 SWAP1 POP SWAP3 SWAP2 POP POP JUMP JUMPDEST PUSH1 0x0 PUSH2 0x681 DUP3 PUSH2 0x688 JUMP JUMPDEST SWAP1 POP SWAP2 SWAP1 POP JUMP JUMPDEST PUSH1 0x0 PUSH20 0xFFFFFFFFFFFFFFFFFFFFFFFFFFFFFFFFFFFFFFFF DUP3 AND SWAP1 POP SWAP2 SWAP1 POP JUMP JUMPDEST PUSH1 0x0 DUP2 SWAP1 POP SWAP2 SWAP1 POP JUMP JUMPDEST DUP3 DUP2 DUP4 CALLDATACOPY PUSH1 0x0 DUP4 DUP4 ADD MSTORE POP POP POP JUMP JUMPDEST PUSH1 0x0 PUSH1 0x1F NOT PUSH1 0x1F DUP4 ADD AND SWAP1 POP SWAP2 SWAP1 POP JUMP JUMPDEST PUSH2 0x6DB DUP2 PUSH2 0x676 JUMP JUMPDEST DUP2 EQ PUSH2 0x6E6 JUMPI PUSH1 0x0 DUP1 REVERT JUMPDEST POP JUMP JUMPDEST PUSH2 0x6F2 DUP2 PUSH2 0x6A8 JUMP JUMPDEST DUP2 EQ PUSH2 0x6FD JUMPI PUSH1 0x0 DUP1 REVERT JUMPDEST POP JUMP INVALID LOG2 PUSH5 0x6970667358 0x22 SLT KECCAK256 SWAP8 CREATE CODECOPY 0xAB SWAP5 SHL 0x4A 0x2D GASPRICE 0x4B 0xBF CREATE2 SUB EXP 0xA8 SWAP13 0x4C MSTORE8 EXTCODECOPY NUMBER NUMBER PUSH17 0x2B8F928F8B41730ECCB064736F6C634300 ADDMOD STOP STOP CALLER "
		},
		"gasEstimates": {
			"creation": {
				"codeDepositCost": "369200",
				"executionCost": "infinite",
				"totalCost": "infinite"
			},
			"external": {
				"registrarCambioEstado(uint256,string,string)": "infinite",
				"registrarMovimiento(uint256,address,address)": "infinite",
				"setLogicaCadenaSuministro(address)": "infinite"
			}
		},
		"methodIdentifiers": {
			"registrarCambioEstado(uint256,string,string)": "77543222",
			"registrarMovimiento(uint256,address,address)": "4b2aaaf5",
			"setLogicaCadenaSuministro(address)": "c435d39c"
		}
	},
	"abi": [
		{
			"inputs": [],
			"stateMutability": "nonpayable",
			"type": "constructor"
		},
		{
			"anonymous": false,
			"inputs": [
				{
					"indexed": true,
					"internalType": "uint256",
					"name": "idProducto",
					"type": "uint256"
				},
				{
					"indexed": true,
					"internalType": "string",
					"name": "estadoAnterior",
					"type": "string"
				},
				{
					"indexed": false,
					"internalType": "string",
					"name": "nuevoEstado",
					"type": "string"
				},
				{
					"indexed": false,
					"internalType": "address",
					"name": "quienCambia",
					"type": "address"
				},
				{
					"indexed": true,
					"internalType": "uint256",
					"name": "timestamp",
					"type": "uint256"
				}
			],
			"name": "EstadoCambiado",
			"type": "event"
		},
		{
			"anonymous": false,
			"inputs": [
				{
					"indexed": true,
					"internalType": "uint256",
					"name": "idProducto",
					"type": "uint256"
				},
				{
					"indexed": true,
					"internalType": "address",
					"name": "desde",
					"type": "address"
				},
				{
					"indexed": false,
					"internalType": "address",
					"name": "hacia",
					"type": "address"
				},
				{
					"indexed": true,
					"internalType": "uint256",
					"name": "timestamp",
					"type": "uint256"
				}
			],
			"name": "ProductoMovido",
			"type": "event"
		},
		{
			"inputs": [
				{
					"internalType": "uint256",
					"name": "idProducto",
					"type": "uint256"
				},
				{
					"internalType": "string",
					"name": "estadoAnterior",
					"type": "string"
				},
				{
					"internalType": "string",
					"name": "nuevoEstado",
					"type": "string"
				}
			],
			"name": "registrarCambioEstado",
			"outputs": [],
			"stateMutability": "nonpayable",
			"type": "function"
		},
		{
			"inputs": [
				{
					"internalType": "uint256",
					"name": "idProducto",
					"type": "uint256"
				},
				{
					"internalType": "address",
					"name": "desde",
					"type": "address"
				},
				{
					"internalType": "address",
					"name": "hacia",
					"type": "address"
				}
			],
			"name": "registrarMovimiento",
			"outputs": [],
			"stateMutability": "nonpayable",
			"type": "function"
		},
		{
			"inputs": [
				{
					"internalType": "address",
					"name": "logica",
					"type": "address"
				}
			],
			"name": "setLogicaCadenaSuministro",
			"outputs": [],
			"stateMutability": "nonpayable",
			"type": "function"
		}
	]
}